:100000000C9480000C94A1000C94A1000C94A1000D
:100010000C94A1000C94A1000C94A1000C94A100DC
:100020000C94A1000C94A1000C94A1000C94A100CC
:100030000C94A1000C94A1000C94A1000C94A100BC
:100040000C94A1000C94A1000C94A1000C94A100AC
:100050000C94A1000C94FB010C94A1000C94A10041
:100060000C94A1000C94A1000C94A1000C94A1008C
:100070000C94A1000C94A1000C94A1000C94A1007C
:100080000C94A1000C94A1000C94A1000C94A1006C
:100090000C94A1000C94A1000C94A1000C94A1005C
:1000A0000C94A1000C94A1000C94A1000C94A1004C
:1000B0000C94A1000C94A1000C94A1000C94A1003C
:1000C0000C94A1000C94A1000C94A1000C94A1002C
:1000D0000C94A1000C94A1000C94A1000C94A1001C
:1000E0000C94A1000C94DC000C94A3000C94F3007D
:1000F0000C94A4000C94D7000C941A010C94A50045
:1001000011241FBECFEFD1E2DEBFCDBF00E00CBF98
:1001100012E0A0E0B2E0ECE6FFE000E00BBF02C0BE
:1001200007900D92A634B107D9F723E0A6E4B2E018
:1001300001C01D92A232B207E1F70E94C1050C94E2
:10014000B4070C940000FFCFFFCFEC01F0E0E4E235
:10015000908190689083F0E0E5E290819F779083B2
:1001600028813981ADECBCEC0E945D06969587959F
:1001700096958795969587950E94E301F0E0E4E2D5
:10018000908190689083F0E0E5E2908190689083A0
:1001900028813981ADECBCEC0E945D06969587956F
:1001A00096958795969587950E94E301CFCF85E137
:1001B00092E00E944D03FBCF86E990E00E94E301AC
:1001C0000E94850486E492E00E94FB0487E192E0AD
:1001D0000E944D0386E492E00E942B058AE090E0A5
:1001E0000E94E301EFCF86E492E00E94FB0489E1E4
:1001F00092E00E944D0386E492E00E942B058AE083
:1002000090E00E94E301EFCFF0E0E4E2908190689B
:100210009083F0E0E5E29081906890830895F0E0AB
:10022000E4E2908190689083F0E0E5E290819F772E
:10023000908308957894C701F801099420911C03D4
:1002400030911D033695279536952795ABE7B4E198
:100250000E945D0696958795089580911B030895E9
:10026000FF920F931F93CF93DF93C0910A03D0E0C7
:1002700080911B0390E00196BE010E942706282F63
:10028000811103C081E090E021E037E1389FF00167
:10029000399FF00D1124EE5AFD4F3181323011F1AA
:1002A0008E010150110910161106E4F430E027E127
:1002B000F22E03C030171106ACF40196BE010E9465
:1002C0002706282F811103C081E090E021E03F5FE5
:1002D000F89EF001F99EF00D1124EE5AFD4F418178
:1002E000423041F737E1389FF001399FF00D11247A
:1002F000EE5AFD4F82E08183822FDF91CF911F91D3
:100300000F91FF90089580910A0308952F923F92D4
:100310004F925F926F927F928F929F92AF92BF9215
:10032000CF92DF92EF92FF920F931F93CF93DF93C1
:10033000F0E0EDE511912081E62FF72F1193208356
:10034000E82FF92F11912081F0E0EDE51193208342
:10035000DF91CF911F910F91FF90EF90DF90CF90A1
:10036000BF90AF909F908F907F906F905F904F90D5
:100370003F902F900895CF93F894C0911B0387E18D
:10038000C89FF0011124EE5AFD4F8181813011F494
:1003900082E081830E94300180931B0367E1689FA4
:1003A000C0011124FC01EE5AFD4F21E02183C69FBC
:1003B000B00111246D597D4F8D599D4F0E948601CA
:1003C0007894CF910895F894E0911B032E2F30E09C
:1003D00047E1E49FF0011124EE5AFD4F43E04183D1
:1003E000F901EE0FFF1FE55FFC4F918380830E94B0
:1003F000BB01789408951F920F920FB60F921124AB
:100400000BB60F922F933F934F935F936F937F930E
:100410008F939F93AF93BF93CF93DF93EF93FF930C
:1004200020910A03222339F1EBE0F3E0A2E5B2E0E8
:10043000215030E0220F331F235F3C4F42E009C0C0
:10044000EF0122970197998388835796E217F30764
:1004500091F0819191918230910590F70197A9F7E0
:10046000EF0122971982188211964C931197579693
:10047000E217F30771F780911C0390911D03019619
:1004800090931D0380931C03C0911B030E943001B5
:1004900080931B0397E19C9FB0011124FB01EE5A4E
:1004A000FD4F22E02183989FC0011124FC01EE5AE8
:1004B000FD4F21E021836D597D4F8D599D4F0E9445
:1004C0008601FF91EF91DF91CF91BF91AF919F9105
:1004D0008F917F916F915F914F913F912F910F90ED
:1004E0000BBE0F900FBE0F901F901895EEE6F0E038
:1004F00080818260808384B5826084BD85B585609B
:1005000085BD8CE987BD089510920A0310921B03E4
:1005100010921D0310921C03E2E5F2E01686158688
:10052000108A1786128A118A779683E0EA30F807D4
:10053000A9F70C942403CF93DF931F921F92CDB79A
:10054000DEB7EEE6F0E080818260808384B5826071
:1005500084BD85B5856085BD8CE987BD7894BE0175
:100560006F5F7F4F83E692E00E9486010F900F90AD
:10057000DF91CF9108959F92AF92BF92CF92DF9279
:10058000EF92FF920F931F93CF93DF93B62E072F17
:10059000942EA52E69012AE0E22E23E0F22EF70127
:1005A0002081D7E1D29FF0011124EE5AFD4F208324
:1005B0002D9F9001112449E050E0BC01C9018B5AE4
:1005C0009D4F0E94A507F7011081812F90E0D89FD1
:1005D0009001D99F300D1124E901CE5ADD4F22E060
:1005E0002983880F991FFC01E55FFC4F118210825F
:1005F0001A82BD860E87C6018A969E8B8D8B0E94BD
:100600008006988B8F87F601B996E80FF91FFC8B4F
:10061000EB8B7697FA8BE98B8AE191E0858B948B53
:10062000138AB48203839682A5821F5FF701108329
:10063000DF91CF911F910F91FF90EF90DF90CF90BE
:10064000BF90AF909F90089582E08093C000109279
:10065000C50080E18093C400E1ECF0E08081886116
:10066000808308958091C000881F8827881F08957F
:100670008091C00087FF03C08091C60008958FEF6E
:1006800008959091C10095FDFCCF9091C00095FF19
:10069000F8CF8093C60081E00895FC0120812223D9
:1006A00071F031969091C10095FDFCCF9091C00002
:1006B00095FFF8CF2093C60021912111F3CF089523
:1006C000CF93DF93EC018A30910570F4C05D909177
:1006D000C10095FDFCCF9091C00095FFF8CFC0936D
:1006E000C600DF91CF9108959C01ADECBCEC0E9457
:1006F0005D069695879596958795969587959C0125
:10070000220F331F220F331F280F391F220F331FD1
:10071000C21BD30B0E946003D9CFCF92DF92EF921E
:10072000FF926B017C018AE0C816D104E104F10458
:1007300088F480E3C80E8091C10085FDFCCF8091D4
:10074000C00085FFF8CFC092C600FF90EF90DF9009
:10075000CF900895C7012AE030E040E050E00E94C9
:100760003B066B01C9010E946003E3CFCF93DF9387
:10077000EC0180319105F8F4CA30D10570F4C05D08
:100780009091C10095FDFCCF9091C00095FFF8CFEE
:10079000C093C600DF91CF910895C95C9091C100CC
:1007A00095FDFCCF9091C00095FFF8CFC093C60097
:1007B000DF91CF910895929582958F7089279F70D0
:1007C0008927CF70DD270E94B603D6CFCF92DF9264
:1007D000EF92FF926B017C0120E1C216D104E1048B
:1007E000F10440F58AE0C816D104E104F10488F46C
:1007F00090E39C0D8091C10085FDFCCF8091C000ED
:1008000085FFF8CF9093C600FF90EF90DF90CF90D8
:10081000089597E39C0D8091C10085FDFCCF8091E8
:10082000C00085FFF8CF9093C600FF90EF90DF9057
:10083000CF90089524E096958795779567952A95AA
:10084000D1F72FE0C222DD24EE24FF240E94E6032C
:10085000C9CFCF93C62F9091C10095FDFCCF909149
:10086000C00095FFF8CF9BE19093C6009091C10026
:1008700095FDFCCF9091C00095FFF8CF9BE590933C
:10088000C60090E00E9460038091C10085FDFCCF0E
:100890008091C00085FFF8CF8BE38093C6008C2F3A
:1008A00090E00E9460038091C10085FDFCCF8091A3
:1008B000C00085FFF8CF88E48093C600CF910895EB
:1008C0009091C10095FDFCCF9091C00095FFF8CFAD
:1008D0009BE19093C6009091C10095FDFCCF909153
:1008E000C00095FFF8CF9BE59093C60090E00E9472
:1008F00060038091C10085FDFCCF8091C00085FF21
:10090000F8CF8DE68093C60008958091C10085FDE3
:10091000FCCF8091C00085FFF8CF8BE18093C600AB
:100920008091C10085FDFCCF8091C00085FFF8CF8C
:100930008BE58093C6008091C10085FDFCCF80913E
:10094000C00085FFF8CF82E38093C6008091C1008C
:1009500085FDFCCF8091C00085FFF8CF8AE48093AD
:10096000C6000895FC01238530E0E20FF31F628387
:100970002F5F3F4F27703327FC0123870895FC0129
:1009800022858385281761F030E0DF01A20FB31FB5
:1009900012968C912F5F3F4F27703327228708953F
:1009A0008FEF0895FC01228530E0E20FF31F618391
:1009B0002F5F3F4F27703327FC0122870895FC01EA
:1009C00021858285281761F030E0DF01A20FB31F77
:1009D00011968C912F5F3F4F277033272187089501
:1009E0008FEF0895FC01F89411828FEF80831286B7
:1009F000138678940895CF93DF93EC01F8940E94C6
:100A00002D019981992339F0988198130BC078941E
:100A1000DF91CF91089591E0998388837894DF9155
:100A2000CF9108952B8530E0FE01E20FF31F828302
:100A30002F5F3F4F277033272B8797E1899FF00166
:100A40001124EE5AFD4F84E081830E94BB0178940B
:100A5000DF91CF910895CF93DF93EC01F8940E943A
:100A60002D019981992319F09881981721F0789494
:100A7000DF91CF9108958A859B858917A9F090E031
:100A8000FE01E80FF91FE2810196877099278A8796
:100A9000EF3F51F0E88387E1E89FF0011124EE5A1F
:100AA000FD4F82E08183E3CF19828FEF88837894B2
:100AB000DF91CF910895FC01F8946083118612862E
:100AC00078940895FC01F8949081915090837894E3
:100AD0000895FC01F89480818F5F80832185828551
:100AE0002817A9F030E0DF01A20FB31F11968C91F7
:100AF0002F5F3F4F2770332721878F3F41F097E1CA
:100B0000899FF0011124EE5AFD4F82E08183789491
:100B10000895CF93FC01F89480818F5F80832185B5
:100B20008285281749F130E0DF01A20FB31F11962B
:100B3000CC912F5F3F4F2770332721870E942D01D3
:100B4000CF3FB9F097E1989FB0011124FB01EE5A15
:100B5000FD4F82E081839C9FC0011124FC01EE5A6D
:100B6000FD4F21E021836D597D4F8D599D4F0E948E
:100B700086017894CF9108950E942D017894CF91A9
:100B80000895CF93DF93CDB7DEB761970FB6F89492
:100B9000DEBF0FBECDBF82E390E0998B888B8AE0E9
:100BA000E6E0F2E0DE01119601900D928A95E1F700
:100BB000FE013B9685E0DF011D928A95E9F70E94D0
:100BC000840286E492E00E94F20422E330E050E0E6
:100BD00040E067ED70E08BE192E00E94BB0222E30F
:100BE00030E050E040E063EA70E080E292E00E9492
:100BF000BB0222E330E050E040E064EA70E089E2CA
:100C000092E00E94BB0222E330E0AE014F5F5F4FF3
:100C10006CED70E082E392E00E94BB0222E330E0E0
:100C200050E040E063EF70E088E392E00E94BB0296
:100C300022E330E0AE01405F5F4F65EA70E08FE392
:100C400092E00E94BB020E949B027894FFCF97FB28
:100C5000072E16F4009407D077FD09D00E946C0689
:100C600007FC05D03EF4909581959F4F08957095AF
:100C700061957F4F0895A1E21A2EAA1BBB1BFD01AF
:100C80000DC0AA1FBB1FEE1FFF1FA217B307E4076B
:100C9000F50720F0A21BB30BE40BF50B661F771FC3
:100CA000881F991F1A9469F76095709580959095A3
:100CB0009B01AC01BD01CF010895A29FB001B39F7C
:100CC000C001A39F700D811D1124911DB29F700D55
:100CD000811D1124911D0895AA1BBB1B51E107C062
:100CE000AA1FBB1FA617B70710F0A61BB70B881FBC
:100CF000991F5A95A9F780959095BC01CD0108954B
:100D00000F931F93CF93DF938230910510F482E00D
:100D100090E0E0912003F091210330E020E0B0E08A
:100D2000A0E0309799F42115310509F44AC0281B39
:100D3000390B24303105D8F58A819B816115710505
:100D400089F1FB0193838283FE0111C040815181AF
:100D50000281138148175907E0F04817590799F4A1
:100D6000109761F012960C93129713961C9332967B
:100D7000CF01DF91CF911F910F9108950093200330
:100D800010932103F4CF2115310551F04217530779
:100D900038F0A901DB019A01BD01DF01F801C1CFE3
:100DA000EF01F9CF9093210380932003CDCFFE0173
:100DB000E20FF31F819391932250310939832883E5
:100DC000D7CF20911E0330911F03232B41F4209194
:100DD00002023091030230931F0320931E032091DF
:100DE0000002309101022115310541F42DB73EB7C3
:100DF0004091040250910502241B350BE0911E0323
:100E0000F0911F03E217F307A0F42E1B3F0B2817E6
:100E1000390778F0AC014E5F5F4F2417350748F073
:100E20004E0F5F1F50931F0340931E0381939193B6
:100E30009FCFF0E0E0E09CCFCF93DF930097E9F005
:100E4000FC01329713821282A0912003B0912103FA
:100E5000ED0130E020E01097A1F420813181820F74
:100E6000931F20911E0330911F032817390709F0A3
:100E700061C0F0931F03E0931E03DF91CF910895AB
:100E8000EA01CE17DF07E8F54A815B819E01411533
:100E90005105B1F7E901FB83EA8349915991C40FE8
:100EA000D51FEC17FD0761F4808191810296840FB4
:100EB000951FE90199838883828193819B838A832B
:100EC000F0E0E0E012968D919C9113970097B9F5B0
:100ED0002D913C911197CD010296820F931F209185
:100EE0001E0330911F032817390739F6309751F543
:100EF0001092210310922003B0931F03A0931E03AE
:100F0000BCCFD383C28340815181840F951FC81702
:100F1000D90761F44E5F5F4F88819981480F591F4F
:100F2000518340838A819B8193838283211531057C
:100F300009F0B0CFF0932103E09320039ECFFD0191
:100F4000DC01C0CF13821282D7CFFB01DC014150FC
:100F5000504048F001900D920020C9F701C01D9249
:0C0F600041505040E0F70895F894FFCF96
:100F6C0000002203200050726F6772616D20330005
:100F7C0000000000006900440042006D61696E00D1
:100F8C0070726F647563657200636F6E73756D65F7
:100F9C0072007374617473006275666665720062C8
:060FAC006C696E6B000091
:00000001FF
