:100000000C9478000C9499000C9499000C9499002D
:100010000C9499000C9499000C9499000C949900FC
:100020000C9499000C9499000C9499000C949900EC
:100030000C9499000C9499000C9499000C949900DC
:100040000C9499000C9499000C9499000C949900CC
:100050000C9499000C94C7010C9499000C9499008D
:100060000C9499000C9499000C9499000C949900AC
:100070000C9499000C9499000C9499000C9499009C
:100080000C9499000C9499000C9499000C9499008C
:100090000C9499000C9499000C9499000C9499007C
:1000A0000C9499000C9499000C9499000C9499006C
:1000B0000C9499000C9499000C9499000C9499005C
:1000C0000C9499000C9499000C9499000C9499004C
:1000D0000C9499000C9499000C9499000C9499003C
:1000E0000C9499000C949B000C94A9000C9444016E
:1000F00011241FBECFEFD1E2DEBFCDBF00E00CBFA9
:1001000012E0A0E0B2E0E8EDFBE000E00BBF02C0CF
:1001100007900D92AC33B107D9F722E0ACE3B2E01F
:1001200001C01D92AC3FB207E1F70E9440040C945D
:10013000EA050C9400002FEF83EC99E021508040F9
:100140009040E1F700C0000086E092E00E94DB02F0
:10015000F2CF2FEF81EE94E0215080409040E1F704
:1001600000C0000088E092E00E94DB02F2CFF0E0E5
:10017000E4E2908190689083F0E0E5E290819068FD
:1001800090830895F0E0E4E2908190689083F0E03D
:10019000E5E290819F7790830895FC012081318171
:1001A000A90141505109F0E0E4E290819068908308
:1001B000F0E0E5E290819F7790832115310549F0C9
:1001C000CA01EFE9FFE03197F1F700C000000197A5
:1001D000C0F7F0E0E4E2908190689083F0E0E5E21F
:1001E00090819068908321153105E9F2CA01EFE909
:1001F000FFE03197F1F700C000000197C0F7D3CFBF
:10020000EC012FEF8DE399E4215080409040E1F71D
:1002100000C000000E94130481E20E94EE0361E02E
:1002200081E00E94B703CE010E94DB0261E082E020
:100230000E94B70380E20E94EE038AE092E00E94EF
:10024000DB020E9448010E94EE0261E084E00E940D
:10025000B70384E20E94EE0381E192E00E94DB0298
:100260000E94650190E00E94EE02D6CF2FEF83ED51
:1002700090E3215080409040E1F700C0000085E20B
:1002800092E00E94DB02F2CF7894C701F801099452
:100290002091F6023091F7023695279536952795ED
:1002A000ABE7B4E10E9493049695879508958091F9
:1002B000F50290E008958091F50290E0019660913A
:1002C000F40270E00E945D0408958091F4020895A4
:1002D0002F923F924F925F926F927F928F929F9256
:1002E000AF92BF92CF92DF92EF92FF920F931F9344
:1002F000CF93DF93F0E0EDE511912081E62FF72F0A
:1003000011932083E82FF92F11912081F0E0EDE582
:1003100011932083DF91CF911F910F91FF90EF9068
:10032000DF90CF90BF90AF909F908F907F906F9015
:100330005F904F903F902F900895F8942091F50290
:10034000822F90E037E1239FF0011124E45CFD4F00
:100350003181313011F432E0318301966091F40241
:1003600070E00E945D048093F50237E1239FB001A5
:100370001124635B7D4F389FA001399F500D1124DC
:10038000CA01835B9D4F0E946801789408951F9273
:100390000F920FB60F9211240BB60F922F933F932B
:1003A0004F935F936F937F938F939F93AF93BF937D
:1003B000EF93FF93E6EFF2E08081918101969183C4
:1003C0008083E5EFF2E02081822F90E0019660913A
:1003D000F40270E00E945D04808337E1239FB00146
:1003E0001124635B7D4F389FA001399F500D11246C
:1003F000CA01835B9D4F0E946801FF91EF91BF91FD
:10040000AF919F918F917F916F915F914F913F91AC
:100410002F910F900BBE0F900FBE0F901F9018954D
:10042000EEE6F0E080818260808384B5826084BDE6
:1004300085B5856085BD8CE987BD08951092F4026D
:100440001092F5021092F7021092F602ECE3F2E03D
:1004500016861586108A1786128A118A779682E088
:10046000E43FF807A9F70C94B202CF93DF931F92F1
:100470001F92CDB7DEB7EEE6F0E080818260808328
:1004800084B5826084BD85B5856085BD8CE987BDF6
:100490007894BE016F5F7F4F8DE492E00E94680107
:1004A0000F900F90DF91CF9108959F92AF92BF92DE
:1004B000CF92DF92EF92FF920F931F93CF93DF9330
:1004C000B62E072F942EA52E690124EFE22E22E0EE
:1004D000F22EF7012081C7E1C29FF0011124E45CF4
:1004E000FD4F20832C9F9001112449E050E0BC0176
:1004F000C901815C9D4F0E94DB05F7011081C19FFE
:10050000E0011124C45CDD4F82E089831A82BD863C
:100510000E87C6018A969E8B8D8B0E94B604988B9F
:100520008F87F601B996E80FF91FFC8BEB8B769756
:10053000FA8BE98B84E491E0858B948B138AB482E7
:1005400003839682A5821F5FF7011083DF91CF910D
:100550001F910F91FF90EF90DF90CF90BF90AF90E1
:100560009F90089582E08093C0001092C50080E1C2
:100570008093C400E1ECF0E080818861808308957D
:100580008091C000881F8827881F08958091C0002F
:1005900087FF03C08091C60008958FEF0895909162
:1005A000C10095FDFCCF9091C00095FFF8CF8093DE
:1005B000C60081E00895FC012081222371F031966C
:1005C0009091C10095FDFCCF9091C00095FFF8CFB0
:1005D0002093C60021912111F3CF0895CF93DF938B
:1005E000EC018A30910570F4C05D9091C10095FDD9
:1005F000FCCF9091C00095FFF8CFC093C600DF916B
:10060000CF9108959C01ADECBCEC0E9493049695AB
:10061000879596958795969587959C01220F331F10
:10062000220F331F280F391F220F331FC21BD30B7A
:100630000E94EE02D9CFCF92DF92EF92FF926B0130
:100640007C018AE0C816D104E104F10488F480E357
:10065000C80E8091C10085FDFCCF8091C00085FF50
:10066000F8CFC092C600FF90EF90DF90CF90089532
:10067000C7012AE030E040E050E00E9471046B01C5
:10068000C9010E94EE02E3CFCF93DF93EC018031EA
:100690009105F8F4CA30D10570F4C05D9091C100A5
:1006A00095FDFCCF9091C00095FFF8CFC093C60098
:1006B000DF91CF910895C95C9091C10095FDFCCF69
:1006C0009091C00095FFF8CFC093C600DF91CF9105
:1006D0000895929582958F7089279F708927CF7092
:1006E000DD270E944403D6CFCF92DF92EF92FF9294
:1006F0006B017C0120E1C216D104E104F10440F554
:100700008AE0C816D104E104F10488F490E39C0D5A
:100710008091C10085FDFCCF8091C00085FFF8CF9E
:100720009093C600FF90EF90DF90CF90089597E3ED
:100730009C0D8091C10085FDFCCF8091C00085FF9C
:10074000F8CF9093C600FF90EF90DF90CF90089580
:1007500024E096958795779567952A95D1F72FE0B0
:10076000C222DD24EE24FF240E947403C9CFCF935C
:10077000C62F9091C10095FDFCCF9091C00095FFD0
:10078000F8CF9BE19093C6009091C10095FDFCCFFE
:100790009091C00095FFF8CF9BE59093C60090E044
:1007A0000E94EE028091C10085FDFCCF8091C000C7
:1007B00085FFF8CF8BE38093C6008C2F90E00E94DA
:1007C000EE028091C10085FDFCCF8091C00085FFC5
:1007D000F8CF88E48093C600CF9108959091C1002E
:1007E00095FDFCCF9091C00095FFF8CF9BE19093D1
:1007F000C6009091C10095FDFCCF9091C00095FF7F
:10080000F8CF9BE59093C60090E00E94EE028091A5
:10081000C10085FDFCCF8091C00085FFF8CF8DE63B
:100820008093C60008958091C10085FDFCCF809122
:10083000C00085FFF8CF8BE18093C6008091C10096
:1008400085FDFCCF8091C00085FFF8CF8BE58093BC
:10085000C6008091C10085FDFCCF8091C00085FF5E
:10086000F8CF82E38093C6008091C10085FDFCCF64
:100870008091C00085FFF8CF8AE48093C600089578
:100880000E941E0222E330E050E040E06BE970E09D
:1008900087E292E00E94550222E330E050E040E01F
:1008A00069EA70E080E392E00E9455020E943502FE
:1008B00089E392E00E94DB02FBCF97FB072E16F440
:1008C000009407D077FD09D00E94A20407FC05D050
:1008D0003EF4909581959F4F0895709561957F4F57
:1008E0000895A1E21A2EAA1BBB1BFD010DC0AA1F71
:1008F000BB1FEE1FFF1FA217B307E407F50720F089
:10090000A21BB30BE40BF50B661F771F881F991F03
:100910001A9469F760957095809590959B01AC014C
:10092000BD01CF010895A29FB001B39FC001A39F55
:10093000700D811D1124911DB29F700D811D112418
:10094000911D0895AA1BBB1B51E107C0AA1FBB1F25
:10095000A617B70710F0A61BB70B881F991F5A954B
:10096000A9F780959095BC01CD0108950F931F9331
:10097000CF93DF938230910510F482E090E0E09114
:10098000FA02F091FB0230E020E0B0E0A0E0309706
:1009900099F42115310509F44AC0281B390B24307C
:1009A0003105D8F58A819B816115710589F1FB01BB
:1009B00093838283FE0111C04081518102811381A2
:1009C00048175907E0F04817590799F4109761F054
:1009D00012960C93129713961C933296CF01DF91C7
:1009E000CF911F910F9108950093FA021093FB028B
:1009F000F4CF2115310551F04217530738F0A90102
:100A0000DB019A01BD01DF01F801C1CFEF01F9CF90
:100A10009093FB028093FA02CDCFFE01E20FF31F09
:100A2000819391932250310939832883D7CF209124
:100A3000F8023091F902232B41F420910202309107
:100A400003023093F9022093F802209100023091C2
:100A500001022115310541F42DB73EB74091040242
:100A600050910502241B350BE091F802F091F90238
:100A7000E217F307A0F42E1B3F0B2817390778F075
:100A8000AC014E5F5F4F2417350748F04E0F5F1FD4
:100A90005093F9024093F802819391939FCFF0E035
:100AA000E0E09CCFCF93DF930097E9F0FC01329711
:100AB00013821282A091FA02B091FB02ED0130E0A4
:100AC00020E01097A1F420813181820F931F2091A3
:100AD000F8023091F9022817390709F061C0F09344
:100AE000F902E093F802DF91CF910895EA01CE1761
:100AF000DF07E8F54A815B819E0141155105B1F799
:100B0000E901FB83EA8349915991C40FD51FEC1782
:100B1000FD0761F4808191810296840F951FE901A0
:100B200099838883828193819B838A83F0E0E0E0CC
:100B300012968D919C9113970097B9F52D913C9148
:100B40001197CD010296820F931F2091F8023091E8
:100B5000F9022817390739F6309751F51092FB0240
:100B60001092FA02B093F902A093F802BCCFD3839B
:100B7000C28340815181840F951FC817D90761F442
:100B80004E5F5F4F88819981480F591F5183408381
:100B90008A819B81938382832115310509F0B0CF2F
:100BA000F093FB02E093FA029ECFFD01DC01C0CF7F
:100BB00013821282D7CFFB01DC014150504048F034
:100BC00001900D920020C9F701C01D924150504084
:080BD000E0F70895F894FFCF4F
:100BD8000000FC0220005000430054696D653A2073
:100BE800004E756D626572206F662074687265616B
:100BF80064733A2000420070726F64756365720016
:0C0C0800636F6E73756D6572004D000027
:00000001FF
