:100000000C9480000C94A1000C94A1000C94A1000D
:100010000C94A1000C94A1000C94A1000C94A100DC
:100020000C94A1000C94A1000C94A1000C94A100CC
:100030000C94A1000C94A1000C94A1000C94A100BC
:100040000C94A1000C94B3040C94A1000C94A10096
:100050000C94A1000C942D040C94A1000C94A1000C
:100060000C94A1000C94A1000C94A1000C94A1008C
:100070000C94A1000C94A1000C94A1000C94A1007C
:100080000C94A1000C94A1000C94A1000C94A1006C
:100090000C94A1000C94A1000C94A1000C94A1005C
:1000A0000C94A1000C94A1000C94A1000C94A1004C
:1000B0000C94A1000C94A1000C94A1000C94A1003C
:1000C0000C94A1000C94A1000C94A1000C94A1002C
:1000D0000C94A1000C94A1000C94A1000C94A1001C
:1000E0000C94A1000C94CF010C94A3000C94C000BC
:1000F0000C94E5020C94E0000C943D030C948708EA
:1001000011241FBECFEFD1E2DEBFCDBF00E00CBF98
:1001100013E0A0E0B2E0E0E6F5E100E00BBF02C0D2
:1001200007900D92AA35B107D9F724E0AAE5B3E00C
:1001300001C01D92A237B207E1F70E9487080C9414
:10014000AE0A0C9400008091700387FD0EC0F0E0B1
:10015000E4E2908190689083F0E0E5E2908190681D
:1001600090838091700387FFF2CFF0E0E4E290810A
:1001700090689083F0E0E5E290819F779083E3CFF1
:10018000C1E080910202909103020E94150480E771
:1001900093E00E94E1078AE593E00E947A07E091EC
:1001A0007B030E2E000CFF0BEA59FC4FC0838AE53F
:1001B00093E00E94AA078BE793E00E940908E1CF31
:1001C0008BE793E00E94E1078AE593E00E947A07BB
:1001D00040917B03042E000C550B141615066CF48D
:1001E00020E0F0E0E0E0EA59FC4F818180832F5F5E
:1001F000E22FF0E0E417F507B4F34A595C4FFA0137
:1002000010828AE593E00E94AA07809100029091F3
:1002100001020E94150480E793E00E940908D0CFF4
:10022000F0E0E4E2908190689083F0E0E5E2908174
:10023000906890830895F0E0E4E290819068908364
:10024000F0E0E5E290819F7790830895CF93DF936C
:10025000EB0168E20E94A80685E492E00E94CC05CA
:10026000888190E00E94DF0583ED92E00E94CC053A
:10027000CE0103960E94CC058DE492E00E94CC054D
:100280008A8190E00E94DF058AE592E0DF91CF91BC
:100290000C94CC05CF93DF93EB0168E20E94A80693
:1002A00082E792E00E94CC058981813079F082302A
:1002B00099F08330B9F0843019F0DF91CF9108952F
:1002C0008DEB92E0DF91CF910C94CC0582E892E027
:1002D000DF91CF910C94CC0586E992E0DF91CF912C
:1002E0000C94CC0588EA92E0DF91CF910C94CC0578
:1002F000CF93DF93EB0168E20E94A80681ED92E0C4
:100300000E94CC058D859E85DF91CF910C9435069A
:10031000CF93DF93EB0168E20E94A80686ED92E09E
:100320000E94CC058B899C890E94350682EF92E061
:100330000E94CC058F8598890E94350682EF92E055
:100340000E94CC058D899E890E94DF0582EF92E094
:100350000E94CC0589899A892F853889821B930B45
:10036000DF91CF910C94DF050F931F93CF93C82F8C
:100370008B0181E08C0F0E942601B80182E08C0F76
:100380000E944A01B80183E08C0F0E947801B801F5
:1003900084E08C0FCF911F910F910C948801EC0198
:1003A0000E94040775C086E893E00E947A0781E204
:1003B0000E94DF0668E281E00E94A806CE010E944A
:1003C000CC0568E282E00E94A80680E20E94DF0677
:1003D00084EF92E00E94CC050E9441030E94DF0559
:1003E00068E283E00E94A80684E20E94DF068BEFA9
:1003F00092E00E94CC050E94A60390E00E94DF05D7
:1004000068E284E00E94A80684E20E94DF068FE092
:1004100093E00E94CC0580917B03082E000C990B81
:100420000E94DF0582E293E00E94CC058091700378
:10043000082E000C990B0E94DF058CE193E00E94CE
:10044000CC0585E20E94DF0662E973E086E00E9447
:10045000B40169EA73E08BE00E94B40160EC73E0E0
:1004600080E10E94B40167ED73E085E10E94B40170
:100470006EEE73E08AE10E94B40165E074E08FE102
:100480000E94B40186E893E00E94AA070E94DE035E
:100490000E94B105882309F486CF0E94B7058636ED
:1004A00099F0823701F18A3661F5809100029091CE
:1004B0000102883E23E0920708F075CF05969093DD
:1004C0000102809300026FCF80910202909103029B
:1004D000883E23E0920708F066CF059690930302CA
:1004E0008093020260CF80910202909103028630D5
:1004F000910508F458CF0597909303028093020268
:1005000052CF853709F04FCF8091000290910102C0
:100510008630910508F447CF0597909301028093A8
:10052000000241CFCF93C62F62E10E94A80684E269
:1005300093E00E94CC05CC2349F087E293E00E942F
:10054000CC0589E293E0CF910C94CC0582E293E054
:100550000E94CC0589E293E0CF910C94CC0561E038
:100560008CE00E94A8068CE293E00E94CC052091CA
:10057000020230910302C901880F991F880F991F49
:10058000820F931F880F991F0E94DF058EE393E06F
:100590000E94CC0561E08DE00E94A80687E493E00C
:1005A0000E94CC052091000230910102C901880F00
:1005B000991F880F991F820F931F880F991F0E9400
:1005C000DF058EE393E00C94CC0586E893E00E946F
:1005D0007A078AE593E00E947A078FE10E94DF069E
:1005E00061E084E10E94A8068091660390E00E9489
:1005F000DF058091670390E00E94DF05809168032A
:1006000090E00E94DF058091690390E00E94DF0581
:1006100080916A0390E00E94DF0580916B0390E077
:100620000E94DF0580916C0390E00E94DF058091BD
:100630006D0390E00E94DF0580916E0390E00E94C0
:10064000DF0580916F0390E00E94DF0506E613E06E
:10065000C1E0F80161918F018C2F0E949202CF5F5F
:10066000CB30B9F78AE593E00E94AA070E94AF0257
:1006700086E893E00E94AA07A8CF7894C701F80102
:10068000099420916C0430916D0436952795369528
:100690002795ABE7B4E10E94570996958795089591
:1006A00080916B040895FF920F931F93CF93DF9374
:1006B000C0914A04D0E080916B0490E00196BE01A5
:1006C0000E942109282F811103C081E090E021E0E0
:1006D00037E1389FF001399FF00D1124EE56FC4FA1
:1006E0003181323011F18E010150110910161106BD
:1006F000E4F430E027E1F22E03C030171106ACF429
:100700000196BE010E942109282F811103C081E0BA
:1007100090E021E03F5FF89EF001F99EF00D11247A
:10072000EE56FC4F4181423041F737E1389FF001EE
:10073000399FF00D1124EE56FC4F82E08183822F09
:10074000DF91CF911F910F91FF90089580914A04FE
:1007500008952F923F924F925F926F927F928F9265
:100760009F92AF92BF92CF92DF92EF92FF920F9340
:100770001F93CF93DF93F0E0EDE511912081E62FF9
:10078000F72F11932083E82FF92F11912081F0E0AA
:10079000EDE511932083DF91CF911F910F91FF9091
:1007A000EF90DF90CF90BF90AF909F908F907F9011
:1007B0006F905F904F903F902F900895CF93F89453
:1007C000C0916B0487E1C89FF0011124EE56FC4FE5
:1007D0008181813011F482E081830E9453038093F0
:1007E0006B04E82FF0E067E16E9FC0016F9F900DF2
:1007F0001124DC01AE56BC4F21E011962C93EE0F74
:10080000FF1FE55AFB4F208131812F5F3F4F31831E
:100810002083C69FB00111246D557C4F8D559C4F90
:100820000E94A9037894CF910895F894E0916B0405
:100830002E2F30E047E1E49FF0011124EE56FC4FEB
:1008400043E04183F901EE0FFF1FE55BFB4F91830E
:1008500080830E94DE03789408951F920F920FB652
:100860000F9211240BB60F922F933F934F935F93E8
:100870006F937F938F939F93AF93BF93CF93EF9398
:10088000FF9320914A04222329F1EBE4F4E0A2E94A
:10089000B3E0215030E0220F331F235B3B4F42E097
:1008A00008C001979183808332965796E217F30729
:1008B00089F0808191818230910598F70197A1F7A5
:1008C0001182108211964C93119732965796E21727
:1008D000F30779F780916C0490916D0401969093E1
:1008E0006D0480936C04C0916B040E945303809349
:1008F0006B0427E12C9FB0011124FB01EE56FC4F45
:1009000092E09183E82FF0E02E9FC0012F9F900D81
:100910001124DC01AE56BC4F21E011962C93EE0F52
:10092000FF1FE55AFB4F208131812F5F3F4F3183FD
:1009300020836D557C4F8D559C4F0E94A903FF91DC
:10094000EF91CF91BF91AF919F918F917F916F91D7
:100950005F914F913F912F910F900BBE0F900FBE63
:100960000F901F9018951F920F920FB60F9211249F
:100970000BB60F922F938F939F93AF93BF93CF9309
:10098000DF93EF93FF9380914A048823B9F0EBE55E
:10099000F4E0A2E9B3E0815090E0880F991F835AF8
:1009A0009B4F2081329612962C931297EF0122973B
:1009B000198218825796E817F90799F7FF91EF9176
:1009C000DF91CF91BF91AF919F918F912F910F9018
:1009D0000BBE0F900FBE0F901F901895EEE6F0E043
:1009E00080818260808384B5826084BD85B58560A6
:1009F00085BD8CE987BD89E09DE390938900809354
:100A00008800EFE6F0E0808182608083E1E8F0E03A
:100A100080818D608083089510924A0410926B0447
:100A200010926D0410926C04E2E9F3E016861586CC
:100A3000108A1786128A118A779684E0EA34F807BA
:100A4000A9F70C94A3050E94EE0478940E94530326
:100A500027E1829FC001112463EA73E08D559C4F0A
:100A60000E94A90308959F92AF92BF92CF92DF9206
:100A7000EF92FF920F931F93CF93DF93B62E072F22
:100A8000942EA52E69012AE4E22E24E0F22EF7012D
:100A90002081D7E1D29FF0011124EE56FC4F208334
:100AA0002D9F9001112449E050E0BC01C9018B56F3
:100AB0009C4F0E949F0AF7011081812F90E0D89FE0
:100AC0009001D99F300D1124E901CE56DC4F22E070
:100AD0002983880F991F8E569C4FFC01E754FF4FC6
:100AE0001182108287539F4FFC01118210821A825B
:100AF000BD860E87C6018A969E8B8D8B0E947A09D1
:100B0000988B8F87F601B996E80FF91FFC8BEB8B5A
:100B10007697FA8BE98B8DE393E0858B948B138A20
:100B2000B48203839682A5821F5FF7011083DF9151
:100B3000CF911F910F91FF90EF90DF90CF90BF90DA
:100B4000AF909F90089582E08093C0001092C500FE
:100B500080E18093C400E1ECF0E0808188618083D3
:100B600008958091C000881F8827881F089580916C
:100B7000C00087FF03C08091C60008958FEF0895DD
:100B80009091C10095FDFCCF9091C00095FFF8CFEA
:100B90008093C60081E00895FC012081222371F03A
:100BA00031969091C10095FDFCCF9091C00095FFCA
:100BB000F8CF2093C60021912111F3CF0895CF9350
:100BC000DF93EC018A30910570F4C05D9091C10013
:100BD00095FDFCCF9091C00095FFF8CFC093C60063
:100BE000DF91CF9108959C01ADECBCEC0E945709B8
:100BF0009695879596958795969587959C01220F52
:100C0000331F220F331F280F391F220F331FC21B20
:100C1000D30B0E94DF05D9CFCF92DF92EF92FF92E4
:100C20006B017C018AE0C816D104E104F10488F468
:100C300080E3C80E8091C10085FDFCCF8091C0008B
:100C400085FFF8CFC092C600FF90EF90DF90CF9065
:100C50000895C7012AE030E040E050E00E943509E5
:100C60006B01C9010E94DF05E3CFCF93DF93EC0155
:100C700080319105F8F4CA30D10570F4C05D9091CF
:100C8000C10095FDFCCF9091C00095FFF8CFC093B7
:100C9000C600DF91CF910895C95C9091C10095FD88
:100CA000FCCF9091C00095FFF8CFC093C600DF91B4
:100CB000CF910895929582958F7089279F7089278B
:100CC000CF70DD270E943506D6CFCF92DF92EF920C
:100CD000FF926B017C0120E1C216D104E104F10412
:100CE00040F58AE0C816D104E104F10488F490E3E9
:100CF0009C0D8091C10085FDFCCF8091C00085FFD7
:100D0000F8CF9093C600FF90EF90DF90CF900895BA
:100D100097E39C0D8091C10085FDFCCF8091C000C0
:100D200085FFF8CF9093C600FF90EF90DF90CF90B3
:100D3000089524E096958795779567952A95D1F73C
:100D40002FE0C222DD24EE24FF240E946506C9CFD5
:100D5000CF93C62F9091C10095FDFCCF9091C0001C
:100D600095FFF8CF9BE19093C6009091C10095FD4F
:100D7000FCCF9091C00095FFF8CF9BE59093C60003
:100D800090E00E94DF058091C10085FDFCCF80913D
:100D9000C00085FFF8CF8BE38093C6008C2F90E0D6
:100DA0000E94DF058091C10085FDFCCF8091C000CD
:100DB00085FFF8CF88E48093C600CF910895909185
:100DC000C10095FDFCCF9091C00095FFF8CF9BE14D
:100DD0009093C6009091C10095FDFCCF9091C0000A
:100DE00095FFF8CF9BE59093C60090E00E94DF0549
:100DF0008091C10085FDFCCF8091C00085FFF8CFB8
:100E00008DE68093C60008958091C10085FDFCCFDA
:100E10008091C00085FFF8CF8BE18093C600809160
:100E2000C10085FDFCCF8091C00085FFF8CF8BE528
:100E30008093C6008091C10085FDFCCF8091C000E9
:100E400085FFF8CF82E38093C6008091C10085FDC5
:100E5000FCCF8091C00085FFF8CF8AE48093C60064
:100E60000895FC01238530E0E20FF31F62832F5FBA
:100E70003F4F27703327FC0123870895FC0122850B
:100E80008385281761F030E0DF01A20FB31F1296AF
:100E90008C912F5F3F4F27703327228708958FEF64
:100EA0000895FC01228530E0E20FF31F61832F5F7C
:100EB0003F4F27703327FC0122870895FC012185CD
:100EC0008285281761F030E0DF01A20FB31F119671
:100ED0008C912F5F3F4F27703327218708958FEF25
:100EE0000895FC01F89411828FEF80831286138697
:100EF00078940895CF93DF93EC01F8940E94500307
:100F00009981992339F0988198130BC07894DF91D7
:100F1000CF91089591E0998388837894DF91CF9160
:100F200008952B8530E0FE01E20FF31F82832F5FCF
:100F30003F4F277033272B8797E1899FF0011124BA
:100F4000EE56FC4F84E081830E94DE037894DF91AB
:100F5000CF910895CF93DF93EC01F8940E94500352
:100F60009981992319F09881981721F07894DF914D
:100F7000CF9108958A859B858917A9F090E0FE019D
:100F8000E80FF91FE2810196877099278A87EF3F62
:100F900051F0E88387E1E89FF0011124EE56FC4F01
:100FA00082E08183E3CF19828FEF88837894DF9189
:100FB000CF910895FC01F89460831186128678948D
:100FC0000895CF93DF93EC01F8940E945003988129
:100FD0009150988397FD04C07894DF91CF91089544
:100FE0002A8530E0FE01E20FF31F81832F5F3F4F20
:100FF000277033272A8797E1899FF0011124EE5645
:10100000FC4F84E081830E94DE037894DF91CF91CE
:101010000895FC01F89490819F5F9083191614F451
:1010200078940895818592858917C1F090E0DF0159
:10103000A80FB91F11962C91019687709927818767
:10104000822F90E027E1289FF001299FF00D1124C5
:10105000EE56FC4F82E08183789408958FEF90E004
:10106000F1CFCF93DF93EC01F89488818F5F888371
:10107000181624F47894DF91CF9108950E945003BC
:1010800029859A852917E9F130E0FE01E20FF31F67
:1010900091812F5F3F4F277033272987E92FF0E099
:1010A00027E1929FA00111244F5E5F4F90936B0444
:1010B00097E1989FB0011124DB01AE56BC4F82E04E
:1010C00011968C939E9FD0019F9FB00D1124AE5618
:1010D000BC4F81E011968C93EE0FFF1FE55AFB4F3A
:1010E000208131812F5F3F4F318320836D557C4FAD
:1010F000CA018E569C4F0E94A9037894DF91CF912C
:1011000008954AEF56E1EFEFF0E09FEFCFCFCF9396
:10111000DF93CDB7DEB72F970FB6F894DEBF0FBEC3
:10112000CDBF8AE0EAE0F2E0DE01119601900D9277
:101130008A95E1F7FE013B9685E0DF011D928A95D5
:10114000E9F70E940C0586E893E00E9471078AE5A2
:1011500093E00E94710760E08BE793E00E94DA075A
:101160006AE080E793E00E94DA071092920381E040
:10117000809393031092940349E050E069E172E098
:1011800085E993E00E949F0A87E898E09093A00386
:1011900080939F031092A2031092A1031092A403C4
:1011A0001092A3031092A6031092A5031092A80315
:1011B0001092A70380914A048F5F80934A0424E62B
:1011C00030E050E040E060EC70E08EE192E00E94A0
:1011D000330524E630E050E040E060EE70E087E266
:1011E00092E00E94330522E330E0AE014F5F5F4F93
:1011F0006FEC71E080E392E00E94330522E330E07F
:1012000050E040E065EE72E086E392E00E94330534
:1012100022E330E050E040E063EA70E08DE392E0EA
:101220000E943305E6E6F3E01192B3E0E037FB07F6
:10123000D9F70E942305789483E492E00E94CC05BC
:10124000FBCF97FB072E16F4009407D077FD09D04B
:101250000E94660907FC05D03EF4909581959F4F4A
:101260000895709561957F4F0895A1E21A2EAA1BEB
:10127000BB1BFD010DC0AA1FBB1FEE1FFF1FA21746
:10128000B307E407F50720F0A21BB30BE40BF50B43
:10129000661F771F881F991F1A9469F760957095CC
:1012A000809590959B01AC01BD01CF010895A29F4F
:1012B000B001B39FC001A39F700D811D1124911D2A
:1012C000B29F700D811D1124911D0895AA1BBB1B97
:1012D00051E107C0AA1FBB1FA617B70710F0A61B36
:1012E000B70B881F991F5A95A9F780959095BC0157
:1012F000CD0108950F931F93CF93DF938230910513
:1013000010F482E090E0E0917004F091710430E01C
:1013100020E0B0E0A0E0309799F42115310509F400
:101320004AC0281B390B24303105D8F58A819B81AE
:101330006115710589F1FB0193838283FE0111C060
:10134000408151810281138148175907E0F0481705
:10135000590799F4109761F012960C93129713960F
:101360001C933296CF01DF91CF911F910F91089579
:101370000093700410937104F4CF2115310551F0DE
:101380004217530738F0A901DB019A01BD01DF01C3
:10139000F801C1CFEF01F9CF9093710480937004ED
:1013A000CDCFFE01E20FF31F8193919322503109BB
:1013B00039832883D7CF20916E0430916F04232B7B
:1013C00041F4209106023091070230936F0420937C
:1013D0006E0420910402309105022115310541F47B
:1013E0002DB73EB74091080250910902241B350BDE
:1013F000E0916E04F0916F04E217F307A0F42E1B46
:101400003F0B2817390778F0AC014E5F5F4F241768
:10141000350748F04E0F5F1F50936F0440936E04E2
:10142000819391939FCFF0E0E0E09CCFCF93DF9347
:101430000097E9F0FC01329713821282A0917004A8
:10144000B0917104ED0130E020E01097A1F420810B
:101450003181820F931F20916E0430916F04281701
:10146000390709F061C0F0936F04E0936E04DF91D7
:10147000CF910895EA01CE17DF07E8F54A815B8135
:101480009E0141155105B1F7E901FB83EA834991BA
:101490005991C40FD51FEC17FD0761F4808191812C
:1014A0000296840F951FE901998388838281938135
:1014B0009B838A83F0E0E0E012968D919C911397D4
:1014C0000097B9F52D913C911197CD010296820FAD
:1014D000931F20916E0430916F042817390739F655
:1014E000309751F51092710410927004B0936F040C
:1014F000A0936E04BCCFD383C28340815181840FFB
:10150000951FC817D90761F44E5F5F4F8881998195
:10151000480F591F518340838A819B819383828323
:101520002115310509F0B0CFF0937104E0937004F8
:101530009ECFFD01DC01C0CF13821282D7CFFB0109
:10154000DC014150504048F001900D920020C9F755
:1015500001C01D9241505040E0F70895F894FFCF2C
:101560006400320000007204200050726F677261E4
:101570006D20330000000000006D61696E00707224
:101580006F647563657200636F6E73756D6572006D
:1015900073746174730062756666657200626C696B
:1015A0006E6B0069005468726561642000202873C6
:1015B00063686564756C656420002074696D65738B
:1015C00020706572207365636F6E6429202020206F
:1015D0002000546872656164205374617475733AB5
:1015E00020005448524541445F52554E4E494E47A3
:1015F0002020202020005448524541445F5245415C
:1016000044592020202020005448524541445F5333
:101610004C454550494E4720202020200054485238
:101620004541445F57414954494E472020202020DE
:101630000050433A2000537461636B20626173650C
:101640002F656E642F73697A652F75736167653ACC
:1016500020002F0054696D653A20004E756D62655B
:1016600072206F6620746872656164733A20006648
:10167000756C6C2F656D7074793A200020202020E5
:10168000202020007C20004F00207C0050726F64DE
:10169000756374696F6E20526174653A2000206D25
:1016A00073202020202000436F6E73756D70746965
:0A16B0006F6E20526174653A20004D
:00000001FF
