:100000000C9480000C94A1000C94A1000C94A1000D
:100010000C94A1000C94A1000C94A1000C94A100DC
:100020000C94A1000C94A1000C94A1000C94A100CC
:100030000C94A1000C94A1000C94A1000C94A100BC
:100040000C94A1000C9423050C94A1000C94A10025
:100050000C94A1000C9499040C94A1000C94A100A0
:100060000C94A1000C94A1000C94A1000C94A1008C
:100070000C94A1000C94A1000C94A1000C94A1007C
:100080000C94A1000C94A1000C94A1000C94A1006C
:100090000C94A1000C94A1000C94A1000C94A1005C
:1000A0000C94A1000C94A1000C94A1000C94A1004C
:1000B0000C94A1000C94A1000C94A1000C94A1003C
:1000C0000C94A1000C94A1000C94A1000C94A1002C
:1000D0000C94A1000C94A1000C94A1000C94A1001C
:1000E0000C94A1000C940F020C94A3000C94C0007B
:1000F0000C94A9030C94F6000C9475030C94F70867
:1001000011241FBECFEFD1E2DEBFCDBF00E00CBF98
:1001100013E0A0E0B2E0EAE3F6E100E00BBF02C0CA
:1001200007900D92A236B107D9F724E0A2E6B3E01A
:1001300001C01D92AB38B207E1F70E94F7080C949A
:100140001B0B0C9400008091890387FD0EC0F0E02A
:10015000E4E2908190689083F0E0E5E2908190681D
:1001600090838091890387FFF2CFF0E0E4E29081F1
:1001700090689083F0E0E5E290819F779083E3CFF1
:10018000D1E0C2E08091020290910302969587959A
:100190000E948104D0936303809102029091030234
:1001A000969587950E948104C093630389E893E044
:1001B0000E94510881E793E00E94EA0710926303CE
:1001C00081E793E00E941A0885E693E00E94EA071F
:1001D000809164038F5F8093640385E693E00E94BF
:1001E0001A0884E993E00E947908CCCFC2E084E940
:1001F00093E00E94510885E693E00E94EA0780910F
:10020000640381508093640385E693E00E941A089A
:1002100089E893E00E947908209100023091010260
:10022000ADECBCEC0E94C409969587959695879590
:100230000E9481042091000230910102ADECBCECDF
:100240000E94C40996958795969587950E9481048A
:100250008DE793E00E94EA07C09362038DE793E085
:100260000E941A0880910002909101029C01220FC5
:10027000331F280F391FADECBCEC0E94C4099695C2
:100280008795969587950E9481048DE793E00E945B
:10029000EA07109262038DE793E00E941A08A7CF45
:1002A000F0E0E4E2908190689083F0E0E5E29081F4
:1002B000906890830895F0E0E4E2908190689083E4
:1002C000F0E0E5E290819F7790830895CF93DF93EC
:1002D000EB0168E20E94180783E492E00E943C066A
:1002E000888190E00E944F0681ED92E00E943C06DA
:1002F000CE0103960E943C068BE492E00E943C06ED
:100300008A8190E00E944F0688E592E0DF91CF91CC
:100310000C943C06CF93DF93EB0168E20E94180730
:1003200080E792E00E943C068981813079F082303A
:1003300099F08330B9F0843019F0DF91CF910895AE
:100340008BEB92E0DF91CF910C943C0680E892E039
:10035000DF91CF910C943C0684E992E0DF91CF913C
:100360000C943C0686EA92E0DF91CF910C943C0617
:10037000CF93DF93EB0168E20E9418078FEC92E0C5
:100380000E943C068D859E85DF91CF910C94A50639
:10039000CF93DF93EB0168E20E94180784ED92E0AF
:1003A0000E943C068B899C890E94A50680EF92E002
:1003B0000E943C068F8598890E94A50680EF92E0F6
:1003C0000E943C068D899E890E944F0680EF92E034
:1003D0000E943C0689899A892F853889821B930B54
:1003E000DF91CF910C944F060F931F93CF93C82F9B
:1003F0008B0181E08C0F0E946601B80182E08C0FB6
:100400000E948A01B80183E08C0F0E94B801B801F4
:1004100084E08C0FCF911F910F910C94C801EC01D7
:100420000E94740754C08FE993E00E94EA0781E2BA
:100430000E944F0768E281E00E941807CE010E94E7
:100440003C0668E282E00E94180780E20E944F07A3
:1004500082EF92E00E943C060E94AD030E944F068C
:1004600068E283E00E94180784E20E944F0789EF48
:1004700092E00E943C060E94120490E00E944F0607
:1004800085E20E944F076BEA73E084E00E94F4016A
:1004900062EC73E089E00E94F40169ED73E08EE0A4
:1004A0000E94F40160EF73E083E10E94F40167E0D1
:1004B00074E088E10E94F4016EE174E08DE10E9435
:1004C000F4018FE993E00E941A080E944A040E94F6
:1004D0002106882309F4A7CF0E942706863699F0C3
:1004E000823701F18A3661F5809100029091010214
:1004F000883E23E0920708F096CF0596909301027C
:100500008093000290CF8091020290910302883E76
:1005100023E0920708F087CF05969093030280931B
:10052000020281CF809102029091030286309105F0
:1005300008F479CF0597909303028093020273CF5A
:10054000853709F070CF80910002909101028630CA
:10055000910508F468CF05979093010280930002FB
:1005600062CFCF93C62F62E18E5F0E9418078DE0A5
:1005700093E00E943C06CC2349F080E193E00E9486
:100580003C0682E193E0CF910C943C068BE593E02E
:100590000E943C0682E193E0CF910C943C0661E01E
:1005A0008DE00E94180780916303882309F454C0EA
:1005B00081E20E944F0785E193E00E943C06209172
:1005C000020230910302C901880F991F880F991FF9
:1005D000820F931F880F991F0E944F0687E293E0B6
:1005E0000E943C0661E08EE00E9418078091620341
:1005F0008823B1F181E20E944F0780E393E00E94DB
:100600003C062091000230910102C901880F991F18
:10061000880F991F820F931F880F991F0E944F0602
:1006200087E293E00E943C068FE10E944F0761E061
:1006300080E10E94180783E493E00E943C068091C9
:10064000940318168CF4082E000C990B0E944F0688
:1006500085E593E00C943C068FE10E944F07ABCFF9
:100660008FE10E944F07C9CF90E080E00E944F06C3
:1006700085E593E00C943C06CF9381E20E944F07FE
:100680006DE082E00E94180780916303882351F097
:10069000C0E08DE593E00E943C06CF5F809163034C
:1006A000C817B8F38FE593E00E943C068AE593E013
:1006B0000E943C0669E182E00E9418078091620373
:1006C000882351F0C0E08DE593E00E943C06CF5FA7
:1006D00080916203C817B8F38FE593E00E943C064F
:1006E0008AE593E0CF910C943C068FE993E00E9459
:1006F000EA078FE10E944F0785E693E00E94EA0730
:10070000C09164031C167CF4D0E061E08D2F0E9440
:10071000B102DF5FC09164038C2F0C2E000C990B8B
:10072000D817190694F3CA3038F460E08C2F0E9471
:10073000B102CF5FCA30C9F785E693E00E941A087C
:100740000E94CF020E943C038FE993E00E941A08A6
:10075000CCCF7894C701F801099420918504309199
:1007600086043695279536952795ABE7B4E10E9428
:10077000C409969587950895809184040895FF9201
:100780000F931F93CF93DF93C0916304D0E08091C8
:10079000840490E00196BE010E948E09282F8111E9
:1007A00003C081E090E021E037E1389FF001399FFC
:1007B000F00D1124E555FC4F3181323011F18E01DD
:1007C0000150110910161106E4F430E027E1F22E71
:1007D00003C030171106ACF40196BE010E948E09C9
:1007E000282F811103C081E090E021E03F5FF89E57
:1007F000F001F99EF00D1124E555FC4F4181423086
:1008000041F737E1389FF001399FF00D1124E5558C
:10081000FC4F82E08183822FDF91CF911F910F9156
:10082000FF9008958091630408952F923F924F9214
:100830005F926F927F928F929F92AF92BF92CF9270
:10084000DF92EF92FF920F931F93CF93DF93F0E02D
:10085000EDE511912081E62FF72F11932083E82FEA
:10086000F92F11912081F0E0EDE511932083DF91C4
:10087000CF911F910F91FF90EF90DF90CF90BF909D
:10088000AF909F908F907F906F905F904F903F9030
:100890002F900895CF93F894C091840487E1C89F66
:1008A000F0011124E555FC4F8181813011F482E083
:1008B00081830E94BF0380938404E82FF0E067E106
:1008C0006E9FC0016F9F900D1124DC01A555BC4F98
:1008D00021E011962C93EE0FFF1FEC58FB4F208167
:1008E00031812F5F3F4F31832083C69FB001112498
:1008F00064547C4F84549C4F0E9415047894CF918B
:100900000895F894E09184042E2F30E047E1E49FAD
:10091000F0011124E555FC4F43E04183F901EE0F4E
:10092000FF1FEC59FB4F918380830E944A04789407
:1009300008951F920F920FB60F9211240BB60F92CB
:100940002F933F934F935F936F937F938F939F93D7
:10095000AF93BF93CF93DF93EF93FF932091630403
:10096000222339F1E4E6F4E0ABEAB3E0215030E0D1
:10097000220F331F2A593B4F42E009C0EF01229753
:100980000197998388835796E217F30791F0819135
:1009900091918230910590F70197A9F7EF01229785
:1009A0001982188211964C9311975796E217F30704
:1009B00071F7809185049091860401969093860446
:1009C00080938504C09184040E94BF0380938404B3
:1009D00027E12C9FB0011124FB01E555FC4F92E06B
:1009E0009183E82FF0E02E9FC0012F9F900D1124DE
:1009F000DC01A555BC4F21E011962C93EE0FFF1F93
:100A0000EC58FB4F208131812F5F3F4F3183208392
:100A100064547C4F84549C4F0E941504FF91EF91C5
:100A2000DF91CF91BF91AF919F918F917F916F9106
:100A30005F914F913F912F910F900BBE0F900FBE82
:100A40000F901F9018951F920F920FB60F921124BE
:100A50000BB60F922F938F939F93AF93BF93CF9328
:100A6000DF93EF93FF93809163048823B9F0E4E769
:100A7000F4E0ABEAB3E0815090E0880F991F8A5808
:100A80009B4F2081329612962C931297EF0122975A
:100A9000198218825796E817F90799F7FF91EF9195
:100AA000DF91CF91BF91AF919F918F912F910F9037
:100AB0000BBE0F900FBE0F901F901895EEE6F0E062
:100AC00080818260808384B5826084BD85B58560C5
:100AD00085BD8CE987BD89E09DE390938900809373
:100AE0008800EFE6F0E0808182608083E1E8F0E05A
:100AF00080818D6080830895109263041092840435
:100B00001092860410928504EBEAF3E016861586AF
:100B1000108A1786128A118A779684E0E336F807DE
:100B2000A9F70C9413060E945E0578940E94BF03F7
:100B300027E1829FC00111246CEB73E084549C4F29
:100B40000E94150408959F92AF92BF92CF92DF92B8
:100B5000EF92FF920F931F93CF93DF93B62E072F41
:100B6000942EA52E690123E6E22E24E0F22EF70151
:100B70002081D7E1D29FF0011124E555FC4F20835D
:100B80002D9F9001112449E050E0BC01C90182551C
:100B90009C4F0E940C0BF7011081812F90E0D89F91
:100BA0009001D99F300D1124E901C555DC4F22E099
:100BB0002983880F991F85559C4FFC01E754FF4FEF
:100BC0001182108287539F4FFC01118210821A827A
:100BD000BD860E87C6018A969E8B8D8B0E94E70983
:100BE000988B8F87F601B996E80FF91FFC8BEB8B7A
:100BF0007697FA8BE98B89EA93E0858B948B138A3D
:100C0000B48203839682A5821F5FF7011083DF9170
:100C1000CF911F910F91FF90EF90DF90CF90BF90F9
:100C2000AF909F90089582E08093C0001092C5001D
:100C300080E18093C400E1ECF0E0808188618083F2
:100C400008958091C000881F8827881F089580918B
:100C5000C00087FF03C08091C60008958FEF0895FC
:100C60009091C10095FDFCCF9091C00095FFF8CF09
:100C70008093C60081E00895FC012081222371F059
:100C800031969091C10095FDFCCF9091C00095FFE9
:100C9000F8CF2093C60021912111F3CF0895CF936F
:100CA000DF93EC018A30910570F4C05D9091C10032
:100CB00095FDFCCF9091C00095FFF8CFC093C60082
:100CC000DF91CF9108959C01ADECBCEC0E94C4096A
:100CD0009695879596958795969587959C01220F71
:100CE000331F220F331F280F391F220F331FC21B40
:100CF000D30B0E944F06D9CFCF92DF92EF92FF9293
:100D00006B017C018AE0C816D104E104F10488F487
:100D100080E3C80E8091C10085FDFCCF8091C000AA
:100D200085FFF8CFC092C600FF90EF90DF90CF9084
:100D30000895C7012AE030E040E050E00E94A20997
:100D40006B01C9010E944F06E3CFCF93DF93EC0103
:100D500080319105F8F4CA30D10570F4C05D9091EE
:100D6000C10095FDFCCF9091C00095FFF8CFC093D6
:100D7000C600DF91CF910895C95C9091C10095FDA7
:100D8000FCCF9091C00095FFF8CFC093C600DF91D3
:100D9000CF910895929582958F7089279F708927AA
:100DA000CF70DD270E94A506D6CFCF92DF92EF92BB
:100DB000FF926B017C0120E1C216D104E104F10431
:100DC00040F58AE0C816D104E104F10488F490E308
:100DD0009C0D8091C10085FDFCCF8091C00085FFF6
:100DE000F8CF9093C600FF90EF90DF90CF900895DA
:100DF00097E39C0D8091C10085FDFCCF8091C000E0
:100E000085FFF8CF9093C600FF90EF90DF90CF90D2
:100E1000089524E096958795779567952A95D1F75B
:100E20002FE0C222DD24EE24FF240E94D506C9CF84
:100E3000CF93C62F9091C10095FDFCCF9091C0003B
:100E400095FFF8CF9BE19093C6009091C10095FD6E
:100E5000FCCF9091C00095FFF8CF9BE59093C60022
:100E600090E00E944F068091C10085FDFCCF8091EB
:100E7000C00085FFF8CF8BE38093C6008C2F90E0F5
:100E80000E944F068091C10085FDFCCF8091C0007B
:100E900085FFF8CF88E48093C600CF9108959091A4
:100EA000C10095FDFCCF9091C00095FFF8CF9BE16C
:100EB0009093C6009091C10095FDFCCF9091C00029
:100EC00095FFF8CF9BE59093C60090E00E944F06F7
:100ED0008091C10085FDFCCF8091C00085FFF8CFD7
:100EE0008DE68093C60008958091C10085FDFCCFFA
:100EF0008091C00085FFF8CF8BE18093C600809180
:100F0000C10085FDFCCF8091C00085FFF8CF8BE547
:100F10008093C6008091C10085FDFCCF8091C00008
:100F200085FFF8CF82E38093C6008091C10085FDE4
:100F3000FCCF8091C00085FFF8CF8AE48093C60083
:100F40000895FC01238530E0E20FF31F62832F5FD9
:100F50003F4F27703327FC0123870895FC0122852A
:100F60008385281761F030E0DF01A20FB31F1296CE
:100F70008C912F5F3F4F27703327228708958FEF83
:100F80000895FC01228530E0E20FF31F61832F5F9B
:100F90003F4F27703327FC0122870895FC012185EC
:100FA0008285281761F030E0DF01A20FB31F119690
:100FB0008C912F5F3F4F27703327218708958FEF44
:100FC0000895FC01F89411828FEF808312861386B6
:100FD00078940895CF93DF93EC01F8940E94BC03BA
:100FE0009981992339F0988198130BC07894DF91F7
:100FF000CF91089591E0998388837894DF91CF9180
:1010000008952B8530E0FE01E20FF31F82832F5FEE
:101010003F4F277033272B8797E1899FF0011124D9
:10102000E555FC4F84E081830E944A047894DF9167
:10103000CF910895CF93DF93EC01F8940E94BC0305
:101040009981992319F09881981721F07894DF916C
:10105000CF9108958A859B858917A9F090E0FE01BC
:10106000E80FF91FE2810196877099278A87EF3F81
:1010700051F0E88387E1E89FF0011124E555FC4F2A
:1010800082E08183E3CF19828FEF88837894DF91A8
:10109000CF910895FC01F8946083118612867894AC
:1010A0000895CF93DF93EC01F8940E94BC039881DC
:1010B0009150988397FD04C07894DF91CF91089563
:1010C0002A8530E0FE01E20FF31F81832F5F3F4F3F
:1010D000277033272A8797E1899FF0011124E5556E
:1010E000FC4F84E081830E944A047894DF91CF9181
:1010F0000895FC01F89490819F5F9083191614F471
:1011000078940895818592858917C1F090E0DF0178
:10111000A80FB91F11962C91019687709927818786
:10112000822F90E027E1289FF001299FF00D1124E4
:10113000E555FC4F82E08183789408958FEF90E02D
:10114000F1CFCF93DF93EC01F89488818F5F888390
:10115000181624F47894DF91CF9108950E94BC036F
:1011600029859A852917E9F130E0FE01E20FF31F86
:1011700091812F5F3F4F277033272987E92FF0E0B8
:1011800027E1929FA00111244F5E5F4F909384044A
:1011900097E1989FB0011124DB01A555BC4F82E077
:1011A00011968C939E9FD0019F9FB00D1124A55541
:1011B000BC4F81E011968C93EE0FFF1FEC58FB4F54
:1011C000208131812F5F3F4F3183208364547C4FD6
:1011D000CA0185559C4F0E9415047894DF91CF91E8
:1011E00008954AEF56E1EFEFF0E09FEFCFCFCF93B6
:1011F000DF93CDB7DEB72F970FB6F894DEBF0FBEE3
:10120000CDBF8AE0EAE0F2E0DE01119601900D9296
:101210008A95E1F7FE013B9685E0DF011D928A95F4
:10122000E9F70E947C058FE993E00E94E10785E6DB
:1012300093E00E94E10781E793E00E94E1078DE7D8
:1012400093E00E94E10760E084E993E00E944A088D
:101250006AE089E893E00E944A081092AB0381E0BB
:101260008093AC031092AD0349E050E069E172E075
:101270008EEA93E00E940C0B87EF98E09093B903FD
:101280008093B8031092BB031092BA031092BD036F
:101290001092BC031092BF031092BE031092C103C0
:1012A0001092C003809163048F5F8093630424E6EF
:1012B00030E050E040E060EC70E08EE192E00E94AF
:1012C000A30522E330E0AE014F5F5F4F6FE072E0B5
:1012D00087E292E00E94A30522E330E050E040E084
:1012E00065E773E08DE292E00E94A30524E630E01A
:1012F00050E040E066EF70E084E392E00E94A305D6
:1013000022E330E050E040E063EA70E08DE392E0F9
:101310000E94A3050E9493057894FFCF97FB072EA8
:1013200016F4009407D077FD09D00E94D30907FC7A
:1013300005D03EF4909581959F4F089570956195E5
:101340007F4F0895A1E21A2EAA1BBB1BFD010DC001
:10135000AA1FBB1FEE1FFF1FA217B307E407F50765
:1013600020F0A21BB30BE40BF50B661F771F881F41
:10137000991F1A9469F760957095809590959B01D7
:10138000AC01BD01CF010895A29FB001B39FC00180
:10139000A39F700D811D1124911DB29F700D811DA1
:1013A0001124911D0895AA1BBB1B51E107C0AA1F60
:1013B000BB1FA617B70710F0A61BB70B881F991FF6
:1013C0005A95A9F780959095BC01CD0108950F938A
:1013D0001F93CF93DF938230910510F482E090E069
:1013E000E0918904F0918A0430E020E0B0E0A0E0D0
:1013F000309799F42115310509F44AC0281B390B9F
:1014000024303105D8F58A819B816115710589F1F8
:10141000FB0193838283FE0111C0408151810281CF
:10142000138148175907E0F04817590799F41097A6
:1014300061F012960C93129713961C933296CF017B
:10144000DF91CF911F910F9108950093890410931C
:101450008A04F4CF2115310551F04217530738F0B3
:10146000A901DB019A01BD01DF01F801C1CFEF0144
:10147000F9CF90938A0480938904CDCFFE01E20FC7
:10148000F31F819391932250310939832883D7CF59
:101490002091870430918804232B41F42091060287
:1014A000309107023093880420938704209104022E
:1014B000309105022115310541F42DB73EB7409119
:1014C000080250910902241B350BE0918704F0912A
:1014D0008804E217F307A0F42E1B3F0B28173907E7
:1014E00078F0AC014E5F5F4F2417350748F04E0F80
:1014F0005F1F5093880440938704819391939FCFFB
:10150000F0E0E0E09CCFCF93DF930097E9F0FC019F
:10151000329713821282A0918904B0918A04ED015E
:1015200030E020E01097A1F420813181820F931FD9
:1015300020918704309188042817390709F061C089
:10154000F0938804E0938704DF91CF910895EA0136
:10155000CE17DF07E8F54A815B819E0141155105F1
:10156000B1F7E901FB83EA8349915991C40FD51F73
:10157000EC17FD0761F4808191810296840F951F1D
:10158000E90199838883828193819B838A83F0E038
:10159000E0E012968D919C9113970097B9F52D91EB
:1015A0003C911197CD010296820F931F20918704E1
:1015B000309188042817390739F6309751F5109281
:1015C0008A0410928904B0938804A0938704BCCF46
:1015D000D383C28340815181840F951FC817D907D7
:1015E00061F44E5F5F4F88819981480F591F518385
:1015F00040838A819B81938382832115310509F081
:10160000B0CFF0938A04E09389049ECFFD01DC0102
:10161000C0CF13821282D7CFFB01DC014150504072
:1016200048F001900D920020C9F701C01D92415071
:0A1630005040E0F70895F894FFCF52
:10163A006400640000008B04200050726F677261BE
:10164A006D20330000000000006D61696E00707249
:10165A006F64756365720073746174730062756692
:10166A0066657200636F6E73756D657200626C6990
:10167A006E6B005468726561642000202873636889
:10168A006564756C656420002074696D65732070EB
:10169A006572207365636F6E642920202020200004
:1016AA00546872656164205374617475733A2000DA
:1016BA005448524541445F52554E4E494E472020A8
:1016CA00202020005448524541445F524541445924
:1016DA002020202020005448524541445F534C4565
:1016EA004550494E47202020202000544852454169
:1016FA00445F57414954494E47202020202000503A
:10170A00433A2000537461636B20626173652F65ED
:10171A006E642F73697A652F75736167653A200065
:10172A002F0054696D653A20004E756D626572200E
:10173A006F6620746872656164733A20007C2000C9
:10174A004F00207C0050726F64756374696F6E205D
:10175A00526174653A2000206D73202020202000F9
:10176A00436F6E73756D7074696F6E205261746524
:10177A003A20004974656D7320496E204275666689
:10178A0065723A200020202020202020002D003ED3
:02179A0000004D
:00000001FF
