:100000000C9480000C94A1000C94A1000C94A1000D
:100010000C94A1000C94A1000C94A1000C94A100DC
:100020000C94A1000C94A1000C94A1000C94A100CC
:100030000C94A1000C94A1000C94A1000C94A100BC
:100040000C94A1000C9484040C94A1000C94A100C5
:100050000C94A1000C94FE030C94A1000C94A1003C
:100060000C94A1000C94A1000C94A1000C94A1008C
:100070000C94A1000C94A1000C94A1000C94A1007C
:100080000C94A1000C94A1000C94A1000C94A1006C
:100090000C94A1000C94A1000C94A1000C94A1005C
:1000A0000C94A1000C94A1000C94A1000C94A1004C
:1000B0000C94A1000C94A1000C94A1000C94A1003C
:1000C0000C94A1000C94A1000C94A1000C94A1002C
:1000D0000C94A1000C94A1000C94A1000C94A1001C
:1000E0000C94A1000C94B6020C94A3000C94C000D4
:1000F0000C94C1000C94A0010C940E030C945808AD
:1001000011241FBECFEFD1E2DEBFCDBF00E00CBF98
:1001100013E0A0E0B2E0EAEFF4E100E00BBF02C0C0
:1001200007900D92A835B107D9F724E0A8E5B3E010
:1001300001C01D92A037B207E1F70E9458080C9445
:100140007B0A0C94000080916E0387FD0EC0F0E0E6
:10015000E4E2908190689083F0E0E5E2908190681D
:10016000908380916E0387FFF2CFF0E0E4E290810C
:1001700090689083F0E0E5E290819F779083E3CFF1
:10018000FFCFC1E080910202909103020E94E6033A
:100190008EE693E00E94B20788E593E00E944B0749
:1001A000E09179030E2E000CFF0BEC59FC4FC0833D
:1001B00088E593E00E947B0789E793E00E94DA07D5
:1001C000E1CFF0E0E4E2908190689083F0E0E5E236
:1001D0009081906890830895F0E0E4E290819068C7
:1001E0009083F0E0E5E290819F7790830895CF932C
:1001F000DF93EB0168E20E94790683E492E00E94BB
:100200009D05888190E00E94B00581ED92E00E94FA
:100210009D05CE0103960E949D058BE492E00E940D
:100220009D058A8190E00E94B00588E592E0DF910B
:10023000CF910C949D05CF93DF93EB0168E20E9470
:10024000790680E792E00E949D058981813079F0EE
:10025000823099F08330B9F0843019F0DF91CF917A
:1002600008958BEB92E0DF91CF910C949D0580E88F
:1002700092E0DF91CF910C949D0584E992E0DF91AB
:10028000CF910C949D0586EA92E0DF91CF910C947A
:100290009D05CF93DF93EB0168E20E9479068FEC16
:1002A00092E00E949D058D859E85DF91CF910C94F3
:1002B0000606CF93DF93EB0168E20E94790684ED96
:1002C00092E00E949D058B899C890E94060680EF22
:1002D00092E00E949D058F8598890E94060680EF16
:1002E00092E00E949D058D899E890E94B00580EF55
:1002F00092E00E949D0589899A892F853889821B01
:10030000930BDF91CF910C94B0050F931F93CF9374
:10031000C82F8B0181E08C0F0E94F700B80182E0AA
:100320008C0F0E941B01B80183E08C0F0E944901D1
:10033000B80184E08C0FCF911F910F910C9459015B
:10034000EC010E94D50675C084E893E00E944B073B
:1003500081E20E94B00668E281E00E947906CE0147
:100360000E949D0568E282E00E94790680E20E9478
:10037000B00682EF92E00E949D050E9412030E9447
:10038000B00568E283E00E94790684E20E94B0062C
:1003900089EF92E00E949D050E94770390E00E9401
:1003A000B00568E284E00E94790684E20E94B0060B
:1003B0008DE093E00E949D0580917903082E000C4A
:1003C000990B0E94B00580E293E00E949D05809108
:1003D0006E03082E000C990B0E94B0058AE193E091
:1003E0000E949D0585E20E94B00660E973E086E008
:1003F0000E94850167EA73E08BE00E9485016EEB45
:1004000073E080E10E94850165ED73E085E10E9463
:1004100085016CEE73E08AE10E94850163E074E07F
:100420008FE10E94850184E893E00E947B070E948F
:10043000AF030E948205882309F486CF0E948805B5
:10044000863699F0823701F18A3661F58091000293
:1004500090910102883E23E0920708F075CF05963F
:1004600090930102809300026FCF809102029091DD
:100470000302883E23E0920708F066CF059690932A
:1004800003028093020260CF8091020290910302E6
:100490008630910508F458CF059790930302809316
:1004A000020252CF853709F04FCF80910002909120
:1004B00001028630910508F447CF05979093010219
:1004C0008093000241CFCF93C62F62E10E9479064C
:1004D00082E293E00E949D05CC2349F085E293E0FF
:1004E0000E949D0587E293E0CF910C949D0580E2E8
:1004F00093E00E949D0587E293E0CF910C949D05C7
:1005000061E08CE00E9479068AE293E00E949D05FA
:100510002091020230910302C901880F991F880FB0
:10052000991F820F931F880F991F0E94B0058CE3BB
:1005300093E00E949D0561E08DE00E94790685E4CC
:1005400093E00E949D052091000230910102C901B3
:10055000880F991F880F991F820F931F880F991F6B
:100560000E94B0058CE393E00C949D0584E893E031
:100570000E944B0788E593E00E944B078FE10E94A1
:10058000B00661E084E10E9479068091640390E006
:100590000E94B0058091650390E00E94B0058091B3
:1005A000660390E00E94B0058091670390E00E948E
:1005B000B0058091680390E00E94B00580916903C6
:1005C00090E00E94B00580916A0390E00E94B0051F
:1005D00080916B0390E00E94B00580916C0390E0E5
:1005E0000E94B00580916D0390E00E94B00504E682
:1005F00013E0C1E0F80161918F018C2F0E9463022A
:10060000CF5FCB30B9F788E593E00E947B070E946B
:10061000800284E893E00E947B07A8CF7894C7010A
:10062000F801099420916A0430916B04369527955E
:1006300036952795ABE7B4E10E94240996958795F6
:100640000895809169040895FF920F931F93CF93AB
:10065000DF93C0914804D0E08091690490E0019656
:10066000BE010E94EE08282F811103C081E090E0B6
:1006700021E037E1389FF001399FF00D1124E05758
:10068000FC4F3181323011F18E01015011091016E9
:100690001106E4F430E027E1F22E03C03017110612
:1006A000ACF40196BE010E94EE08282F811103C010
:1006B00081E090E021E03F5FF89EF001F99EF00DAF
:1006C0001124E057FC4F4181423041F737E1389F18
:1006D000F001399FF00D1124E057FC4F82E0818337
:1006E000822FDF91CF911F910F91FF9008958091FC
:1006F000480408952F923F924F925F926F927F929B
:100700008F929F92AF92BF92CF92DF92EF92FF9221
:100710000F931F93CF93DF93F0E0EDE511912081CC
:10072000E62FF72F11932083E82FF92F11912081C5
:10073000F0E0EDE511932083DF91CF911F910F91B0
:10074000FF90EF90DF90CF90BF90AF909F908F90F1
:100750007F906F905F904F903F902F900895CF9330
:10076000F894C091690487E1C89FF0011124E05713
:10077000FC4F8181813011F482E081830E94240347
:1007800080936904E82FF0E067E16E9FC0016F9FDE
:10079000900D1124DC01A057BC4F21E011962C9341
:1007A000EE0FFF1FE75AFB4F208131812F5F3F4F34
:1007B00031832083C69FB00111246F557C4F8F5524
:1007C0009C4F0E947A037894CF910895F894E09119
:1007D00069042E2F30E047E1E49FF0011124E05737
:1007E000FC4F43E04183F901EE0FFF1FE75BFB4F36
:1007F000918380830E94AF03789408951F920F9293
:100800000FB60F9211240BB60F922F933F934F9375
:100810005F936F937F938F939F93AF93BF93CF9388
:10082000EF93FF9320914804222329F1E9E4F4E0B7
:10083000A0E9B3E0215030E0220F331F255B3B4F8E
:1008400042E008C001979183808332965796E21761
:10085000F30789F0808191818230910598F70197A3
:10086000A1F71182108211964C93119732965796E8
:10087000E217F30779F780916A0490916B0401966F
:1008800090936B0480936A04C09169040E942403CE
:100890008093690427E12C9FB0011124FB01E057EC
:1008A000FC4F92E09183E82FF0E02E9FC0012F9F34
:1008B000900D1124DC01A057BC4F21E011962C9320
:1008C000EE0FFF1FE75AFB4F208131812F5F3F4F13
:1008D000318320836F557C4F8F559C4F0E947A0344
:1008E000FF91EF91CF91BF91AF919F918F917F91A8
:1008F0006F915F914F913F912F910F900BBE0F9091
:100900000FBE0F901F9018951F920F920FB60F9267
:1009100011240BB60F922F938F939F93AF93BF9396
:10092000CF93DF93EF93FF93809148048823B9F02E
:10093000E9E5F4E0A0E9B3E0815090E0880F991F69
:10094000855A9B4F2081329612962C931297EF0175
:100950002297198218825796E817F90799F7FF919D
:10096000EF91DF91CF91BF91AF919F918F912F9197
:100970000F900BBE0F900FBE0F901F901895EEE6D4
:10098000F0E080818260808384B5826084BD85B51B
:10099000856085BD8CE987BD89E09DE390938900E2
:1009A00080938800EFE6F0E0808182608083E1E858
:1009B000F0E080818D608083089510924804109249
:1009C000690410926B0410926A04E0E9F3E0168661
:1009D0001586108A1786128A118A779684E0E83481
:1009E000F807A9F70C9474050E94BF0478940E943C
:1009F000240327E1829FC001112461EA73E08F552F
:100A00009C4F0E947A0308959F92AF92BF92CF921B
:100A1000DF92EF92FF920F931F93CF93DF93B62E47
:100A2000072F942EA52E690128E4E22E24E0F22E51
:100A3000F7012081D7E1D29FF0011124E057FC4F4C
:100A400020832D9F9001112449E050E0BC01C90191
:100A50008D569C4F0E946C0AF7011081812F90E007
:100A6000D89F9001D99F300D1124E901C057DC4F68
:100A700022E02983880F991F80579C4FFC01E7547F
:100A8000FF4F1182108287539F4FFC011182108209
:100A90001A82BD860E87C6018A969E8B8D8B0E9418
:100AA0004709988B8F87F601B996E80FF91FFC8BE1
:100AB000EB8B7697FA8BE98B8EE093E0858B948BAA
:100AC000138AB48203839682A5821F5FF701108385
:100AD000DF91CF911F910F91FF90EF90DF90CF901A
:100AE000BF90AF909F90089582E08093C0001092D5
:100AF000C50080E18093C400E1ECF0E08081886172
:100B0000808308958091C000881F8827881F0895DA
:100B10008091C00087FF03C08091C60008958FEFC9
:100B200008959091C10095FDFCCF9091C00095FF74
:100B3000F8CF8093C60081E00895FC012081222334
:100B400071F031969091C10095FDFCCF9091C0005D
:100B500095FFF8CF2093C60021912111F3CF08957E
:100B6000CF93DF93EC018A30910570F4C05D9091D2
:100B7000C10095FDFCCF9091C00095FFF8CFC093C8
:100B8000C600DF91CF9108959C01ADECBCEC0E94B2
:100B900024099695879596958795969587959C01B6
:100BA000220F331F220F331F280F391F220F331F2D
:100BB000C21BD30B0E94B005D9CFCF92DF92EF9228
:100BC000FF926B017C018AE0C816D104E104F104B4
:100BD00088F480E3C80E8091C10085FDFCCF809130
:100BE000C00085FFF8CFC092C600FF90EF90DF9065
:100BF000CF900895C7012AE030E040E050E00E9425
:100C000002096B01C9010E94B005E3CFCF93DF93C6
:100C1000EC0180319105F8F4CA30D10570F4C05D63
:100C20009091C10095FDFCCF9091C00095FFF8CF49
:100C3000C093C600DF91CF910895C95C9091C10027
:100C400095FDFCCF9091C00095FFF8CFC093C600F2
:100C5000DF91CF910895929582958F7089279F702B
:100C60008927CF70DD270E940606D6CFCF92DF926C
:100C7000EF92FF926B017C0120E1C216D104E104E6
:100C8000F10440F58AE0C816D104E104F10488F4C7
:100C900090E39C0D8091C10085FDFCCF8091C00048
:100CA00085FFF8CF9093C600FF90EF90DF90CF9034
:100CB000089597E39C0D8091C10085FDFCCF809144
:100CC000C00085FFF8CF9093C600FF90EF90DF90B3
:100CD000CF90089524E096958795779567952A9506
:100CE000D1F72FE0C222DD24EE24FF240E94360635
:100CF000C9CFCF93C62F9091C10095FDFCCF9091A5
:100D0000C00095FFF8CF9BE19093C6009091C10081
:100D100095FDFCCF9091C00095FFF8CF9BE5909397
:100D2000C60090E00E94B0058091C10085FDFCCF17
:100D30008091C00085FFF8CF8BE38093C6008C2F95
:100D400090E00E94B0058091C10085FDFCCF8091AC
:100D5000C00085FFF8CF88E48093C600CF91089546
:100D60009091C10095FDFCCF9091C00095FFF8CF08
:100D70009BE19093C6009091C10095FDFCCF9091AE
:100D8000C00095FFF8CF9BE59093C60090E00E94CD
:100D9000B0058091C10085FDFCCF8091C00085FF2A
:100DA000F8CF8DE68093C60008958091C10085FD3F
:100DB000FCCF8091C00085FFF8CF8BE18093C60007
:100DC0008091C10085FDFCCF8091C00085FFF8CFE8
:100DD0008BE58093C6008091C10085FDFCCF80919A
:100DE000C00085FFF8CF82E38093C6008091C100E8
:100DF00085FDFCCF8091C00085FFF8CF8AE4809309
:100E0000C6000895FC01238530E0E20FF31F6283E2
:100E10002F5F3F4F27703327FC0123870895FC0184
:100E200022858385281761F030E0DF01A20FB31F10
:100E300012968C912F5F3F4F27703327228708959A
:100E40008FEF0895FC01228530E0E20FF31F6183EC
:100E50002F5F3F4F27703327FC0122870895FC0145
:100E600021858285281761F030E0DF01A20FB31FD2
:100E700011968C912F5F3F4F27703327218708955C
:100E80008FEF0895FC01F89411828FEF8083128612
:100E9000138678940895CF93DF93EC01F8940E9421
:100EA00021039981992339F0988198130BC0789484
:100EB000DF91CF91089591E0998388837894DF91B1
:100EC000CF9108952B8530E0FE01E20FF31F82835E
:100ED0002F5F3F4F277033272B8797E1899FF001C2
:100EE0001124E057FC4F84E081830E94AF03789483
:100EF000DF91CF910895CF93DF93EC01F8940E9496
:100F000021039981992319F09881981721F07894F9
:100F1000DF91CF9108958A859B858917A9F090E08C
:100F2000FE01E80FF91FE2810196877099278A87F1
:100F3000EF3F51F0E88387E1E89FF0011124E0578B
:100F4000FC4F82E08183E3CF19828FEF888378940E
:100F5000DF91CF910895FC01F89460831186128689
:100F600078940895CF93DF93EC01F8940E942103C5
:100F700098819150988397FD04C07894DF91CF9128
:100F800008952A8530E0FE01E20FF31F81832F5F71
:100F90003F4F277033272A8797E1899FF00111245B
:100FA000E057FC4F84E081830E94AF037894DF9187
:100FB000CF910895FC01F89490819F5F908319165A
:100FC00014F478940895818592858917C1F090E092
:100FD000DF01A80FB91F11962C91019687709927F0
:100FE0008187822F90E027E1289FF001299FF00D53
:100FF0001124E057FC4F82E08183789408958FEFAD
:1010000090E0F1CFCF93DF93EC01F89488818F5F6C
:101010008883181624F47894DF91CF9108950E9464
:10102000210329859A852917E9F130E0FE01E20FB5
:10103000F31F91812F5F3F4F277033272987E92FB7
:10104000F0E027E1929FA00111244F5E5F4F909343
:10105000690497E1989FB0011124DB01A057BC4FB0
:1010600082E011968C939E9FD0019F9FB00D11241A
:10107000A057BC4F81E011968C93EE0FFF1FE75AEB
:10108000FB4F208131812F5F3F4F318320836F558C
:101090007C4FCA0180579C4F0E947A037894DF915D
:1010A000CF9108954AEF56E1EFEFF0E09FEFCFCFF9
:1010B000CF93DF93CDB7DEB72F970FB6F894DEBF8F
:1010C0000FBECDBF8AE0EAE0F2E0DE0111960190AA
:1010D0000D928A95E1F7FE013B9685E0DF011D92B6
:1010E0008A95E9F70E94DD0484E893E00E944207B4
:1010F00088E593E00E94420760E089E793E00E9460
:10110000AB076AE08EE693E00E94AB071092900373
:1011100081E0809391031092920349E050E069E1ED
:1011200072E083E993E00E946C0A88E598E090936E
:101130009E0380939D031092A00310929F03109230
:10114000A2031092A1031092A4031092A303109281
:10115000A6031092A503809148048F5F80934804F2
:1011600024E630E050E040E061EC70E08EE192E097
:101170000E94040524E630E050E040E060EC70E0BE
:1011800087E292E00E94040522E330E0AE014F5F67
:101190005F4F60EA71E080E392E00E94040522E381
:1011A00030E050E040E066EB72E086E392E00E94BF
:1011B000040522E330E050E040E063EA70E08DE3B4
:1011C00092E00E940405E4E6F3E01192B3E0EE360B
:1011D000FB07D9F70E94F4047894FFCF97FB072E02
:1011E00016F4009407D077FD09D00E94330907FC5C
:1011F00005D03EF4909581959F4F08957095619527
:101200007F4F0895A1E21A2EAA1BBB1BFD010DC042
:10121000AA1FBB1FEE1FFF1FA217B307E407F507A6
:1012200020F0A21BB30BE40BF50B661F771F881F82
:10123000991F1A9469F760957095809590959B0118
:10124000AC01BD01CF010895A29FB001B39FC001C1
:10125000A39F700D811D1124911DB29F700D811DE2
:101260001124911D0895AA1BBB1B51E107C0AA1FA1
:10127000BB1FA617B70710F0A61BB70B881F991F37
:101280005A95A9F780959095BC01CD0108950F93CB
:101290001F93CF93DF938230910510F482E090E0AA
:1012A000E0916E04F0916F0430E020E0B0E0A0E047
:1012B000309799F42115310509F44AC0281B390BE0
:1012C00024303105D8F58A819B816115710589F13A
:1012D000FB0193838283FE0111C040815181028111
:1012E000138148175907E0F04817590799F41097E8
:1012F00061F012960C93129713961C933296CF01BD
:10130000DF91CF911F910F91089500936E04109378
:101310006F04F4CF2115310551F04217530738F00F
:10132000A901DB019A01BD01DF01F801C1CFEF0185
:10133000F9CF90936F0480936E04CDCFFE01E20F3E
:10134000F31F819391932250310939832883D7CF9A
:1013500020916C0430916D04232B41F420910602FE
:101360003091070230936D0420936C0420910402A5
:10137000309105022115310541F42DB73EB740915A
:10138000080250910902241B350BE0916C04F09186
:101390006D04E217F307A0F42E1B3F0B2817390743
:1013A00078F0AC014E5F5F4F2417350748F04E0FC1
:1013B0005F1F50936D0440936C04819391939FCF72
:1013C000F0E0E0E09CCFCF93DF930097E9F0FC01E1
:1013D000329713821282A0916E04B0916F04ED01D6
:1013E00030E020E01097A1F420813181820F931F1B
:1013F00020916C0430916D042817390709F061C001
:10140000F0936D04E0936C04DF91CF910895EA01AD
:10141000CE17DF07E8F54A815B819E014115510532
:10142000B1F7E901FB83EA8349915991C40FD51FB4
:10143000EC17FD0761F4808191810296840F951F5E
:10144000E90199838883828193819B838A83F0E079
:10145000E0E012968D919C9113970097B9F52D912C
:101460003C911197CD010296820F931F20916C043D
:1014700030916D042817390739F6309751F51092DD
:101480006F0410926E04B0936D04A0936C04BCCFF3
:10149000D383C28340815181840F951FC817D90718
:1014A00061F44E5F5F4F88819981480F591F5183C6
:1014B00040838A819B81938382832115310509F0C2
:1014C000B0CFF0936F04E0936E049ECFFD01DC017A
:1014D000C0CF13821282D7CFFB01DC0141505040B4
:1014E00048F001900D920020C9F701C01D924150B3
:0A14F0005040E0F70895F894FFCF94
:1014FA00F401640000007004200050726F6772618A
:10150A006D20330000000000006D61696E0070728A
:10151A006F647563657200636F6E73756D657200D3
:10152A0073746174730062756666657200626C69D1
:10153A006E6B0054687265616420002028736368CA
:10154A006564756C656420002074696D657320702C
:10155A006572207365636F6E642920202020200045
:10156A00546872656164205374617475733A20001B
:10157A005448524541445F52554E4E494E472020E9
:10158A00202020005448524541445F524541445965
:10159A002020202020005448524541445F534C45A6
:1015AA004550494E472020202020005448524541AA
:1015BA00445F57414954494E47202020202000507B
:1015CA00433A2000537461636B20626173652F652F
:1015DA006E642F73697A652F75736167653A2000A7
:1015EA002F0054696D653A20004E756D6265722050
:1015FA006F6620746872656164733A200066756C60
:10160A006C2F656D7074793A2000202020202020EC
:10161A0020007C20004F00207C0050726F647563AC
:10162A0074696F6E20526174653A2000206D7320D0
:10163A002020202000436F6E73756D7074696F6E81
:08164A0020526174653A200092
:00000001FF
