:100000000C9480000C94A1000C94A1000C94A1000D
:100010000C94A1000C94A1000C94A1000C94A100DC
:100020000C94A1000C94A1000C94A1000C94A100CC
:100030000C94A1000C94A1000C94A1000C94A100BC
:100040000C94A1000C94DD040C94A1000C94A1006C
:100050000C94A1000C9457040C94A1000C94A100E2
:100060000C94A1000C94A1000C94A1000C94A1008C
:100070000C94A1000C94A1000C94A1000C94A1007C
:100080000C94A1000C94A1000C94A1000C94A1006C
:100090000C94A1000C94A1000C94A1000C94A1005C
:1000A0000C94A1000C94A1000C94A1000C94A1004C
:1000B0000C94A1000C94A1000C94A1000C94A1003C
:1000C0000C94A1000C94A1000C94A1000C94A1002C
:1000D0000C94A1000C94A1000C94A1000C94A1001C
:1000E0000C94A1000C94A3000C94C0000C94390350
:1000F0000C94DF000C9467030C9408020C94B10874
:1001000011241FBECFEFD1E2DEBFCDBF00E00CBF98
:1001100013E0A0E0B2E0EEEAF5E100E00BBF02C0C0
:1001200007900D92A835B107D9F724E0A8E5B3E010
:1001300001C01D92A138B207E1F70E94B1080C94EA
:10014000D50A0C94000080917F0387FD0EC0F0E07B
:10015000E4E2908190689083F0E0E5E2908190681D
:10016000908380917F0387FFF2CFF0E0E4E29081FB
:1001700090689083F0E0E5E290819F779083E3CFF1
:10018000C1E0C093590380910202909103020E9442
:100190003F048FE793E00E940B088BE593E00E94F9
:1001A000A40780915A038F5F80935A038BE593E0F5
:1001B0000E94D4078AE893E00E943308E2CF01E06E
:1001C00012E0D3E0C4E08AE893E00E940B088BE5DC
:1001D00093E00E94A40780915A03815080935A03B0
:1001E0008BE593E00E94D407209100023091010238
:1001F000ADECBCEC0E947E09969587959695879507
:100200000E943F04009358032091000230910102A4
:10021000ADECBCEC0E947E099695879596958795E6
:100220000E943F0410935803209100023091010274
:10023000ADECBCEC0E947E099695879596958795C6
:100240000E943F04D0935803209100023091010294
:10025000ADECBCEC0E947E099695879596958795A6
:100260000E943F04C0935803209100023091010284
:10027000ADECBCEC0E947E09969587959695879586
:100280000E943F04109258038FE793E00E943308C6
:100290009ACFF0E0E4E2908190689083F0E0E5E2AC
:1002A0009081906890830895F0E0E4E290819068F6
:1002B0009083F0E0E5E290819F7790830895CF935B
:1002C000DF93EB0168E20E94D20683E492E00E9491
:1002D000F605888190E00E94090681ED92E00E9477
:1002E000F605CE0103960E94F6058BE492E00E948B
:1002F000F6058A8190E00E94090688E592E0DF9188
:10030000CF910C94F605CF93DF93EB0168E20E9446
:10031000D20680E792E00E94F6058981813079F06B
:10032000823099F08330B9F0843019F0DF91CF91A9
:1003300008958BEB92E0DF91CF910C94F60580E865
:1003400092E0DF91CF910C94F60584E992E0DF9181
:10035000CF910C94F60586EA92E0DF91CF910C9450
:10036000F605CF93DF93EB0168E20E94D2068FEC93
:1003700092E00E94F6058D859E85DF91CF910C94C9
:100380005F06CF93DF93EB0168E20E94D20684ED13
:1003900092E00E94F6058B899C890E945F0680EF9F
:1003A00092E00E94F6058F8598890E945F0680EF93
:1003B00092E00E94F6058D899E890E94090680EFD1
:1003C00092E00E94F60589899A892F853889821BD7
:1003D000930BDF91CF910C9409060F931F93CF934A
:1003E000C82F8B0181E08C0F0E945F01B80182E071
:1003F0008C0F0E948301B80183E08C0F0E94B10131
:10040000B80184E08C0FCF911F910F910C94C10122
:10041000EC010E942E0775C085E993E00E94A407B5
:1004200081E20E94090768E281E00E94D206CE01C3
:100430000E94F60568E282E00E94D20680E20E94F5
:10044000090782EF92E00E94F6050E946B030E946A
:10045000090668E283E00E94D20684E20E9409074E
:1004600089EF92E00E94F6050E94D00390E00E947E
:10047000090668E284E00E94D20684E20E9409072D
:100480008DE093E00E94F60580918A03082E000C0F
:10049000990B0E94090680E293E00E94F605809184
:1004A0007F03082E000C990B0E9409068AE193E055
:1004B0000E94F60585E20E94090761EA73E086E082
:1004C0000E94ED0168EB73E08BE00E94ED016FECA0
:1004D00073E080E10E94ED0166EE73E085E10E9429
:1004E000ED016DEF73E08AE10E94ED0164E174E0DB
:1004F0008FE10E94ED0185E993E00E94D4070E94FC
:1005000008040E94DB05882309F486CF0E94E105D8
:10051000863699F0823701F18A3661F580910002C2
:1005200090910102883E23E0920708F075CF05966E
:1005300090930102809300026FCF8091020290910C
:100540000302883E23E0920708F066CF0596909359
:1005500003028093020260CF809102029091030215
:100560008630910508F458CF059790930302809345
:10057000020252CF853709F04FCF8091000290914F
:1005800001028630910508F447CF05979093010248
:100590008093000241CFCF93C62F62E18E5F0E940D
:1005A000D20682E293E00E94F605CC2349F085E270
:1005B00093E00E94F60587E293E0CF910C94F60554
:1005C00080E293E00E94F60587E293E0CF910C94DD
:1005D000F60561E08DE00E94D206809159038130DA
:1005E00009F43FC08FE10E9409078AE293E00E946C
:1005F000F6052091020230910302C901880F991F6C
:10060000880F991F820F931F880F991F0E94090658
:100610008CE393E00E94F60561E08EE00E94D20632
:1006200080915803813009F18FE10E94090785E428
:1006300093E00E94F6052091000230910102C90169
:10064000880F991F880F991F820F931F880F991F7A
:100650000E9409068CE393E00E94F6058FE10C945A
:10066000090781E20E940907C0CF81E20E940907C1
:10067000DECF85E993E00E94A4078FE10E9409077D
:100680008BE593E00E94A407C0915A03CC2361F04C
:10069000D0E061E08D2F0E94CB02DF5FC0915A0352
:1006A000DC17B8F3CA3038F460E08C2F0E94CB021C
:1006B000CF5FCA30C9F78BE593E00E94D4070E9450
:1006C000E90285E993E00E94D407D3CF0895789496
:1006D000C701F801099420917B0430917C04369580
:1006E000279536952795ABE7B4E10E947E0996954C
:1006F0008795089580917A040895FF920F931F9330
:10070000CF93DF93C0915904D0E080917A0490E0B8
:100710000196BE010E944809282F811103C081E083
:1007200090E021E037E1389FF001399FF00D11246E
:10073000EF55FC4F3181323011F18E01015011091A
:1007400010161106E4F430E027E1F22E03C0301752
:100750001106ACF40196BE010E944809282F8111B0
:1007600003C081E090E021E03F5FF89EF001F99E38
:10077000F00D1124EF55FC4F4181423041F737E134
:10078000389FF001399FF00D1124EF55FC4F82E0A6
:100790008183822FDF91CF911F910F91FF90089558
:1007A0008091590408952F923F924F925F926F92D9
:1007B0007F928F929F92AF92BF92CF92DF92EF92F1
:1007C000FF920F931F93CF93DF93F0E0EDE511912C
:1007D0002081E62FF72F11932083E82FF92F119115
:1007E0002081F0E0EDE511932083DF91CF911F91FF
:1007F0000F91FF90EF90DF90CF90BF90AF909F90C0
:100800008F907F906F905F904F903F902F900895C2
:10081000CF93F894C0917A0487E1C89FF001112426
:10082000EF55FC4F8181813011F482E081830E9479
:100830007D0380937A04E82FF0E067E16E9FC001AA
:100840006F9F900D1124DC01AF55BC4F21E0119634
:100850002C93EE0FFF1FE659FB4F208131812F5F54
:100860003F4F31832083C69FB00111246E547C4FCB
:100870008E549C4F0E94D3037894CF910895F8949E
:10088000E0917A042E2F30E047E1E49FF00111243B
:10089000EF55FC4F43E04183F901EE0FFF1FE65A8D
:1008A000FB4F918380830E940804789408951F92DF
:1008B0000F920FB60F9211240BB60F922F933F9306
:1008C0004F935F936F937F938F939F93AF93BF9358
:1008D000CF93EF93FF9320915904222329F1EAE566
:1008E000F4E0A1EAB3E0215030E0220F331F245A94
:1008F0003B4F42E008C00197918380833296579620
:10090000E217F30789F0808191818230910598F791
:100910000197A1F71182108211964C93119732968C
:100920005796E217F30779F780917B0490917C0446
:10093000019690937C0480937B04C0917A040E947A
:100940007D0380937A0427E12C9FB0011124FB01E1
:10095000EF55FC4F92E09183E82FF0E02E9FC0010D
:100960002F9F900D1124DC01AF55BC4F21E0119653
:100970002C93EE0FFF1FE659FB4F208131812F5F33
:100980003F4F318320836E547C4F8E549C4F0E9486
:10099000D303FF91EF91CF91BF91AF919F918F9131
:1009A0007F916F915F914F913F912F910F900BBE6F
:1009B0000F900FBE0F901F9018951F920F920FB6B9
:1009C0000F9211240BB60F922F938F939F93AF9397
:1009D000BF93CF93DF93EF93FF93809159048823C4
:1009E000B9F0EAE6F4E0A1EAB3E0815090E0880FC4
:1009F000991F84599B4F2081329612962C931297FF
:100A0000EF012297198218825796E817F90799F78C
:100A1000FF91EF91DF91CF91BF91AF919F918F9116
:100A20002F910F900BBE0F900FBE0F901F90189537
:100A3000EEE6F0E080818260808384B5826084BDD0
:100A400085B5856085BD8CE987BD89E09DE3909380
:100A5000890080938800EFE6F0E0808182608083E7
:100A6000E1E8F0E080818D60808308951092590460
:100A700010927A0410927C0410927B04E1EAF3E075
:100A800016861586108A1786128A118A779684E050
:100A9000E935F807A9F70C94CD050E94180578945C
:100AA0000E947D0327E1829FC001112462EB73E065
:100AB0008E549C4F0E94D30308959F92AF92BF9291
:100AC000CF92DF92EF92FF920F931F93CF93DF931A
:100AD000B62E072F942EA52E690129E5E22E24E0DB
:100AE000F22EF7012081D7E1D29FF0011124EF55BA
:100AF000FC4F20832D9F9001112449E050E0BC0160
:100B0000C9018C559C4F0E94C60AF7011081812FA4
:100B100090E0D89F9001D99F300D1124E901CF5565
:100B2000DC4F22E02983880F991F8F559C4FFC01D1
:100B3000E754FF4F1182108287539F4FFC011182AF
:100B400010821A82BD860E87C6018A969E8B8D8B77
:100B50000E94A109988B8F87F601B996E80FF91FBB
:100B6000FC8BEB8B7697FA8BE98B87E693E0858B92
:100B7000948B138AB48203839682A5821F5FF70148
:100B80001083DF91CF911F910F91FF90EF90DF9035
:100B9000CF90BF90AF909F90089582E08093C00067
:100BA0001092C50080E18093C400E1ECF0E0808108
:100BB0008861808308958091C000881F8827881FDE
:100BC00008958091C00087FF03C08091C6000895FA
:100BD0008FEF08959091C10095FDFCCF9091C000DA
:100BE00095FFF8CF8093C60081E00895FC01208135
:100BF000222371F031969091C10095FDFCCF909128
:100C0000C00095FFF8CF2093C60021912111F3CFAA
:100C10000895CF93DF93EC018A30910570F4C05DA5
:100C20009091C10095FDFCCF9091C00095FFF8CF49
:100C3000C093C600DF91CF9108959C01ADECBCEC50
:100C40000E947E09969587959695879596958795A6
:100C50009C01220F331F220F331F280F391F220F31
:100C6000331FC21BD30B0E940906D9CFCF92DF924C
:100C7000EF92FF926B017C018AE0C816D104E10477
:100C8000F10488F480E3C80E8091C10085FDFCCF9B
:100C90008091C00085FFF8CFC092C600FF90EF9012
:100CA000DF90CF900895C7012AE030E040E050E0A7
:100CB0000E945C096B01C9010E940906E3CFCF9332
:100CC000DF93EC0180319105F8F4CA30D10570F45E
:100CD000C05D9091C10095FDFCCF9091C00095FF43
:100CE000F8CFC093C600DF91CF910895C95C909171
:100CF000C10095FDFCCF9091C00095FFF8CFC09347
:100D0000C600DF91CF910895929582958F708927C3
:100D10009F708927CF70DD270E945F06D6CFCF92C4
:100D2000DF92EF92FF926B017C0120E1C216D104A9
:100D3000E104F10440F58AE0C816D104E104F104AD
:100D400088F490E39C0D8091C10085FDFCCF8091DB
:100D5000C00085FFF8CF9093C600FF90EF90DF9022
:100D6000CF90089597E39C0D8091C10085FDFCCF45
:100D70008091C00085FFF8CF9093C600FF90EF9060
:100D8000DF90CF90089524E09695879577956795A5
:100D90002A95D1F72FE0C222DD24EE24FF240E9401
:100DA0008F06C9CFCF93C62F9091C10095FDFCCF80
:100DB0009091C00095FFF8CF9BE19093C600909171
:100DC000C10095FDFCCF9091C00095FFF8CF9BE549
:100DD0009093C60090E00E9409068091C10085FDB5
:100DE000FCCF8091C00085FFF8CF8BE38093C600D5
:100DF0008C2F90E00E9409068091C10085FDFCCFF8
:100E00008091C00085FFF8CF88E48093C600CF9121
:100E100008959091C10095FDFCCF9091C00095FF81
:100E2000F8CF9BE19093C6009091C10095FDFCCF57
:100E30009091C00095FFF8CF9BE59093C60090E09D
:100E40000E9409068091C10085FDFCCF8091C00001
:100E500085FFF8CF8DE68093C60008958091C1008C
:100E600085FDFCCF8091C00085FFF8CF8BE180939A
:100E7000C6008091C10085FDFCCF8091C00085FF38
:100E8000F8CF8BE58093C6008091C10085FDFCCF33
:100E90008091C00085FFF8CF82E38093C6008091E7
:100EA000C10085FDFCCF8091C00085FFF8CF8AE4AA
:100EB0008093C6000895FC01238530E0E20FF31F04
:100EC00062832F5F3F4F27703327FC0123870895EC
:100ED000FC0122858385281761F030E0DF01A20F35
:100EE000B31F12968C912F5F3F4F277033272287B5
:100EF00008958FEF0895FC01228530E0E20FF31F83
:100F000061832F5F3F4F27703327FC0122870895AD
:100F1000FC0121858285281761F030E0DF01A20FF6
:100F2000B31F11968C912F5F3F4F27703327218776
:100F300008958FEF0895FC01F89411828FEF80835C
:100F40001286138678940895CF93DF93EC01F8947A
:100F50000E947A039981992339F0988198130BC0E4
:100F60007894DF91CF91089591E099838883789464
:100F7000DF91CF9108952B8530E0FE01E20FF31F42
:100F800082832F5F3F4F277033272B8797E1899FFD
:100F9000F0011124EF55FC4F84E081830E94080486
:100FA0007894DF91CF910895CF93DF93EC01F8947B
:100FB0000E947A039981992319F09881981721F05A
:100FC0007894DF91CF9108958A859B858917A9F040
:100FD00090E0FE01E80FF91FE281019687709927E2
:100FE0008A87EF3F51F0E88387E1E89FF001112401
:100FF000EF55FC4F82E08183E3CF19828FEF888326
:101000007894DF91CF910895FC01F8946083118664
:10101000128678940895CF93DF93EC01F8940E94A0
:101020007A0398819150988397FD04C07894DF915A
:10103000CF9108952A8530E0FE01E20FF31F8183EE
:101040002F5F3F4F277033272A8797E1899FF00151
:101050001124EF55FC4F84E081830E9408047894AA
:10106000DF91CF910895FC01F89490819F5F908368
:10107000191614F478940895818592858917C1F022
:1010800090E0DF01A80FB91F11962C91019687708F
:1010900099278187822F90E027E1289FF001299FDF
:1010A000F00D1124EF55FC4F82E081837894089570
:1010B0008FEF90E0F1CFCF93DF93EC01F89488812C
:1010C0008F5F8883181624F47894DF91CF91089568
:1010D0000E947A0329859A852917E9F130E0FE01FB
:1010E000E20FF31F91812F5F3F4F2770332729872E
:1010F000E92FF0E027E1929FA00111244F5E5F4F9E
:1011000090937A0497E1989FB0011124DB01AF55C9
:10111000BC4F82E011968C939E9FD0019F9FB00D93
:101120001124AF55BC4F81E011968C93EE0FFF1F39
:10113000E659FB4F208131812F5F3F4F3183208360
:101140006E547C4FCA018F559C4F0E94D3037894F4
:10115000DF91CF9108954AEF56E1EFEFF0E09FEF76
:10116000CFCFCF93DF93CDB7DEB72F970FB6F894DD
:10117000DEBF0FBECDBF8AE0EAE0F2E0DE011196ED
:1011800001900D928A95E1F7FE013B9685E0DF0123
:101190001D928A95E9F70E94360585E993E00E9441
:1011A0009B078BE593E00E949B0787E693E00E94F4
:1011B0009B0783E793E00E949B0760E08AE893E047
:1011C0000E9404086AE08FE793E00E9404081092EE
:1011D000A10381E08093A2031092A30349E050E0B1
:1011E00069E172E084EA93E00E94C60A81EB98E02C
:1011F0009093AF038093AE031092B1031092B003AB
:101200001092B3031092B2031092B5031092B4037C
:101210001092B7031092B603809159048F5F8093A8
:10122000590424E630E050E040E060EC70E08EE1EC
:1012300092E00E945D0524E630E050E040E06FED72
:1012400070E087E292E00E945D0522E330E0AE01AB
:101250004F5F5F4F68E072E080E392E00E945D05BF
:1012600022E330E050E040E069E373E086E392E09F
:101270000E945D0522E330E050E040E063EA70E068
:101280008DE392E00E945D050E944D057894FFCFAA
:1012900097FB072E16F4009407D077FD09D00E9423
:1012A0008D0907FC05D03EF4909581959F4F0895D8
:1012B000709561957F4F0895A1E21A2EAA1BBB1B62
:1012C000FD010DC0AA1FBB1FEE1FFF1FA217B30712
:1012D000E407F50720F0A21BB30BE40BF50B661F28
:1012E000771F881F991F1A9469F7609570958095EC
:1012F00090959B01AC01BD01CF010895A29FB00163
:10130000B39FC001A39F700D811D1124911DB29F39
:10131000700D811D1124911D0895AA1BBB1B51E165
:1013200007C0AA1FBB1FA617B70710F0A61BB70B55
:10133000881F991F5A95A9F780959095BC01CD01FA
:1013400008950F931F93CF93DF938230910510F48C
:1013500082E090E0E0917F04F091800430E020E0B2
:10136000B0E0A0E0309799F42115310509F44AC0A6
:10137000281B390B24303105D8F58A819B816115F2
:10138000710589F1FB0193838283FE0111C04081C5
:1013900051810281138148175907E0F04817590716
:1013A00099F4109761F012960C93129713961C9370
:1013B0003296CF01DF91CF911F910F910895009345
:1013C0007F0410938004F4CF2115310551F04217AA
:1013D000530738F0A901DB019A01BD01DF01F801D3
:1013E000C1CFEF01F9CF9093800480937F04CDCFDC
:1013F000FE01E20FF31F819391932250310939834B
:101400002883D7CF20917D0430917E04232B41F493
:10141000209106023091070230937E0420937D04D0
:1014200020910402309105022115310541F42DB7B8
:101430003EB74091080250910902241B350BE09100
:101440007D04F0917E04E217F307A0F42E1B3F0BFE
:101450002817390778F0AC014E5F5F4F2417350726
:1014600048F04E0F5F1F50937E0440937D0481939C
:1014700091939FCFF0E0E0E09CCFCF93DF93009774
:10148000E9F0FC01329713821282A0917F04B0919F
:101490008004ED0130E020E01097A1F4208131813B
:1014A000820F931F20917D0430917E042817390705
:1014B00009F061C0F0937E04E0937D04DF91CF9149
:1014C0000895EA01CE17DF07E8F54A815B819E01A6
:1014D00041155105B1F7E901FB83EA83499159911F
:1014E000C40FD51FEC17FD0761F48081918102962E
:1014F000840F951FE90199838883828193819B835F
:101500008A83F0E0E0E012968D919C91139700970A
:10151000B9F52D913C911197CD010296820F931F41
:1015200020917D0430917E042817390739F63097D1
:1015300051F51092800410927F04B0937E04A09322
:101540007D04BCCFD383C28340815181840F951F1A
:10155000C817D90761F44E5F5F4F88819981480FA2
:10156000591F518340838A819B81938382832115F4
:10157000310509F0B0CFF0938004E0937F049ECF53
:10158000FD01DC01C0CF13821282D7CFFB01DC0149
:101590004150504048F001900D920020C9F701C021
:0E15A0001D9241505040E0F70895F894FFCF9F
:1015AE00C800640000008104200050726F677261F1
:1015BE006D20330000000000006D61696E007072D6
:1015CE006F647563657200636F6E73756D6572001F
:1015DE0073746174730062756666657200626C691D
:1015EE006E6B005468726561642000202873636816
:1015FE006564756C656420002074696D6573207078
:10160E006572207365636F6E642920202020200090
:10161E00546872656164205374617475733A200066
:10162E005448524541445F52554E4E494E47202034
:10163E00202020005448524541445F5245414459B0
:10164E002020202020005448524541445F534C45F1
:10165E004550494E472020202020005448524541F5
:10166E00445F57414954494E4720202020200050C6
:10167E00433A2000537461636B20626173652F657A
:10168E006E642F73697A652F75736167653A2000F2
:10169E002F0054696D653A20004E756D626572209B
:1016AE006F6620746872656164733A200066756CAB
:1016BE006C2F656D7074793A200020202020202038
:1016CE0020007C20004F00207C0050726F647563F8
:1016DE0074696F6E20526174653A2000206D73201C
:1016EE002020202000436F6E73756D7074696F6ECD
:0816FE0020526174653A2000DE
:00000001FF
