:100000000C947A000C949B000C949B000C949B0025
:100010000C949B000C949B000C949B000C949B00F4
:100020000C949B000C949B000C949B000C949B00E4
:100030000C949B000C949B000C949B000C949B00D4
:100040000C949B000C9450060C949B000C949B0009
:100050000C949B000C94C6050C949B000C949B0084
:100060000C949B000C949B000C949B000C949B00A4
:100070000C949B000C949B000C949B000C949B0094
:100080000C949B000C949B000C949B000C949B0084
:100090000C949B000C949B000C949B000C949B0074
:1000A0000C949B000C949B000C949B000C949B0064
:1000B0000C949B000C949B000C949B000C949B0054
:1000C0000C949B000C949B000C949B000C949B0044
:1000D0000C949B000C949B000C949B000C949B0034
:1000E0000C949B000C94D6040C949D000C94240A50
:1000F0000C94280311241FBECFEFD1E2DEBFCDBF89
:1001000000E00CBF13E0A0E0B2E0E2E7F9E100E0BC
:100110000BBF02C007900D92A232B107D9F724E0BD
:10012000A2E2B3E001C01D92AA39B207E1F70E9432
:10013000240A0C94B70C0C940000AF92BF92DF928B
:10014000EF92FF920F931F93CF93DF930E94E904E6
:10015000E82E22E0821709F4A2C083E0E81609F431
:1001600036C124E0E21609F47EC195E0E91609F4EF
:10017000E2C051E08FE7A82EB12C10E000E09FE72D
:10018000F92ED12C8FEF93ED20E381509040204049
:10019000E1F700C00000C52FD0E0CD5DDC4F8FEF50
:1001A000850FA82FB0E0AD5DBC4F4991FD01E35232
:1001B000F3409D91ED5DFC4F491748F491838150C8
:1001C000E82FF0E0ED5DFC4F90814917B8F34183D3
:1001D0005F5F5F1518F48FEF850FE7CF8FEF93ED1B
:1001E00020E3815090402040E1F700C000008EEAFB
:1001F00093E00E94170983E20E947C0860E084E19A
:100200000E9445088AE092E00E9469078E2D90E0E6
:100210000E947C0760E085E10E94450880E192E051
:100220000E946907C8010E947C0760E086E10E9485
:10023000450881E292E00E946907C5010E947C079F
:1002400060E08DE20E944508DF14C0F48D2D90E03F
:10025000EC01CD5DDC4F0FEF0F0D0D198C5D9C4F48
:10026000080F192F111D899190E00E947C0782E8E8
:1002700092E00E9469070C171D07A9F78EEA93E028
:100280000E94470983EA93E0DF91CF911F910F917C
:10029000FF90EF90DF90BF90AF900C947E098EEAB4
:1002A00093E00E9417098FE10E947C0860E08AE0D9
:1002B0000E9445088AE092E00E94690782E090E08F
:1002C0000E947C0760E08BE00E94450880E192E09C
:1002D0000E94690790E080E00E947C0760E08CE06B
:1002E0000E94450881E292E00E9469078FE190E058
:1002F0000E947C0760E08DE00E944508C3E2D3E0E5
:1003000002E413E0899190E00E947C0782E892E089
:100310000E9469070C171D07A9F78EEA93E00E9457
:10032000470951E0CFE1AC2EB12C10E000E0DFE155
:10033000FD2ED12C27CF8EEA93E00E9417098FE182
:100340000E947C0860E082E30E9445088AE092E017
:100350000E94690785E090E00E947C0760E083E3EB
:100360000E94450880E192E00E94690780E690E0E3
:100370000E947C0760E084E30E94450881E292E0ED
:100380000E9469078FE790E00E947C0760E085E3A8
:100390000E944508C3E8D3E0899190E00E947C0761
:1003A00082E892E00E94690723E0C23AD207A1F7EF
:1003B0008EEA93E00E94470951E62FE7A22EB12C66
:1003C00000E610E03FE7F32E40E6D42EDBCE8EEAC7
:1003D00093E00E9417098FE10E947C0860E084E1AD
:1003E0000E9445088AE092E00E94690783E090E05D
:1003F0000E947C0760E085E10E94450880E192E070
:100400000E94690780E290E00E947C0760E086E13C
:100410000E94450881E292E00E9469078FE390E024
:100420000E947C0760E08BE20E944508C3E4D3E0B1
:10043000899190E00E947C0782E892E00E9469071F
:1004400093E0C236D907A1F78EEA93E00E944709EC
:1004500051E2FFE3AF2EB12C00E210E0AFE3FA2E41
:10046000B0E2DB2E8FCE8EEA93E00E9417098FE177
:100470000E947C0860E08EE10E9445088AE092E0DC
:100480000E94690784E090E00E947C0760E08FE1B1
:100490000E94450880E192E00E94690780E490E0B4
:1004A0000E947C0760E080E20E94450881E292E0C1
:1004B0000E9469078FE590E00E947C0760E081E27E
:1004C0000E944508C3E6D3E0899190E00E947C0732
:1004D00082E892E00E94690783E0C238D807A1F75A
:1004E0008EEA93E00E94470951E46FE5A62EB12CF5
:1004F00000E410E07FE5F72EE0E4DE2E43CECF935C
:10050000DF93EB0168E20E94450887E592E00E94D4
:100510006907888190E00E947C0785EE92E00E9446
:100520006907CE0103960E9469078FE592E00E9459
:1005300069078A8190E00E947C078CE692E0DF9157
:10054000CF910C946907CF93DF93EB0168E20E948F
:10055000450884E892E00E9469078981813079F03A
:10056000823099F08330B9F0843019F0DF91CF9167
:1005700008958FEC92E0DF91CF910C94690784E9A4
:1005800092E0DF91CF910C94690788EA92E0DF91C5
:10059000CF910C9469078AEB92E0DF91CF910C9494
:1005A0006907CF93DF93EB0168E20E94450883EE71
:1005B00092E00E9469078D859E85DF91CF910C9412
:1005C000D207CF93DF93EB0168E20E94450888EEE3
:1005D00092E00E9469078B899C890E94D20784E07F
:1005E00093E00E9469078F8598890E94D20784E072
:1005F00093E00E9469078D899E890E947C0784E0B0
:1006000093E00E94690789899A892F853889821B1E
:10061000930BDF91CF910C947C070F931F93CF9393
:10062000C82F8B0181E08C0F0E947F02B80182E00D
:100630008C0F0E94A302B80183E08C0F0E94D102AC
:10064000B80184E08C0FCF911F910F910C94E102BF
:10065000EC010E94A1088EEA93E00E94170981E252
:100660000E947C0868E281E00E944508CE010E9459
:10067000690768E282E00E94450880E20E947C08E7
:1006800086E093E00E9469070E94DA040E947C07DA
:1006900068E283E00E94450884E20E947C088DE0C5
:1006A00093E00E9469070E943F0590E00E947C074A
:1006B00085E20E947C086AEB73E086E00E940D03ED
:1006C00061ED73E08BE00E940D0368EE73E080E162
:1006D0000E940D036FEF73E085E10E940D0366E158
:1006E00074E08AE10E940D036DE274E08FE10E94E4
:1006F0000D038EEA93E00E9447090E947705ABCF75
:100700008F929F92AF92BF92CF92DF92EF92FF9221
:100710000F931F93CF93DF93CDB7DEB70DB71EB7FF
:10072000E62EF12C282F30E0F701E21BF30B319677
:10073000CDB6DEB6CE1ADF0A0FB6F894DEBE0FBE17
:10074000CDBEADB7BEB711964D01A42FB0E0AE1926
:10075000BF09EDB7FEB7EA1BFB0B0FB6F894FEBF5F
:100760000FBEEDBFADB7BEB71196C62EC81A91E049
:100770009C0D461B992309F48EC0B9016D5D7C4F19
:100780005B01B401D12CEFEFCE1ADE0AC80CD91CE4
:10079000F50151915F01FB015193BF01EC15FD057E
:1007A000B9F760E050E0442309F461C0B7016C5D23
:1007B0007C4F7B01BD01CC24CA94C40ED12CEFEF39
:1007C000CE1ADE0ACA0EDB1EF70151917F01FB0132
:1007D0005193BF01CE16DF06B9F760E0992331F1DE
:1007E00050E060E00BC05F5F2D5D3C4FF901F0828F
:1007F0005917C0F46417D8F5282F30E07401E50EBE
:10080000F11CF701F0806D01C60ED11CF60170815C
:100810008F5F7F1540F76F5F2D5D3C4FF90170834F
:10082000591740F3641788F4282F30E0A60FB11D44
:10083000480F461B02C0282F30E09D912D5D3C4F94
:10084000F90190838F5F8413F6CF0FB6F8941EBF23
:100850000FBE0DBFDF91CF911F910F91FF90EF90D1
:10086000DF90CF90BF90AF909F908F9008959401AC
:10087000250F311DF82E581B8F5FF90171919F01D3
:10088000EF2DF0E0ED5DFC4F7083F82E752F780FA3
:10089000791790F3C7CF411189CFD7CF1F93CF934B
:1008A000DF93C82FD62F861720F0DF91CF911F91AD
:1008B0000895862F8C1B990BBC0197FF02C06F5FB8
:1008C0007F4F759567951C2F160F612F8C2F0E94F7
:1008D0004E046D2F81E0810F0E944E044D2F612F39
:1008E0008C2FDF91CF911F910C9480031F93CF9396
:1008F000DF93D82F162F809122038F5F80932203DE
:10090000862F8D1B990BBC011816190614F4D117EC
:1009100020F0DF91CF911F91089575956795CD2FA8
:10092000C60F6C2F8D2F0E944E04612F81E08C0F1B
:100930000E944E04412F6C2F8D2FDF91CF911F917C
:100940000C948003FC0180819181FB012081318125
:10095000821B930B08957C018EEA93E00E94170995
:1009600068E280E50E94450881E20E947C088701D8
:10097000D0E0C0E0CE010E947C0782E892E00E94B5
:100980006907F80181918F0190E00E947C0782E85D
:1009900092E00E9469072196C038D10559F78EEA86
:1009A00093E00E9447090E947705D6CF7894C7014B
:1009B000F801099420919404309195043695279577
:1009C00036952795ABE7B4E10E94D40A96958795B2
:1009D0000895809193040895FF920F931F93CF93EE
:1009E000DF93C0917204D0E08091930490E001966F
:1009F000BE010E949E0A282F811103C081E090E071
:100A000021E037E1389FF001399FF00D1124E654C1
:100A1000FC4F3181323011F18E0101501109101655
:100A20001106E4F430E027E1F22E03C0301711067E
:100A3000ACF40196BE010E949E0A282F811103C0CA
:100A400081E090E021E03F5FF89EF001F99EF00D1B
:100A50001124E654FC4F4181423041F737E1389F81
:100A6000F001399FF00D1124E654FC4F82E08183A0
:100A7000822FDF91CF911F910F91FF900895809168
:100A8000720408952F923F924F925F926F927F92DD
:100A90008F929F92AF92BF92CF92DF92EF92FF928E
:100AA0000F931F93CF93DF93F0E0EDE51191208139
:100AB000E62FF72F11932083E82FF92F1191208132
:100AC000F0E0EDE511932083DF91CF911F910F911D
:100AD000FF90EF90DF90CF90BF90AF909F908F905E
:100AE0007F906F905F904F903F902F900895CF939D
:100AF000F894C091930487E1C89FF0011124E65453
:100B0000FC4F8181813011F482E081830E94EC04EA
:100B100080939304E82FF0E067E16E9FC0016F9F20
:100B2000900D1124DC01A654BC4F21E011962C93AA
:100B3000EE0FFF1FED57FB4F208131812F5F3F4F9D
:100B400031832083C69FB001112465537C4F8553A8
:100B50009C4F0E9442057894CF910895F894E091BB
:100B600093042E2F30E047E1E49FF0011124E65476
:100B7000FC4F43E04183F901EE0FFF1FED58FB4F9F
:100B8000918380830E947705789408951F920F9235
:100B90000FB60F9211240BB60F922F933F934F93E2
:100BA0005F936F937F938F939F93AF93BF93CF93F5
:100BB000DF93EF93FF9320917204222339F1E3E74F
:100BC000F4E0AAEBB3E0215030E0220F331F2B58A2
:100BD0003B4F42E009C0EF01229701979983888338
:100BE0005796E217F30791F0819191918230910528
:100BF00090F70197A9F7EF012297198218821196B1
:100C00004C9311975796E217F30771F7809194046C
:100C10009091950401969093950480939404C091CB
:100C200093040E94EC048093930427E12C9FB0016D
:100C30001124FB01E654FC4F92E09183E82FF0E091
:100C40002E9FC0012F9F900D1124DC01A654BC4F94
:100C500021E011962C93EE0FFF1FED57FB4F2081E3
:100C600031812F5F3F4F3183208365537C4F855304
:100C70009C4F0E944205FF91EF91DF91CF91BF9170
:100C8000AF919F918F917F916F915F914F913F9124
:100C90002F910F900BBE0F900FBE0F901F901895C5
:100CA0001F920F920FB60F9211240BB60F922F9333
:100CB0008F939F93AF93BF93CF93DF93EF93FF9364
:100CC000809172048823B9F0E3E8F4E0AAEBB3E082
:100CD000815090E0880F991F8B579B4F208132964F
:100CE00012962C931297EF01229719821882579629
:100CF000E817F90799F7FF91EF91DF91CF91BF9135
:100D0000AF919F918F912F910F900BBE0F900FBEBF
:100D10000F901F901895EEE6F0E08081826080834E
:100D200084B5826084BD85B5856085BD8CE987BD4D
:100D300089E09DE39093890080938800EFE6F0E0DE
:100D4000808182608083E1E8F0E080818D60808333
:100D500008951092720410929304109295041092C8
:100D60009404EAEBF3E016861586108A1786128A39
:100D7000118A779684E0E237F807A9F70C944007C8
:100D80000E948B0678940E94EC0427E1829FC001A8
:100D900011246BEC73E085539C4F0E94420508952B
:100DA0009F92AF92BF92CF92DF92EF92FF920F93FA
:100DB0001F93CF93DF93B62E072F942EA52E690194
:100DC00022E7E22E24E0F22EF7012081D7E1D29F24
:100DD000F0011124E654FC4F20832D9F9001112433
:100DE00049E050E0BC01C90183549C4F0E94760C3D
:100DF000F7011081812F90E0D89F9001D99F300D8D
:100E00001124E901C654DC4F22E02983880F991F81
:100E100086549C4FFC01E754FF4F11821082875388
:100E20009F4FFC01118210821A82BD860E87C60177
:100E30008A969E8B8D8B0E94F70A988B8F87F6017E
:100E4000B996E80FF91FFC8BEB8B7697FA8BE98B41
:100E500086ED94E0858B948B138AB482038396820B
:100E6000A5821F5FF7011083DF91CF911F910F9132
:100E7000FF90EF90DF90CF90BF90AF909F9008953C
:100E800082E08093C0001092C50080E18093C4008E
:100E9000E1ECF0E080818861808308958091C0005A
:100EA000881F8827881F08958091C00087FF03C08E
:100EB0008091C60008958FEF08959091C10095FD2F
:100EC000FCCF9091C00095FFF8CF8093C60081E0E1
:100ED0000895FC012081222371F031969091C10088
:100EE00095FDFCCF9091C00095FFF8CF2093C600F0
:100EF00021912111F3CF0895CF93DF93EC018A3034
:100F0000910570F4C05D9091C10095FDFCCF90916A
:100F1000C00095FFF8CFC093C600DF91CF91089530
:100F20009C01ADECBCEC0E94D40A969587959695F1
:100F30008795969587959C01220F331F220F331FAB
:100F4000280F391F220F331FC21BD30B0E947C07AF
:100F5000D9CFCF92DF92EF92FF926B017C018AE0B2
:100F6000C816D104E104F10488F480E3C80E80912E
:100F7000C10085FDFCCF8091C00085FFF8CFC092F5
:100F8000C600FF90EF90DF90CF900895C7012AE050
:100F900030E040E050E00E94B20A6B01C9010E94BB
:100FA0007C07E3CFCF93DF93EC0180319105F8F418
:100FB000CA30D10570F4C05D9091C10095FDFCCFA1
:100FC0009091C00095FFF8CFC093C600DF91CF91FC
:100FD0000895C95C9091C10095FDFCCF9091C0002F
:100FE00095FFF8CFC093C600DF91CF9108959295F9
:100FF00082958F7089279F708927CF70DD270E9487
:10100000D207D6CFCF92DF92EF92FF926B017C0195
:1010100020E1C216D104E104F10440F58AE0C816CB
:10102000D104E104F10488F490E39C0D8091C100A7
:1010300085FDFCCF8091C00085FFF8CF9093C6005E
:10104000FF90EF90DF90CF90089597E39C0D8091F3
:10105000C10085FDFCCF8091C00085FFF8CF909343
:10106000C600FF90EF90DF90CF90089524E0969512
:101070008795779567952A95D1F72FE0C222DD24D1
:10108000EE24FF240E940208C9CFCF93C62F90916F
:10109000C10095FDFCCF9091C00095FFF8CF9BE17A
:1010A0009093C6009091C10095FDFCCF9091C00037
:1010B00095FFF8CF9BE59093C60090E00E947C07D7
:1010C0008091C10085FDFCCF8091C00085FFF8CFE5
:1010D0008BE38093C6008C2F90E00E947C07809168
:1010E000C10085FDFCCF8091C00085FFF8CF88E46A
:1010F0008093C600CF9108959091C10095FDFCCFDB
:101100009091C00095FFF8CF9BE19093C60090911D
:10111000C10095FDFCCF9091C00095FFF8CF9BE5F5
:101120009093C60090E00E947C078091C10085FDED
:10113000FCCF8091C00085FFF8CF8DE68093C6007C
:1011400008958091C10085FDFCCF8091C00085FF8E
:10115000F8CF8BE18093C6008091C10085FDFCCF64
:101160008091C00085FFF8CF8BE58093C600809109
:10117000C10085FDFCCF8091C00085FFF8CF82E3E0
:101180008093C6008091C10085FDFCCF8091C00096
:1011900085FFF8CF8AE48093C6000895FC0123857B
:1011A00030E0E20FF31F62832F5F3F4F277033273A
:1011B000FC0123870895FC0122858385281761F0AF
:1011C00030E0DF01A20FB31F12968C912F5F3F4FCB
:1011D00027703327228708958FEF0895FC01228519
:1011E00030E0E20FF31F61832F5F3F4F27703327FB
:1011F000FC0122870895FC0121858285281761F072
:1012000030E0DF01A20FB31F11968C912F5F3F4F8B
:1012100027703327218708958FEF0895FC01F894F4
:1012200011828FEF80831286138678940895CF936E
:10123000DF93EC01F8940E94E9049981992339F035
:10124000988198130BC07894DF91CF91089591E025
:10125000998388837894DF91CF9108952B8530E02E
:10126000FE01E20FF31F82832F5F3F4F277033276A
:101270002B8797E1899FF0011124E654FC4F84E00D
:1012800081830E9477057894DF91CF910895CF9361
:10129000DF93EC01F8940E94E9049981992319F0F5
:1012A0009881981721F07894DF91CF9108958A85DD
:1012B0009B858917A9F090E0FE01E80FF91FE281F4
:1012C0000196877099278A87EF3F51F0E88387E17D
:1012D000E89FF0011124E654FC4F82E08183E3CFC4
:1012E00019828FEF88837894DF91CF910895FC0164
:1012F000F89460831186128678940895CF93DF93D3
:10130000EC01F8940E94E90498819150988397FD2C
:1013100004C07894DF91CF9108952A8530E0FE01D2
:10132000E20FF31F81832F5F3F4F277033272A87F8
:1013300097E1899FF0011124E654FC4F84E08183FA
:101340000E9477057894DF91CF910895FC01F8947D
:1013500090819F5F9083191614F478940895818585
:1013600092858917C1F090E0DF01A80FB91F11968F
:101370002C910196877099278187822F90E027E131
:10138000289FF001299FF00D1124E654FC4F82E0C4
:101390008183789408958FEF90E0F1CFCF93DF931E
:1013A000EC01F89488818F5F8883181624F4789470
:1013B000DF91CF9108950E94E90429859A85291724
:1013C000E9F130E0FE01E20FF31F91812F5F3F4F03
:1013D000277033272987E92FF0E027E1929FA001AA
:1013E00011244F5E5F4F9093930497E1989FB00153
:1013F0001124DB01A654BC4F82E011968C939E9F72
:10140000D0019F9FB00D1124A654BC4F81E01196CE
:101410008C93EE0FFF1FED57FB4F208131812F5F23
:101420003F4F3183208365537C4FCA0186549C4FC4
:101430000E9442057894DF91CF9108954AEF56E1DA
:10144000EFEFF0E09FEFCFCF0E94A906C3E2D3E019
:101450000E94670C8F77907897FF04C0019780688F
:101460009F6F0196899383E0C33AD80789F760E0BC
:1014700083EA93E00E9477091092BA0381E0809397
:10148000BB031092BC0349E050E060E372E08DEBD7
:1014900093E00E94760C84E29AE09093C8038093D4
:1014A000C7031092CA031092C9031092CC03109282
:1014B000CB031092CE031092CD031092D003109262
:1014C000CF03809172048F5F809372040E94A10801
:1014D00028EC30E045E352E068E273E08AE392E012
:1014E0000E94D00620ED37E043E253E06DE970E062
:1014F0008FE392E00E94D00620ED37E043E253E014
:101500006DE970E085E492E00E94D00620ED37E0BE
:1015100043E253E06DE970E08BE492E00E94D00674
:1015200020ED37E043E253E06DE970E081E592E0C1
:101530000E94D0060E94C0067894FFCF97FB072E2A
:1015400016F4009407D077FD09D00E94E30A07FC47
:1015500005D03EF4909581959F4F089570956195C3
:101560007F4F0895A1E21A2EAA1BBB1BFD010DC0DF
:10157000AA1FBB1FEE1FFF1FA217B307E407F50743
:1015800020F0A21BB30BE40BF50B661F771F881F1F
:10159000991F1A9469F760957095809590959B01B5
:1015A000AC01BD01CF010895A29FB001B39FC0015E
:1015B000A39F700D811D1124911DB29F700D811D7F
:1015C0001124911D0895AA1BBB1B51E107C0AA1F3E
:1015D000BB1FA617B70710F0A61BB70B881F991FD4
:1015E0005A95A9F780959095BC01CD0108950F9368
:1015F0001F93CF93DF938230910510F482E090E047
:10160000E0919804F091990430E020E0B0E0A0E08F
:10161000309799F42115310509F44AC0281B390B7C
:1016200024303105D8F58A819B816115710589F1D6
:10163000FB0193838283FE0111C0408151810281AD
:10164000138148175907E0F04817590799F4109784
:1016500061F012960C93129713961C933296CF0159
:10166000DF91CF911F910F910895009398041093EB
:101670009904F4CF2115310551F04217530738F082
:10168000A901DB019A01BD01DF01F801C1CFEF0122
:10169000F9CF9093990480939804CDCFFE01E20F87
:1016A000F31F819391932250310939832883D7CF37
:1016B0002091960430919704232B41F4209102024B
:1016C00030910302309397042093960420910002F6
:1016D000309101022115310541F42DB73EB74091FB
:1016E000040250910502241B350BE0919604F09101
:1016F0009704E217F307A0F42E1B3F0B28173907B6
:1017000078F0AC014E5F5F4F2417350748F04E0F5D
:101710005F1F5093970440939604819391939FCFBA
:10172000F0E0E0E09CCFCF93DF930097E9F0FC017D
:10173000329713821282A0919804B0919904ED011E
:1017400030E020E01097A1F420813181820F931FB7
:1017500020919604309197042817390709F061C049
:10176000F0939704E0939604DF91CF910895EA01F6
:10177000CE17DF07E8F54A815B819E0141155105CF
:10178000B1F7E901FB83EA8349915991C40FD51F51
:10179000EC17FD0761F4808191810296840F951FFB
:1017A000E90199838883828193819B838A83F0E016
:1017B000E0E012968D919C9113970097B9F52D91C9
:1017C0003C911197CD010296820F931F20919604B0
:1017D000309197042817390739F6309751F5109250
:1017E000990410929804B0939704A0939604BCCFE8
:1017F000D383C28340815181840F951FC817D907B5
:1018000061F44E5F5F4F88819981480F591F518362
:1018100040838A819B81938382832115310509F05E
:10182000B0CFF0939904E09398049ECFFD01DC01C2
:10183000C0CF13821282D7CF8F929F92AF92BF9266
:10184000CF92DF92EF92FF92CF93DF93EC0168810A
:1018500079818A819B81611571058105910521F44A
:1018600064E279ED8BE597E02DE133EF41E050E064
:101870000E94850C49015A019B01AC01A7EAB1E421
:101880000E94A40C6B017C01ACEEB4EFA5019401A5
:101890000E94B20CDC01CB018C0D9D1DAE1DBF1D45
:1018A000B7FF03C00197A109B04888839983AA8331
:1018B000BB839F77DF91CF91FF90EF90DF90CF9028
:1018C000BF90AF909F908F9008950C941C0C86E071
:1018D00092E00C941C0CB0E0A0E080930602909380
:1018E0000702A0930802B09309020895FB01DC01EE
:1018F0004150504048F001900D920020C9F701C0BE
:101900001D9241505040E0F70895052E97FB1EF4BC
:1019100000940E949C0C57FD07D00E94B20A07FC5D
:1019200003D04EF40C949C0C509540953095219525
:101930003F4F4F4F5F4F08959095809570956195FB
:101940007F4F8F4F9F4F08950E94D40AA59F900DFF
:10195000B49F900DA49F800D911D11240895B7FF91
:101960000C94A40C0E94A40C821B930B0895F89471
:02197000FFCFA7
:1019720000009A042000010000007469643A20000B
:101982007374617274696E6720696E6465783A2057
:1019920000656E64696E6720696E6465783A20003E
:1019A2006D61696E00536F727400737461740073B9
:1019B2006F72743100736F72743200736F727433AA
:1019C20000736F7274340054687265616420002081
:1019D200287363686564756C656420002074696DA2
:1019E200657320706572207365636F6E64292020B1
:1019F20020202000546872656164205374617475FC
:101A0200733A20005448524541445F52554E4E4964
:101A12004E472020202020005448524541445F5226
:101A22004541445920202020200054485245414439
:101A32005F534C454550494E4720202020200054FA
:101A420048524541445F57414954494E472020205E
:101A520020200050433A2000537461636B2062617E
:101A620073652F656E642F73697A652F757361676D
:101A7200653A20002F0054696D653A20004E756D5D
:101A8200626572206F6620746872656164733A20C1
:021A9200000052
:00000001FF
