:100000000C947C000C949D000C949D000C949D001D
:100010000C949D000C949D000C949D000C949D00EC
:100020000C949D000C949D000C949D000C949D00DC
:100030000C949D000C949D000C949D000C949D00CC
:100040000C949D000C948C040C949D000C949D00C9
:100050000C949D000C9402040C949D000C949D0043
:100060000C949D000C949D000C949D000C949D009C
:100070000C949D000C949D000C949D000C949D008C
:100080000C949D000C949D000C949D000C949D007C
:100090000C949D000C949D000C949D000C949D006C
:1000A0000C949D000C949D000C949D000C949D005C
:1000B0000C949D000C949D000C949D000C949D004C
:1000C0000C949D000C949D000C949D000C949D003C
:1000D0000C949D000C949D000C949D000C949D002C
:1000E0000C949D000C946D010C9412030C949F00D1
:1000F0000C94E7020C94600811241FBECFEFD1E2EC
:10010000DEBFCDBF00E00CBF13E0A0E0B2E0E8E04E
:10011000F6E100E00BBF02C007900D92AE32B107CE
:10012000D9F724E0AEE2B3E001C01D92A23BB207D2
:10013000E1F70E9460080C94020B0C9400007C0113
:100140008C0100581F4F86EC93E00E94530768E231
:1001500080E50E94810681E20E94B806E70189914C
:1001600090E00E94B80581E892E00E94A505C017C2
:10017000D107A9F785E20E94B80686EC93E00E94B9
:1001800083070E94B303DFCFCF93DF93EB0168E2D5
:100190000E94810686E592E00E94A505888190E094
:1001A0000E94B80584EE92E00E94A505CE01039658
:1001B0000E94A5058EE592E00E94A5058A8190E047
:1001C0000E94B8058BE692E0DF91CF910C94A505D3
:1001D000CF93DF93EB0168E20E94810683E892E00F
:1001E0000E94A5058981813079F0823099F08330B1
:1001F000B9F0843019F0DF91CF9108958EEC92E040
:10020000DF91CF910C94A50583E992E0DF91CF9126
:100210000C94A50587EA92E0DF91CF910C94A50597
:1002200089EB92E0DF91CF910C94A505CF93DF93FA
:10023000EB0168E20E94810682EE92E00E94A50531
:100240008D859E85DF91CF910C940E06CF93DF9321
:10025000EB0168E20E94810687EE92E00E94A5050C
:100260008B899C890E940E0683E093E00E94A5057D
:100270008F8598890E940E0683E093E00E94A50571
:100280008D899E890E94B80583E093E00E94A505B0
:1002900089899A892F853889821B930BDF91CF91A9
:1002A0000C94B8050F931F93CF93C82F8B0181E057
:1002B0008C0F0E94C400B80182E08C0F0E94E800FD
:1002C000B80183E08C0F0E941601B80184E08C0F06
:1002D000CF911F910F910C942601EC010E94DD0635
:1002E00086EC93E00E94530781E20E94B80668E220
:1002F00081E00E948106CE010E94A50568E282E0AD
:100300000E94810680E20E94B80685E093E00E9488
:10031000A5050E9416030E94B80568E283E00E94CA
:10032000810684E20E94B8068CE093E00E94A50555
:100330000E947B0390E00E94B80585E20E94B80607
:1003400062ED73E086E00E94520169EE73E08BE09B
:100350000E94520160E074E080E10E94520167E176
:1003600074E085E10E9452016EE274E08AE10E942D
:10037000520165E474E08FE10E94520186EC93E043
:100380000E9483070E94B303ABCF8F929F92AF92DC
:10039000BF92CF92DF92EF92FF920F931F93CF9372
:1003A000DF93CDB7DEB70DB71EB7E62EF12C282FA1
:1003B00030E0F701E21BF30B3196CDB6DEB6CE1A74
:1003C000DF0A0FB6F894DEBE0FBECDBEADB7BEB726
:1003D00011964D01A42FB0E0AE19BF09EDB7FEB7DD
:1003E000EA1BFB0B0FB6F894FEBF0FBEEDBFADB717
:1003F000BEB71196C62EC81A91E09C0D461B9923D4
:1004000009F48EC0B901615D7C4F5B01B401D12C50
:10041000EFEFCE1ADE0AC80CD91CF50151915F012D
:10042000FB015193BF01EC15FD05B9F760E050E009
:10043000442309F461C0B701605D7C4F7B01BD01BD
:10044000CC24CA94C40ED12CEFEFCE1ADE0ACA0E09
:10045000DB1EF70151917F01FB015193BF01CE16C5
:10046000DF06B9F760E0992331F150E060E00BC09E
:100470005F5F215D3C4FF901F0825917C0F46417AA
:10048000D8F5282F30E07401E50EF11CF701F0805B
:100490006D01C60ED11CF60170818F5F7F1540F78C
:1004A0006F5F215D3C4FF9017083591740F364176A
:1004B00088F4282F30E0A60FB11D480F461B02C05C
:1004C000282F30E09D91215D3C4FF90190838F5F93
:1004D0008413F6CF0FB6F8941EBF0FBE0DBFDF9189
:1004E000CF911F910F91FF90EF90DF90CF90BF9031
:1004F000AF909F908F9008959401250F311DF82E95
:10050000581B8F5FF90171919F01EF2DF0E0E15DC4
:10051000FC4F7083F82E752F780F791790F3C7CFA3
:10052000411189CFD7CF1F93CF93DF93C82FD62FF9
:10053000861720F0DF91CF911F910895862F8C1B95
:10054000990BBC0197FF02C06F5F7F4F7595679550
:100550001C2F160F612F8C2F0E9493026D2F81E0AC
:10056000810F0E9493024D2F612F8C2FDF91CF912D
:100570001F910C94C5011F93CF93DF93D82F162F93
:1005800080912E038F5F80932E03862F8D1B990BF6
:10059000BC011816190614F4D11720F0DF91CF9181
:1005A0001F91089575956795CD2FC60F6C2F8D2FD0
:1005B0000E949302612F81E08C0F0E949302412FD1
:1005C0006C2F8D2FDF91CF911F910C94C501CF938C
:1005D0000E942503C82F8230F9F08330D1F0843097
:1005E000F1F06FE780E6C53009F080E00E94BB02C1
:1005F00060E08AE20E94810680E293E00E94A50505
:100600008C2F90E00E94B8058FEA93E0CF910C9474
:10061000BA076FE380E2EACF6FE180E0E7CF6FE5F2
:1006200080E4E4CF7894C701F80109942091AC04E8
:100630003091AD043695279536952795ABE7B4E113
:100640000E941F099695879508958091AB0408959F
:10065000FF920F931F93CF93DF93C0918A04D0E052
:100660008091AB0490E00196BE010E94E908282F1A
:10067000811103C081E090E021E037E1389FF00173
:10068000399FF00D1124EE52FC4F3181323011F1BF
:100690008E010150110910161106E4F430E027E133
:1006A000F22E03C030171106ACF40196BE010E9471
:1006B000E908282F811103C081E090E021E03F5F2D
:1006C000F89EF001F99EF00D1124EE52FC4F41818D
:1006D000423041F737E1389FF001399FF00D112486
:1006E000EE52FC4F82E08183822FDF91CF911F91E8
:1006F0000F91FF90089580918A0408952F923F9260
:100700004F925F926F927F928F929F92AF92BF9221
:10071000CF92DF92EF92FF920F931F93CF93DF93CD
:10072000F0E0EDE511912081E62FF72F1193208362
:10073000E82FF92F11912081F0E0EDE5119320834E
:10074000DF91CF911F910F91FF90EF90DF90CF90AD
:10075000BF90AF909F908F907F906F905F904F90E1
:100760003F902F900895CF93F894C091AB0487E108
:10077000C89FF0011124EE52FC4F8181813011F4A9
:1007800082E081830E9428038093AB04E82FF0E08D
:1007900067E16E9FC0016F9F900D1124DC01AE5286
:1007A000BC4F21E011962C93EE0FFF1FE556FB4F37
:1007B000208131812F5F3F4F31832083C69FB0015D
:1007C00011246D517C4F8D519C4F0E947E03789473
:1007D000CF910895F894E091AB042E2F30E047E1DB
:1007E000E49FF0011124EE52FC4F43E04183F901F4
:1007F000EE0FFF1FE557FB4F918380830E94B303E9
:10080000789408951F920F920FB60F9211240BB691
:100810000F922F933F934F935F936F937F938F9399
:100820009F93AF93BF93CF93DF93EF93FF93209169
:100830008A04222339F1EBE8F4E0A2EDB3E0215081
:1008400030E0220F331F23573B4F42E009C0EF0136
:1008500022970197998388835796E217F30791F0BF
:10086000819191918230910590F70197A9F7EF015D
:1008700022971982188211964C9311975796E21776
:10088000F30771F78091AC049091AD0401969093B9
:10089000AD048093AC04C091AB040E942803809304
:1008A000AB0427E12C9FB0011124FB01EE52FC4F59
:1008B00092E09183E82FF0E02E9FC0012F9F900DD2
:1008C0001124DC01AE52BC4F21E011962C93EE0FA7
:1008D000FF1FE556FB4F208131812F5F3F4F318352
:1008E00020836D517C4F8D519C4F0E947E03FF9160
:1008F000EF91DF91CF91BF91AF919F918F917F91B8
:100900006F915F914F913F912F910F900BBE0F9080
:100910000FBE0F901F9018951F920F920FB60F9257
:1009200011240BB60F922F938F939F93AF93BF9386
:10093000CF93DF93EF93FF9380918A048823B9F0DC
:10094000EBE9F4E0A2EDB3E0815090E0880F991F4D
:1009500083569B4F2081329612962C931297EF016B
:100960002297198218825796E817F90799F7FF918D
:10097000EF91DF91CF91BF91AF919F918F912F9187
:100980000F900BBE0F900FBE0F901F901895EEE6C4
:10099000F0E080818260808384B5826084BD85B50B
:1009A000856085BD8CE987BD89E09DE390938900D2
:1009B00080938800EFE6F0E0808182608083E1E848
:1009C000F0E080818D608083089510928A041092F7
:1009D000AB041092AD041092AC04E2EDF3E0168685
:1009E0001586108A1786128A118A779684E0EA386B
:1009F000F807A9F70C947C050E94C70478940E941C
:100A0000280327E1829FC001112463EE73E08D511A
:100A10009C4F0E947E0308959F92AF92BF92CF9207
:100A2000DF92EF92FF920F931F93CF93DF93B62E37
:100A3000072F942EA52E69012AE8E22E24E0F22E3B
:100A4000F7012081D7E1D29FF0011124EE52FC4F33
:100A500020832D9F9001112449E050E0BC01C90181
:100A60008B529C4F0E94C10AF7011081812F90E0A8
:100A7000D89F9001D99F300D1124E901CE52DC4F4F
:100A800022E02983880F991F8E529C4FFC01E75466
:100A9000FF4F1182108287539F4FFC0111821082F9
:100AA0001A82BD860E87C6018A969E8B8D8B0E9408
:100AB0004209988B8F87F601B996E80FF91FFC8BD6
:100AC000EB8B7697FA8BE98B82E193E0858B948BA5
:100AD000138AB48203839682A5821F5FF701108375
:100AE000DF91CF911F910F91FF90EF90DF90CF900A
:100AF000BF90AF909F90089582E08093C0001092C5
:100B0000C50080E18093C400E1ECF0E08081886161
:100B1000808308958091C000881F8827881F0895CA
:100B20008091C00087FF03C08091C60008958FEFB9
:100B300008959091C10095FDFCCF9091C00095FF64
:100B4000F8CF8093C60081E00895FC012081222324
:100B500071F031969091C10095FDFCCF9091C0004D
:100B600095FFF8CF2093C60021912111F3CF08956E
:100B7000CF93DF93EC018A30910570F4C05D9091C2
:100B8000C10095FDFCCF9091C00095FFF8CFC093B8
:100B9000C600DF91CF9108959C01ADECBCEC0E94A2
:100BA0001F099695879596958795969587959C01AB
:100BB000220F331F220F331F280F391F220F331F1D
:100BC000C21BD30B0E94B805D9CFCF92DF92EF9210
:100BD000FF926B017C018AE0C816D104E104F104A4
:100BE00088F480E3C80E8091C10085FDFCCF809120
:100BF000C00085FFF8CFC092C600FF90EF90DF9055
:100C0000CF900895C7012AE030E040E050E00E9414
:100C1000FD086B01C9010E94B805E3CFCF93DF93B4
:100C2000EC0180319105F8F4CA30D10570F4C05D53
:100C30009091C10095FDFCCF9091C00095FFF8CF39
:100C4000C093C600DF91CF910895C95C9091C10017
:100C500095FDFCCF9091C00095FFF8CFC093C600E2
:100C6000DF91CF910895929582958F7089279F701B
:100C70008927CF70DD270E940E06D6CFCF92DF9254
:100C8000EF92FF926B017C0120E1C216D104E104D6
:100C9000F10440F58AE0C816D104E104F10488F4B7
:100CA00090E39C0D8091C10085FDFCCF8091C00038
:100CB00085FFF8CF9093C600FF90EF90DF90CF9024
:100CC000089597E39C0D8091C10085FDFCCF809134
:100CD000C00085FFF8CF9093C600FF90EF90DF90A3
:100CE000CF90089524E096958795779567952A95F6
:100CF000D1F72FE0C222DD24EE24FF240E943E061D
:100D0000C9CFCF93C62F9091C10095FDFCCF909194
:100D1000C00095FFF8CF9BE19093C6009091C10071
:100D200095FDFCCF9091C00095FFF8CF9BE5909387
:100D3000C60090E00E94B8058091C10085FDFCCFFF
:100D40008091C00085FFF8CF8BE38093C6008C2F85
:100D500090E00E94B8058091C10085FDFCCF809194
:100D6000C00085FFF8CF88E48093C600CF91089536
:100D70009091C10095FDFCCF9091C00095FFF8CFF8
:100D80009BE19093C6009091C10095FDFCCF90919E
:100D9000C00095FFF8CF9BE59093C60090E00E94BD
:100DA000B8058091C10085FDFCCF8091C00085FF12
:100DB000F8CF8DE68093C60008958091C10085FD2F
:100DC000FCCF8091C00085FFF8CF8BE18093C600F7
:100DD0008091C10085FDFCCF8091C00085FFF8CFD8
:100DE0008BE58093C6008091C10085FDFCCF80918A
:100DF000C00085FFF8CF82E38093C6008091C100D8
:100E000085FDFCCF8091C00085FFF8CF8AE48093F8
:100E1000C6000895FC01238530E0E20FF31F6283D2
:100E20002F5F3F4F27703327FC0123870895FC0174
:100E300022858385281761F030E0DF01A20FB31F00
:100E400012968C912F5F3F4F27703327228708958A
:100E50008FEF0895FC01228530E0E20FF31F6183DC
:100E60002F5F3F4F27703327FC0122870895FC0135
:100E700021858285281761F030E0DF01A20FB31FC2
:100E800011968C912F5F3F4F27703327218708954C
:100E90008FEF0895FC01F89411828FEF8083128602
:100EA000138678940895CF93DF93EC01F8940E9411
:100EB00025039981992339F0988198130BC0789470
:100EC000DF91CF91089591E0998388837894DF91A1
:100ED000CF9108952B8530E0FE01E20FF31F82834E
:100EE0002F5F3F4F277033272B8797E1899FF001B2
:100EF0001124EE52FC4F84E081830E94B303789466
:100F0000DF91CF910895CF93DF93EC01F8940E9485
:100F100025039981992319F09881981721F07894E5
:100F2000DF91CF9108958A859B858917A9F090E07C
:100F3000FE01E80FF91FE2810196877099278A87E1
:100F4000EF3F51F0E88387E1E89FF0011124EE5272
:100F5000FC4F82E08183E3CF19828FEF88837894FE
:100F6000DF91CF910895FC01F89460831186128679
:100F700078940895CF93DF93EC01F8940E942503B1
:100F800098819150988397FD04C07894DF91CF9118
:100F900008952A8530E0FE01E20FF31F81832F5F61
:100FA0003F4F277033272A8797E1899FF00111244B
:100FB000EE52FC4F84E081830E94B3037894DF916A
:100FC000CF910895FC01F89490819F5F908319164A
:100FD00014F478940895818592858917C1F090E082
:100FE000DF01A80FB91F11962C91019687709927E0
:100FF0008187822F90E027E1289FF001299FF00D43
:101000001124EE52FC4F82E08183789408958FEF93
:1010100090E0F1CFCF93DF93EC01F89488818F5F5C
:101020008883181624F47894DF91CF9108950E9454
:10103000250329859A852917E9F130E0FE01E20FA1
:10104000F31F91812F5F3F4F277033272987E92FA7
:10105000F0E027E1929FA00111244F5E5F4F909333
:10106000AB0497E1989FB0011124DB01AE52BC4F55
:1010700082E011968C939E9FD0019F9FB00D11240A
:10108000AE52BC4F81E011968C93EE0FFF1FE556D8
:10109000FB4F208131812F5F3F4F318320836D5182
:1010A0007C4FCA018E529C4F0E947E037894DF9140
:1010B000CF9108954AEF56E1EFEFF0E09FEFCFCFE9
:1010C000CF93DF930E94E504CFE2D3E00E94B20AFF
:1010D0008F77907897FF04C0019780689F6F019683
:1010E000899383E0CF3AD80789F760E08FEA93E0ED
:1010F0000E94B3071092D20381E08093D303109231
:10110000D40349E050E06AE072E085ED93E00E948C
:10111000C10A80E698E09093E0038093DF03109289
:10112000E2031092E1031092E4031092E3031092A1
:10113000E6031092E5031092E8031092E703809112
:101140008A048F5F80938A040E94DD0628EC30E0D9
:101150004FE052E06DE671E082E292E00E940C0501
:1011600028EC30E04FE253E067EE72E080E392E07B
:101170000E940C0528EC30E04FE253E067EE72E08D
:1011800086E392E00E940C0528EC30E04FE253E049
:1011900067EE72E08CE392E00E940C0528EC30E0F0
:1011A0004FE253E067EE72E082E492E00E940C05A9
:1011B00028EC30E04FE253E06FE970E088E492E021
:1011C0000E940C050E94FC0490E080E0DF91CF912A
:1011D000089597FB072E16F4009407D077FD09D0E9
:1011E0000E942E0907FC05D03EF4909581959F4FF3
:1011F0000895709561957F4F0895A1E21A2EAA1B5C
:10120000BB1BFD010DC0AA1FBB1FEE1FFF1FA217B6
:10121000B307E407F50720F0A21BB30BE40BF50BB3
:10122000661F771F881F991F1A9469F7609570953C
:10123000809590959B01AC01BD01CF010895A29FBF
:10124000B001B39FC001A39F700D811D1124911D9A
:10125000B29F700D811D1124911D0895AA1BBB1B07
:1012600051E107C0AA1FBB1FA617B70710F0A61BA6
:10127000B70B881F991F5A95A9F780959095BC01C7
:10128000CD0108950F931F93CF93DF938230910583
:1012900010F482E090E0E091B004F091B10430E00D
:1012A00020E0B0E0A0E0309799F42115310509F471
:1012B0004AC0281B390B24303105D8F58A819B811F
:1012C0006115710589F1FB0193838283FE0111C0D1
:1012D000408151810281138148175907E0F0481776
:1012E000590799F4109761F012960C931297139680
:1012F0001C933296CF01DF91CF911F910F910895EA
:101300000093B0041093B104F4CF2115310551F0CE
:101310004217530738F0A901DB019A01BD01DF0133
:10132000F801C1CFEF01F9CF9093B1048093B004DD
:10133000CDCFFE01E20FF31F81939193225031092B
:1013400039832883D7CF2091AE043091AF04232B6B
:1013500041F420910202309103023093AF042093B4
:10136000AE0420910002309101022115310541F4B3
:101370002DB73EB74091040250910502241B350B56
:10138000E091AE04F091AF04E217F307A0F42E1B36
:101390003F0B2817390778F0AC014E5F5F4F2417D9
:1013A000350748F04E0F5F1F5093AF044093AE04D3
:1013B000819391939FCFF0E0E0E09CCFCF93DF93B8
:1013C0000097E9F0FC01329713821282A091B004D9
:1013D000B091B104ED0130E020E01097A1F420813C
:1013E0003181820F931F2091AE043091AF042817F2
:1013F000390709F061C0F093AF04E093AE04DF91C8
:10140000CF910895EA01CE17DF07E8F54A815B81A5
:101410009E0141155105B1F7E901FB83EA8349912A
:101420005991C40FD51FEC17FD0761F4808191819C
:101430000296840F951FE9019983888382819381A5
:101440009B838A83F0E0E0E012968D919C91139744
:101450000097B9F52D913C911197CD010296820F1D
:10146000931F2091AE043091AF042817390739F645
:10147000309751F51092B1041092B004B093AF04BC
:10148000A093AE04BCCFD383C28340815181840F2B
:10149000951FC817D90761F44E5F5F4F8881998106
:1014A000480F591F518340838A819B819383828394
:1014B0002115310509F0B0CFF093B104E093B004E9
:1014C0009ECFFD01DC01C0CF13821282D7CF8F9255
:1014D0009F92AF92BF92CF92DF92EF92FF92CF9303
:1014E000DF93EC01688179818A819B8161157105A7
:1014F0008105910521F464E279ED8BE597E02DE11A
:1015000033EF41E050E00E94D00A49015A019B01AB
:10151000AC01A7EAB1E40E94EF0A6B017C01ACEEDA
:10152000B4EFA50194010E94FD0ADC01CB018C0DF2
:101530009D1DAE1DBF1DB7FF03C00197A109B04897
:1015400088839983AA83BB839F77DF91CF91FF9094
:10155000EF90DF90CF90BF90AF909F908F900895C5
:101560000C94670A86E092E00C94670AB0E0A0E071
:101570008093060290930702A0930802B093090299
:101580000895FB01DC014150504048F001900D925C
:101590000020C9F701C01D9241505040E0F7089566
:1015A000052E97FB1EF400940E94E70A57FD07D012
:1015B0000E94FD0807FC03D04EF40C94E70A5095F6
:1015C0004095309521953F4F4F4F5F4F089590952F
:1015D0008095709561957F4F8F4F9F4F08950E9422
:1015E0001F09A59F900DB49F900DA49F800D911D84
:1015F00011240895B7FF0C94EF0A0E94EF0A821B92
:08160000930B0895F894FFCF4D
:101608000000B2042000010000006D61696E004D09
:10161800756C7469746872656164656420736F724F
:101628007400646973706C61795F737461747300BA
:10163800736F72743100736F72743200736F7274E7
:101648003300736F72743400646973706C61795F0E
:1016580061727261790054687265616420002028A3
:101668007363686564756C656420002074696D65D2
:101678007320706572207365636F6E642920202063
:101688002020005468726561642053746174757316
:101698003A20005448524541445F52554E4E494EF7
:1016A800472020202020005448524541445F52459D
:1016B8004144592020202020005448524541445F8D
:1016C800534C454550494E4720202020200054487F
:1016D800524541445F57414954494E4720202020F4
:1016E800200050433A2000537461636B2062617399
:1016F800652F656E642F73697A652F7573616765E9
:101708003A20002F0054696D653A20004E756D62CD
:101718006572206F6620746872656164733A200090
:0E17280063757272656E74207469643A2000F5
:00000001FF
