:100000000C947C000C949D000C949D000C949D001D
:100010000C949D000C949D000C949D000C949D00EC
:100020000C949D000C949D000C949D000C949D00DC
:100030000C949D000C949D000C949D000C949D00CC
:100040000C949D000C94C9040C949D000C949D008C
:100050000C949D000C943F040C949D000C949D0006
:100060000C949D000C949D000C949D000C949D009C
:100070000C949D000C949D000C949D000C949D008C
:100080000C949D000C949D000C949D000C949D007C
:100090000C949D000C949D000C949D000C949D006C
:1000A0000C949D000C949D000C949D000C949D005C
:1000B0000C949D000C949D000C949D000C949D004C
:1000C0000C949D000C949D000C949D000C949D003C
:1000D0000C949D000C949D000C949D000C949D002C
:1000E0000C949D000C9424030C944F030C949F00DB
:1000F0000C9460010C949D0811241FBECFEFD1E237
:10010000DEBFCDBF00E00CBF13E0A0E0B2E0ECE941
:10011000F6E100E00BBF02C007900D92A033B107DB
:10012000D9F724E0A0E3B3E001C01D92A43BB207DD
:10013000E1F70E949D080C944C0B0C9400000F9367
:100140001F93CF93DF93EC018C0100581F4F8991CF
:1001500090E00E94F5058FE792E00E94E205C0174B
:10016000D107A9F7DF91CF911F910F910895CF93F8
:10017000DF93EB0168E20E94BE0684E592E00E94F4
:10018000E205888190E00E94F50582EE92E00E94EF
:10019000E205CE0103960E94E2058CE592E00E9402
:1001A000E2058A8190E00E94F50589E692E0DF9100
:1001B000CF910C94E205CF93DF93EB0168E20E94AC
:1001C000BE0681E892E00E94E2058981813079F0E3
:1001D000823099F08330B9F0843019F0DF91CF91FB
:1001E00008958CEC92E0DF91CF910C94E20581E9C7
:1001F00092E0DF91CF910C94E20585EA92E0DF91E5
:10020000CF910C94E20587EB92E0DF91CF910C94B3
:10021000E205CF93DF93EB0168E20E94BE0680EE19
:1002200092E00E94E2058D859E85DF91CF910C942E
:100230004B06CF93DF93EB0168E20E94BE0685EE8A
:1002400092E00E94E2058B899C890E944B0681E026
:1002500093E00E94E2058F8598890E944B0681E019
:1002600093E00E94E2058D899E890E94F50581E058
:1002700093E00E94E20589899A892F853889821B3B
:10028000930BDF91CF910C94F5050F931F93CF93B0
:10029000C82F8B0181E08C0F0E94B700B80182E06B
:1002A0008C0F0E94DB00B80183E08C0F0E940901D3
:1002B000B80184E08C0FCF911F910F910C9419011C
:1002C000EC010E941A0754C088EC93E00E9490074A
:1002D00081E20E94F50668E281E00E94BE06CE013E
:1002E0000E94E20568E282E00E94BE0680E20E946F
:1002F000F50683E093E00E94E2050E9453030E940A
:10030000F50568E283E00E94BE0684E20E94F506DD
:100310008AE093E00E94E2050E94B80390E00E9408
:10032000F50585E20E94F50664ED73E086E00E9423
:1003300045016BEE73E08BE00E94450162E074E0E2
:1003400080E10E94450169E174E085E10E94450178
:1003500060E374E08AE10E94450167E474E08FE1A4
:100360000E94450188EC93E00E94C0070E94F003C0
:100370000E94C705882309F4A7CF0E94CD058636C1
:1003800099F0823701F18A3661F5809100029091EF
:100390000102883E23E0920708F096CF05969093DD
:1003A00001028093000290CF80910202909103029B
:1003B000883E23E0920708F087CF059690930302CA
:1003C0008093020281CF80910202909103028630D5
:1003D000910508F479CF0597909303028093020268
:1003E00073CF853709F070CF8091000290910102A0
:1003F0008630910508F468CF0597909301028093A9
:10040000000262CF8F929F92AF92BF92CF92DF9203
:10041000EF92FF920F931F93CF93DF93CDB7DEB789
:100420000DB71EB7E62EF12C282F30E0F701E21BA6
:10043000F30B3196CDB6DEB6CE1ADF0A0FB6F894BE
:10044000DEBE0FBECDBEADB7BEB711964D01A42F17
:10045000B0E0AE19BF09EDB7FEB7EA1BFB0B0FB654
:10046000F894FEBF0FBEEDBFADB7BEB71196C62E56
:10047000C81A91E09C0D461B992309F48EC0B9015E
:100480006F5C7C4F5B01B401D12CEFEFCE1ADE0A1A
:10049000C80CD91CF50151915F01FB015193BF01BB
:1004A000EC15FD05B9F760E050E0442309F461C0A4
:1004B000B7016E5C7C4F7B01BD01CC24CA94C40E95
:1004C000D12CEFEFCE1ADE0ACA0EDB1EF7015191D6
:1004D0007F01FB015193BF01CE16DF06B9F760E043
:1004E000992331F150E060E00BC05F5F2F5C3C4F1F
:1004F000F901F0825917C0F46417D8F5282F30E0BD
:100500007401E50EF11CF701F0806D01C60ED11CDF
:10051000F60170818F5F7F1540F76F5F2F5C3C4F56
:10052000F9017083591740F3641788F4282F30E0DD
:10053000A60FB11D480F461B02C0282F30E09D9129
:100540002F5C3C4FF90190838F5F8413F6CF0FB679
:10055000F8941EBF0FBE0DBFDF91CF911F910F9179
:10056000FF90EF90DF90CF90BF90AF909F908F90D3
:1005700008959401250F311DF82E581B8F5FF90146
:1005800071919F01EF2DF0E0EF5CFC4F7083F82E2E
:10059000752F780F791790F3C7CF411189CFD7CF37
:1005A0001F93CF93DF93C82FD62F861720F0DF91AC
:1005B000CF911F910895862F8C1B990BBC0197FF3B
:1005C00002C06F5F7F4F759567951C2F160F612FC7
:1005D0008C2F0E94D0026D2F81E0810F0E94D002EB
:1005E0004D2F612F8C2FDF91CF911F910C94020220
:1005F0001F93CF93DF93D82F162F809130038F5FF7
:1006000080933003862F8D1B990BBC011816190699
:1006100014F4D11720F0DF91CF911F9108957595B3
:100620006795CD2FC60F6C2F8D2F0E94D002612FA2
:1006300081E08C0F0E94D002412F6C2F8D2FDF9113
:10064000CF911F910C940202CF930E946203C82F96
:100650008130F9F08230D1F08330F1F06FE780E63D
:10066000C43009F080E00E94F8028EE193E00E941D
:10067000E2058AE293E00E94E2058C2F90E00E945E
:10068000F50581EB93E0CF910C94F7076FE380E2DF
:10069000EACF6FE180E0E7CF6FE580E4E4CF7894C4
:1006A000C701F80109942091AE043091AF0436954A
:1006B000279536952795ABE7B4E10E946909969591
:1006C000879508958091AD040895FF920F931F932D
:1006D000CF93DF93C0918C04D0E08091AD0490E083
:1006E0000196BE010E943309282F811103C081E0C9
:1006F00090E021E037E1389FF001399FF00D11249F
:10070000EC52FC4F3181323011F18E010150110950
:1007100010161106E4F430E027E1F22E03C0301782
:100720001106ACF40196BE010E943309282F8111F5
:1007300003C081E090E021E03F5FF89EF001F99E68
:10074000F00D1124EC52FC4F4181423041F737E16A
:10075000389FF001399FF00D1124EC52FC4F82E0DC
:100760008183822FDF91CF911F910F91FF90089588
:1007700080918C0408952F923F924F925F926F92D6
:100780007F928F929F92AF92BF92CF92DF92EF9221
:10079000FF920F931F93CF93DF93F0E0EDE511915C
:1007A0002081E62FF72F11932083E82FF92F119145
:1007B0002081F0E0EDE511932083DF91CF911F912F
:1007C0000F91FF90EF90DF90CF90BF90AF909F90F0
:1007D0008F907F906F905F904F903F902F900895F3
:1007E000CF93F894C091AD0487E1C89FF001112424
:1007F000EC52FC4F8181813011F482E081830E94B0
:1008000065038093AD04E82FF0E067E16E9FC001BF
:100810006F9F900D1124DC01AC52BC4F21E011966A
:100820002C93EE0FFF1FE356FB4F208131812F5F8A
:100830003F4F31832083C69FB00111246B517C4F01
:100840008B519C4F0E94BB037894CF910895F894EC
:10085000E091AD042E2F30E047E1E49FF001112438
:10086000EC52FC4F43E04183F901EE0FFF1FE357C9
:10087000FB4F918380830E94F003789408951F9228
:100880000F920FB60F9211240BB60F922F933F9336
:100890004F935F936F937F938F939F93AF93BF9388
:1008A000CF93DF93EF93FF9320918C04222339F1B0
:1008B000EDE8F4E0A4EDB3E0215030E0220F331F67
:1008C00021573B4F42E009C0EF01229701979983DE
:1008D00088835796E217F30791F0819191918230C6
:1008E000910590F70197A9F7EF01229719821882D5
:1008F00011964C9311975796E217F30771F7809171
:10090000AE049091AF0401969093AF048093AE042F
:10091000C091AD040E9465038093AD0427E12C9F34
:10092000B0011124FB01EC52FC4F92E09183E82FBF
:10093000F0E02E9FC0012F9F900D1124DC01AC52DE
:10094000BC4F21E011962C93EE0FFF1FE356FB4F97
:10095000208131812F5F3F4F318320836B517C4F4A
:100960008B519C4F0E94BB03FF91EF91DF91CF9180
:10097000BF91AF919F918F917F916F915F914F91B7
:100980003F912F910F900BBE0F900FBE0F901F90B5
:1009900018951F920F920FB60F9211240BB60F925B
:1009A0002F938F939F93AF93BF93CF93DF93EF9347
:1009B000FF9380918C048823B9F0EDE9F4E0A4ED75
:1009C000B3E0815090E0880F991F81569B4F2081A2
:1009D000329612962C931297EF0122971982188261
:1009E0005796E817F90799F7FF91EF91DF91CF91AB
:1009F000BF91AF919F918F912F910F900BBE0F9050
:100A00000FBE0F901F901895EEE6F0E08081826097
:100A1000808384B5826084BD85B5856085BD8CE9A1
:100A200087BD89E09DE39093890080938800EFE67D
:100A3000F0E0808182608083E1E8F0E080818D6079
:100A40008083089510928C041092AD041092AF042C
:100A50001092AE04E4EDF3E016861586108A178630
:100A6000128A118A779684E0EC38F807A9F70C947B
:100A7000B9050E94040578940E94650327E1829FCE
:100A8000C001112465EE73E08B519C4F0E94BB03A3
:100A900008959F92AF92BF92CF92DF92EF92FF9212
:100AA0000F931F93CF93DF93B62E072F942EA52E6F
:100AB00069012CE8E22E24E0F22EF7012081D7E133
:100AC000D29FF0011124EC52FC4F20832D9F900106
:100AD000112449E050E0BC01C90189529C4F0E9499
:100AE0000B0BF7011081812F90E0D89F9001D99FC7
:100AF000300D1124E901CC52DC4F22E02983880F0C
:100B0000991F8C529C4FFC01E754FF4F11821082B9
:100B100087539F4FFC01118210821A82BD860E8777
:100B2000C6018A969E8B8D8B0E948C09988B8F872D
:100B3000F601B996E80FF91FFC8BEB8B7697FA8BD1
:100B4000E98B8FE493E0858B948B138AB4820383C3
:100B50009682A5821F5FF7011083DF91CF911F91CD
:100B60000F91FF90EF90DF90CF90BF90AF909F904C
:100B7000089582E08093C0001092C50080E18093C8
:100B8000C400E1ECF0E08081886180830895809169
:100B9000C000881F8827881F08958091C00087FFA4
:100BA00003C08091C60008958FEF08959091C10011
:100BB00095FDFCCF9091C00095FFF8CF8093C600C3
:100BC00081E00895FC012081222371F031969091FB
:100BD000C10095FDFCCF9091C00095FFF8CF209308
:100BE000C60021912111F3CF0895CF93DF93EC013B
:100BF0008A30910570F4C05D9091C10095FDFCCFE5
:100C00009091C00095FFF8CFC093C600DF91CF91BF
:100C100008959C01ADECBCEC0E94690996958795FE
:100C200096958795969587959C01220F331F220FE5
:100C3000331F280F391F220F331FC21BD30B0E94F3
:100C4000F505D9CFCF92DF92EF92FF926B017C0135
:100C50008AE0C816D104E104F10488F480E3C80EE8
:100C60008091C10085FDFCCF8091C00085FFF8CF49
:100C7000C092C600FF90EF90DF90CF900895C7011B
:100C80002AE030E040E050E00E9447096B01C901D2
:100C90000E94F505E3CFCF93DF93EC0180319105FE
:100CA000F8F4CA30D10570F4C05D9091C10095FD93
:100CB000FCCF9091C00095FFF8CFC093C600DF91A4
:100CC000CF910895C95C9091C10095FDFCCF9091A2
:100CD000C00095FFF8CFC093C600DF91CF91089573
:100CE000929582958F7089279F708927CF70DD2715
:100CF0000E944B06D6CFCF92DF92EF92FF926B010C
:100D00007C0120E1C216D104E104F10440F58AE03F
:100D1000C816D104E104F10488F490E39C0D80919D
:100D2000C10085FDFCCF8091C00085FFF8CF909376
:100D3000C600FF90EF90DF90CF90089597E39C0D51
:100D40008091C10085FDFCCF8091C00085FFF8CF68
:100D50009093C600FF90EF90DF90CF90089524E02D
:100D600096958795779567952A95D1F72FE0C222BA
:100D7000DD24EE24FF240E947B06C9CFCF93C62F2B
:100D80009091C10095FDFCCF9091C00095FFF8CFE8
:100D90009BE19093C6009091C10095FDFCCF90918E
:100DA000C00095FFF8CF9BE59093C60090E00E94AD
:100DB000F5058091C10085FDFCCF8091C00085FFC5
:100DC000F8CF8BE38093C6008C2F90E00E94F5054E
:100DD0008091C10085FDFCCF8091C00085FFF8CFD8
:100DE00088E48093C600CF9108959091C10095FD4D
:100DF000FCCF9091C00095FFF8CF9BE19093C60087
:100E00009091C10095FDFCCF9091C00095FFF8CF67
:100E10009BE59093C60090E00E94F5058091C1008B
:100E200085FDFCCF8091C00085FFF8CF8DE68093D3
:100E3000C60008958091C10085FDFCCF8091C0005F
:100E400085FFF8CF8BE18093C6008091C10085FDBE
:100E5000FCCF8091C00085FFF8CF8BE58093C60062
:100E60008091C10085FDFCCF8091C00085FFF8CF47
:100E700082E38093C6008091C10085FDFCCF809104
:100E8000C00085FFF8CF8AE48093C6000895FC0176
:100E9000238530E0E20FF31F62832F5F3F4F2770FF
:100EA0003327FC0123870895FC01228583852817B9
:100EB00061F030E0DF01A20FB31F12968C912F5F1B
:100EC0003F4F27703327228708958FEF0895FC0145
:100ED000228530E0E20FF31F61832F5F3F4F2770C1
:100EE0003327FC0122870895FC012185828528177C
:100EF00061F030E0DF01A20FB31F11968C912F5FDC
:100F00003F4F27703327218708958FEF0895FC0105
:100F1000F89411828FEF8083128613867894089557
:100F2000CF93DF93EC01F8940E9462039981992397
:100F300039F0988198130BC07894DF91CF91089580
:100F400091E0998388837894DF91CF9108952B85E0
:100F500030E0FE01E20FF31F82832F5F3F4F2770C7
:100F600033272B8797E1899FF0011124EC52FC4F26
:100F700084E081830E94F0037894DF91CF910895FB
:100F8000CF93DF93EC01F8940E9462039981992337
:100F900019F09881981721F07894DF91CF910895F6
:100FA0008A859B858917A9F090E0FE01E80FF91F5B
:100FB000E2810196877099278A87EF3F51F0E88395
:100FC00087E1E89FF0011124EC52FC4F82E081831D
:100FD000E3CF19828FEF88837894DF91CF910895C2
:100FE000FC01F89460831186128678940895CF935B
:100FF000DF93EC01F8940E946203988191509883EA
:1010000097FD04C07894DF91CF9108952A8530E050
:10101000FE01E20FF31F81832F5F3F4F27703327BD
:101020002A8797E1899FF0011124EC52FC4F84E05C
:1010300081830E94F0037894DF91CF910895FC01A1
:10104000F89490819F5F9083191614F47894089512
:10105000818592858917C1F090E0DF01A80FB91F43
:1010600011962C910196877099278187822F90E0A5
:1010700027E1289FF001299FF00D1124EC52FC4F2D
:1010800082E08183789408958FEF90E0F1CFCF9341
:10109000DF93EC01F89488818F5F8883181624F41D
:1010A0007894DF91CF9108950E94620329859A85F3
:1010B0002917E9F130E0FE01E20FF31F91812F5F64
:1010C0003F4F277033272987E92FF0E027E1929FD0
:1010D000A00111244F5E5F4F9093AD0497E1989F5C
:1010E000B0011124DB01AC52BC4F82E011968C930D
:1010F0009E9FD0019F9FB00D1124AC52BC4F81E048
:1011000011968C93EE0FFF1FE356FB4F2081318128
:101110002F5F3F4F318320836B517C4FCA018C522C
:101120009C4F0E94BB037894DF91CF9108954AEFC2
:1011300056E1EFEFF0E09FEFCFCFCF93DF930E9428
:1011400022050E941A07C1E3D3E00E94FC0A8F77B0
:10115000907897FF04C0019780689F6F01968993EC
:1011600023E0C13BD20789F781E393E00E949F000F
:1011700060E081EB93E00E94F0071092D40381E0DD
:101180008093D5031092D60349E050E06EE072E000
:1011900087ED93E00E940B0B8DE998E09093E203BA
:1011A0008093E1031092E4031092E3031092E603AC
:1011B0001092E5031092E8031092E7031092EA03FD
:1011C0001092E90380918C048F5F80938C0428EC4B
:1011D00030E043E152E060E671E088E192E00E9495
:1011E000490528EC30E041E353E064E273E086E235
:1011F00092E00E94490528EC30E041E353E064E2CC
:1012000073E08EE292E00E94490528EC30E041E371
:1012100053E064E273E086E392E00E94490528EC23
:1012200030E041E353E064E273E08EE392E00E9439
:10123000490528EC30E041E353E06FE970E086E4D3
:1012400092E00E9449050E9439058FEF93ED20E35B
:10125000815090402040E1F700C0000090E080E025
:10126000DF91CF91089597FB072E16F4009407D0D5
:1012700077FD09D00E94780907FC05D03EF49095CF
:1012800081959F4F0895709561957F4F0895A1E2D4
:101290001A2EAA1BBB1BFD010DC0AA1FBB1FEE1FF0
:1012A000FF1FA217B307E407F50720F0A21BB30B3B
:1012B000E40BF50B661F771F881F991F1A9469F7B7
:1012C00060957095809590959B01AC01BD01CF0113
:1012D0000895A29FB001B39FC001A39F700D811D0F
:1012E0001124911DB29F700D811D1124911D08952F
:1012F000AA1BBB1B51E107C0AA1FBB1FA617B7073C
:1013000010F0A61BB70B881F991F5A95A9F7809557
:101310009095BC01CD0108950F931F93CF93DF9358
:101320008230910510F482E090E0E091B204F091F7
:10133000B30430E020E0B0E0A0E0309799F421154C
:10134000310509F44AC0281B390B24303105D8F582
:101350008A819B816115710589F1FB0193838283E9
:10136000FE0111C040815181028113814817590744
:10137000E0F04817590799F4109761F012960C9312
:10138000129713961C933296CF01DF91CF911F9144
:101390000F9108950093B2041093B304F4CF211574
:1013A000310551F04217530738F0A901DB019A01CA
:1013B000BD01DF01F801C1CFEF01F9CF9093B30474
:1013C0008093B204CDCFFE01E20FF31F819391937E
:1013D0002250310939832883D7CF2091B00430912E
:1013E000B104232B41F4209106023091070230937F
:1013F000B1042093B004209104023091050221151C
:10140000310541F42DB73EB74091080250910902D1
:10141000241B350BE091B004F091B104E217F307FF
:10142000A0F42E1B3F0B2817390778F0AC014E5F54
:101430005F4F2417350748F04E0F5F1F5093B104DC
:101440004093B004819391939FCFF0E0E0E09CCF74
:10145000CF93DF930097E9F0FC0132971382128259
:10146000A091B204B091B304ED0130E020E01097F8
:10147000A1F420813181820F931F2091B00430911B
:10148000B1042817390709F061C0F093B104E09363
:10149000B004DF91CF910895EA01CE17DF07E8F598
:1014A0004A815B819E0141155105B1F7E901FB833A
:1014B000EA8349915991C40FD51FEC17FD0761F4D8
:1014C000808191810296840F951FE9019983888319
:1014D000828193819B838A83F0E0E0E012968D9174
:1014E0009C9113970097B9F52D913C911197CD01DF
:1014F0000296820F931F2091B0043091B1042817F7
:10150000390739F6309751F51092B3041092B204AE
:10151000B093B104A093B004BCCFD383C283408105
:101520005181840F951FC817D90761F44E5F5F4F33
:1015300088819981480F591F518340838A819B81FB
:10154000938382832115310509F0B0CFF093B30462
:10155000E093B2049ECFFD01DC01C0CF1382128262
:10156000D7CF8F929F92AF92BF92CF92DF92EF929E
:10157000FF92CF93DF93EC01688179818A819B810F
:10158000611571058105910521F464E279ED8BE522
:1015900097E02DE133EF41E050E00E941A0B490142
:1015A0005A019B01AC01A7EAB1E40E94390B6B011F
:1015B0007C01ACEEB4EFA50194010E94470BDC0165
:1015C000CB018C0D9D1DAE1DBF1DB7FF03C0019744
:1015D000A109B04888839983AA83BB839F77DF9151
:1015E000CF91FF90EF90DF90CF90BF90AF909F9002
:1015F0008F9008950C94B10A8AE092E00C94B10A9D
:10160000B0E0A0E080930A0290930B02A0930C023A
:10161000B0930D020895FB01DC014150504048F0A9
:1016200001900D920020C9F701C01D924150504019
:10163000E0F70895052E97FB1EF400940E94310BED
:1016400057FD07D00E94470907FC03D04EF40C94C5
:10165000310B50954095309521953F4F4F4F5F4F3F
:10166000089590958095709561957F4F8F4F9F4F0E
:1016700008950E946909A59F900DB49F900DA49FA5
:10168000800D911D11240895B7FF0C94390B0E9411
:0C169000390B821B930B0895F894FFCFD8
:10169C00F40164000000B4042000010000006D613E
:1016AC00696E007465737400646973706C61795F42
:1016BC00737461747300746872656164310074686A
:1016CC0072656164320074687265616433007468B9
:1016DC00726561643400646973706C61795F617206
:1016EC00726179005468726561642000202873630C
:1016FC00686564756C656420002074696D65732081
:10170C00706572207365636F6E6429202020202021
:10171C0000546872656164205374617475733A2067
:10172C00005448524541445F52554E4E494E472055
:10173C0020202020005448524541445F52454144EA
:10174C00592020202020005448524541445F534CDE
:10175C00454550494E4720202020200054485245F2
:10176C0041445F57414954494E47202020202000D6
:10177C0050433A2000537461636B20626173652F90
:10178C00656E642F73697A652F75736167653A208E
:10179C00002F0054696D653A20004E756D626572BC
:1017AC00206F6620746872656164733A200041662C
:1017BC0074657220736F727420007469643A00004F
:00000001FF
