:100000000C947C000C949D000C949D000C949D001D
:100010000C949D000C949D000C949D000C949D00EC
:100020000C949D000C949D000C949D000C949D00DC
:100030000C949D000C949D000C949D000C949D00CC
:100040000C949D000C9430040C949D000C949D0025
:100050000C949D000C94A6030C949D000C949D00A0
:100060000C949D000C949D000C949D000C949D009C
:100070000C949D000C949D000C949D000C949D008C
:100080000C949D000C949D000C949D000C949D007C
:100090000C949D000C949D000C949D000C949D006C
:1000A0000C949D000C949D000C949D000C949D005C
:1000B0000C949D000C949D000C949D000C949D004C
:1000C0000C949D000C949D000C949D000C949D003C
:1000D0000C949D000C949D000C949D000C949D002C
:1000E0000C949D000C94B6020C949F000C94040890
:1000F0000C948A010C945E0211241FBECFEFD1E252
:10010000DEBFCDBF00E00CBF13E0A0E0B2E0E4E64C
:10011000F5E100E00BBF02C007900D92A230B107DD
:10012000D9F724E0A2E0B3E001C01D92AA37B207DC
:10013000E1F70E9404080C94B00A0C940000EF92BE
:10014000FF920F931F93CF93DF930E94C902082F52
:100150008EE893E00E94F706023009F4A3C0033052
:1001600009F4C1C0043009F4C6C0C1E01FE7D0E003
:10017000053009F4A9C08D2F90E09C012D5F3C4F04
:100180007901F70181917F0190E00E945C0582E690
:1001900092E00E944905DF5F1D1798F78EE893E013
:1001A0000E942707FFEF29E638E1F1502040304058
:1001B000E1F700C0000083E893E00E945E078FEF44
:1001C0009DE2E2E281509040E040E1F700C0000093
:1001D0001C1728F14C2F50E04D5F5C4F8FEF8C0FB8
:1001E000A82FB0E0AD5FBC4FFA012191AF01FD0136
:1001F000E350F3409D91ED5FFC4F291748F4918344
:100200008150E82FF0E0ED5FFC4F90812917B8F3A3
:100210002183CF5F1C1718F08FEF8C0FE5CF83E899
:1002200093E00E9486078EE893E00E94F706023072
:1002300091F1033009F450C0043009F464C0DFE7E1
:10024000C0E00530D1F181E20E945C060C2F10E085
:100250000D5F1C4FF80181918F0190E00E945C05B9
:1002600082E692E00E944905CF5FDC1798F78EE89E
:1002700093E00E942707FFEF29E638E1F150204084
:100280003040E1F700C00000DF91CF911F910F9146
:10029000FF90EF90089568E285E10E942506DFE176
:1002A000C0E0D1CF68E285E10E942506C1E01FE1F0
:1002B000D0E08FE10E945C065ECF68E284E20E949B
:1002C0002506DFE7C0E6BFCF68E284E20E9425068C
:1002D000C1E61FE7D0E6EDCF68E28AE10E9425067D
:1002E000DFE3C0E2B0CF68E28AE10E942506C1E206
:1002F0001FE3D0E2DECF68E28FE10E942506C1E471
:100300001FE5D0E4D6CF68E28FE10E942506DFE545
:10031000C0E499CF7C018C0100581F4F8EE893E018
:100320000E94F70660E08CE20E94250680E20E94AF
:100330005C06E701899190E00E945C0582E692E00C
:100340000E944905C017D107A9F72FEF89E698E168
:10035000215080409040E1F700C000008EE893E01B
:100360000E9427070E945703D9CFCF93DF93EB0159
:1003700068E20E94250687E392E00E944905888191
:1003800090E00E945C0585EC92E00E944905CE0158
:1003900003960E9449058FE392E00E9449058A81F5
:1003A00090E00E945C058CE492E0DF91CF910C9488
:1003B0004905CF93DF93EB0168E20E94250684E6AE
:1003C00092E00E9449058981813079F0823099F06C
:1003D0008330B9F0843019F0DF91CF9108958FEA1E
:1003E00092E0DF91CF910C94490584E792E0DF9190
:1003F000CF910C94490588E892E0DF91CF910C945D
:1004000049058AE992E0DF91CF910C944905CF9399
:10041000DF93EB0168E20E94250683EC92E00E94E4
:1004200049058D859E85DF91CF910C94B205CF93C0
:10043000DF93EB0168E20E94250688EC92E00E94BF
:1004400049058B899C890E94B20584EE92E00E9446
:1004500049058F8598890E94B20584EE92E00E943A
:1004600049058D899E890E945C0584EE92E00E9478
:10047000490589899A892F853889821B930BDF91D9
:10048000CF910C945C050F931F93CF93C82F8B01D2
:1004900081E08C0F0E94B501B80182E08C0F0E94B0
:1004A000D901B80183E08C0F0E940702B80184E0F3
:1004B0008C0FCF911F910F910C941702EC010E94A9
:1004C00081068EE893E00E94F70681E20E945C06B6
:1004D00068E281E00E942506CE010E94490568E29B
:1004E00082E00E94250680E20E945C0686EE92E091
:1004F0000E9449050E94BA020E945C0568E282E0FF
:100500000E94250684E20E945C068DEE92E00E9425
:1005100049050E941F0390E00E945C0585E20E944D
:100520005C066AE973E086E00E94430261EB73E0D7
:100530008BE00E94430268EC73E080E10E9443027A
:100540006FED73E085E10E94430266EF73E08AE19C
:100550000E9443026DE074E08FE10E9443028EE846
:1005600093E00E9427070E945703ABCF7894C701FE
:10057000F8010994209174043091750436952795FB
:1005800036952795ABE7B4E10E94CD0896958795FF
:100590000895809173040895FF920F931F93CF9352
:1005A000DF93C0915204D0E08091730490E00196F3
:1005B000BE010E949708282F811103C081E090E0BE
:1005C00021E037E1389FF001399FF00D1124E65604
:1005D000FC4F3181323011F18E010150110910169A
:1005E0001106E4F430E027E1F22E03C030171106C3
:1005F000ACF40196BE010E949708282F811103C018
:1006000081E090E021E03F5FF89EF001F99EF00D5F
:100610001124E656FC4F4181423041F737E1389FC3
:10062000F001399FF00D1124E656FC4F82E08183E2
:10063000822FDF91CF911F910F91FF9008958091AC
:10064000520408952F923F924F925F926F927F9241
:100650008F929F92AF92BF92CF92DF92EF92FF92D2
:100660000F931F93CF93DF93F0E0EDE5119120817D
:10067000E62FF72F11932083E82FF92F1191208176
:10068000F0E0EDE511932083DF91CF911F910F9161
:10069000FF90EF90DF90CF90BF90AF909F908F90A2
:1006A0007F906F905F904F903F902F900895CF93E1
:1006B000F894C091730487E1C89FF0011124E656B5
:1006C000FC4F8181813011F482E081830E94CC0251
:1006D00080937304E82FF0E067E16E9FC0016F9F85
:1006E000900D1124DC01A656BC4F21E011962C93ED
:1006F000EE0FFF1FED59FB4F208131812F5F3F4FE0
:1007000031832083C69FB001112465557C4F8555E8
:100710009C4F0E9422037894CF910895F894E09121
:1007200073042E2F30E047E1E49FF0011124E656D8
:10073000FC4F43E04183F901EE0FFF1FED5AFB4FE1
:10074000918380830E945703789408951F920F929B
:100750000FB60F9211240BB60F922F933F934F9326
:100760005F936F937F938F939F93AF93BF93CF9339
:10077000DF93EF93FF9320915204222339F1E3E5B5
:10078000F4E0AAE9B3E0215030E0220F331F2B5AE6
:100790003B4F42E009C0EF0122970197998388837C
:1007A0005796E217F30791F081919191823091056C
:1007B00090F70197A9F7EF012297198218821196F5
:1007C0004C9311975796E217F30771F780917404D1
:1007D0009091750401969093750480937404C09170
:1007E00073040E94CC028093730427E12C9FB00114
:1007F0001124FB01E656FC4F92E09183E82FF0E0D4
:100800002E9FC0012F9F900D1124DC01A656BC4FD6
:1008100021E011962C93EE0FFF1FED59FB4F208125
:1008200031812F5F3F4F3183208365557C4F855544
:100830009C4F0E942203FF91EF91DF91CF91BF91D6
:10084000AF919F918F917F916F915F914F913F9168
:100850002F910F900BBE0F900FBE0F901F90189509
:100860001F920F920FB60F9211240BB60F922F9377
:100870008F939F93AF93BF93CF93DF93EF93FF93A8
:10088000809152048823B9F0E3E6F4E0AAE9B3E0EA
:10089000815090E0880F991F8B599B4F2081329691
:1008A00012962C931297EF0122971982188257966D
:1008B000E817F90799F7FF91EF91DF91CF91BF9179
:1008C000AF919F918F912F910F900BBE0F900FBE04
:1008D0000F901F901895EEE6F0E080818260808393
:1008E00084B5826084BD85B5856085BD8CE987BD92
:1008F00089E09DE39093890080938800EFE6F0E023
:10090000808182608083E1E8F0E080818D60808377
:10091000089510925204109273041092750410926C
:100920007404EAE9F3E016861586108A1786128A9F
:10093000118A779684E0E235F807A9F70C94200530
:100940000E946B0478940E94CC0227E1829FC00130
:1009500011246BEA73E085559C4F0E942203089591
:100960009F92AF92BF92CF92DF92EF92FF920F933E
:100970001F93CF93DF93B62E072F942EA52E6901D8
:1009800022E5E22E24E0F22EF7012081D7E1D29F6A
:10099000F0011124E656FC4F20832D9F9001112475
:1009A00049E050E0BC01C90183569C4F0E946F0A88
:1009B000F7011081812F90E0D89F9001D99F300DD1
:1009C0001124E901C656DC4F22E02983880F991FC4
:1009D00086569C4FFC01E754FF4F118210828753CB
:1009E0009F4FFC01118210821A82BD860E87C601BC
:1009F0008A969E8B8D8B0E94F008988B8F87F601CC
:100A0000B996E80FF91FFC8BEB8B7697FA8BE98B85
:100A100086EB92E0858B948B138AB4820383968253
:100A2000A5821F5FF7011083DF91CF911F910F9176
:100A3000FF90EF90DF90CF90BF90AF909F90089580
:100A400082E08093C0001092C50080E18093C400D2
:100A5000E1ECF0E080818861808308958091C0009E
:100A6000881F8827881F08958091C00087FF03C0D2
:100A70008091C60008958FEF08959091C10095FD73
:100A8000FCCF9091C00095FFF8CF8093C60081E025
:100A90000895FC012081222371F031969091C100CC
:100AA00095FDFCCF9091C00095FFF8CF2093C60034
:100AB00021912111F3CF0895CF93DF93EC018A3078
:100AC000910570F4C05D9091C10095FDFCCF9091AF
:100AD000C00095FFF8CFC093C600DF91CF91089575
:100AE0009C01ADECBCEC0E94CD089695879596953F
:100AF0008795969587959C01220F331F220F331FF0
:100B0000280F391F220F331FC21BD30B0E945C0515
:100B1000D9CFCF92DF92EF92FF926B017C018AE0F6
:100B2000C816D104E104F10488F480E3C80E809172
:100B3000C10085FDFCCF8091C00085FFF8CFC09239
:100B4000C600FF90EF90DF90CF900895C7012AE094
:100B500030E040E050E00E94AB086B01C9010E9408
:100B60005C05E3CFCF93DF93EC0180319105F8F47E
:100B7000CA30D10570F4C05D9091C10095FDFCCFE5
:100B80009091C00095FFF8CFC093C600DF91CF9140
:100B90000895C95C9091C10095FDFCCF9091C00073
:100BA00095FFF8CFC093C600DF91CF91089592953D
:100BB00082958F7089279F708927CF70DD270E94CB
:100BC000B205D6CFCF92DF92EF92FF926B017C01FC
:100BD00020E1C216D104E104F10440F58AE0C81610
:100BE000D104E104F10488F490E39C0D8091C100EC
:100BF00085FDFCCF8091C00085FFF8CF9093C600A3
:100C0000FF90EF90DF90CF90089597E39C0D809137
:100C1000C10085FDFCCF8091C00085FFF8CF909387
:100C2000C600FF90EF90DF90CF90089524E0969556
:100C30008795779567952A95D1F72FE0C222DD2415
:100C4000EE24FF240E94E205C9CFCF93C62F9091D6
:100C5000C10095FDFCCF9091C00095FFF8CF9BE1BE
:100C60009093C6009091C10095FDFCCF9091C0007B
:100C700095FFF8CF9BE59093C60090E00E945C053D
:100C80008091C10085FDFCCF8091C00085FFF8CF29
:100C90008BE38093C6008C2F90E00E945C058091CE
:100CA000C10085FDFCCF8091C00085FFF8CF88E4AE
:100CB0008093C600CF9108959091C10095FDFCCF1F
:100CC0009091C00095FFF8CF9BE19093C600909162
:100CD000C10095FDFCCF9091C00095FFF8CF9BE53A
:100CE0009093C60090E00E945C058091C10085FD54
:100CF000FCCF8091C00085FFF8CF8DE68093C600C1
:100D000008958091C10085FDFCCF8091C00085FFD2
:100D1000F8CF8BE18093C6008091C10085FDFCCFA8
:100D20008091C00085FFF8CF8BE58093C60080914D
:100D3000C10085FDFCCF8091C00085FFF8CF82E324
:100D40008093C6008091C10085FDFCCF8091C000DA
:100D500085FFF8CF8AE48093C6000895FC012385BF
:100D600030E0E20FF31F62832F5F3F4F277033277E
:100D7000FC0123870895FC0122858385281761F0F3
:100D800030E0DF01A20FB31F12968C912F5F3F4F0F
:100D900027703327228708958FEF0895FC0122855D
:100DA00030E0E20FF31F61832F5F3F4F277033273F
:100DB000FC0122870895FC0121858285281761F0B6
:100DC00030E0DF01A20FB31F11968C912F5F3F4FD0
:100DD00027703327218708958FEF0895FC01F89439
:100DE00011828FEF80831286138678940895CF93B3
:100DF000DF93EC01F8940E94C9029981992339F09C
:100E0000988198130BC07894DF91CF91089591E069
:100E1000998388837894DF91CF9108952B8530E072
:100E2000FE01E20FF31F82832F5F3F4F27703327AE
:100E30002B8797E1899FF0011124E656FC4F84E04F
:100E400081830E9457037894DF91CF910895CF93C7
:100E5000DF93EC01F8940E94C9029981992319F05B
:100E60009881981721F07894DF91CF9108958A8521
:100E70009B858917A9F090E0FE01E80FF91FE28138
:100E80000196877099278A87EF3F51F0E88387E1C1
:100E9000E89FF0011124E656FC4F82E08183E3CF06
:100EA00019828FEF88837894DF91CF910895FC01A8
:100EB000F89460831186128678940895CF93DF9317
:100EC000EC01F8940E94C90298819150988397FD93
:100ED00004C07894DF91CF9108952A8530E0FE0117
:100EE000E20FF31F81832F5F3F4F277033272A873D
:100EF00097E1899FF0011124E656FC4F84E081833D
:100F00000E9457037894DF91CF910895FC01F894E3
:100F100090819F5F9083191614F4789408958185C9
:100F200092858917C1F090E0DF01A80FB91F1196D3
:100F30002C910196877099278187822F90E027E175
:100F4000289FF001299FF00D1124E656FC4F82E006
:100F50008183789408958FEF90E0F1CFCF93DF9362
:100F6000EC01F89488818F5F8883181624F47894B4
:100F7000DF91CF9108950E94C90229859A8529178A
:100F8000E9F130E0FE01E20FF31F91812F5F3F4F47
:100F9000277033272987E92FF0E027E1929FA001EE
:100FA00011244F5E5F4F9093730497E1989FB001B7
:100FB0001124DB01A656BC4F82E011968C939E9FB4
:100FC000D0019F9FB00D1124A656BC4F81E0119611
:100FD0008C93EE0FFF1FED59FB4F208131812F5F66
:100FE0003F4F3183208365557C4FCA0186569C4F05
:100FF0000E9422037894DF91CF9108954AEF56E141
:10100000EFEFF0E09FEFCFCF0E948904C3E0D3E081
:101010000E94600A8F77907897FF04C001978068DC
:101020009F6F0196899383E0C338D80789F764E0FE
:1010300083E893E00E94570710929A0381E080931F
:101040009B0310929C0349E050E06AE072E08DE956
:1010500093E00E946F0A84E098E09093A803809345
:10106000A7031092AA031092A9031092AC03109246
:10107000AB031092AE031092AD031092B003109226
:10108000AF03809152048F5F809352040E948106C7
:1010900028EC30E04FE052E06EE572E084E192E04F
:1010A0000E94B00428EC30E043E053E06FE970E0C8
:1010B00089E192E00E94B00428EC30E043E053E084
:1010C0006FE970E08FE192E00E94B00428EC30E01C
:1010D00043E053E06FE970E085E292E00E94B004E3
:1010E00028EC30E043E053E06FE970E08BE292E0FF
:1010F0000E94B00428EC30E043E053E06AE871E07D
:1011000081E392E00E94B0040E94A0047894809150
:1011100083038430F4F38EE893E00E94F70683E0C3
:1011200093E00E949F0083E093E00E948A0197FB76
:10113000072E16F4009407D077FD09D00E94DC0832
:1011400007FC05D03EF4909581959F4F08957095CA
:1011500061957F4F0895A1E21A2EAA1BBB1BFD01CA
:101160000DC0AA1FBB1FEE1FFF1FA217B307E40786
:10117000F50720F0A21BB30BE40BF50B661F771FDE
:10118000881F991F1A9469F76095709580959095BE
:101190009B01AC01BD01CF010895A29FB001B39F97
:1011A000C001A39F700D811D1124911DB29F700D70
:1011B000811D1124911D0895AA1BBB1B51E107C07D
:1011C000AA1FBB1FA617B70710F0A61BB70B881FD7
:1011D000991F5A95A9F780959095BC01CD01089566
:1011E0000F931F93CF93DF938230910510F482E029
:1011F00090E0E0917804F091790430E020E0B0E0F4
:10120000A0E0309799F42115310509F44AC0281B54
:10121000390B24303105D8F58A819B816115710520
:1012200089F1FB0193838283FE0111C040815181CA
:101230000281138148175907E0F04817590799F4BC
:10124000109761F012960C93129713961C93329696
:10125000CF01DF91CF911F910F91089500937804F2
:1012600010937904F4CF2115310551F0421753073B
:1012700038F0A901DB019A01BD01DF01F801C1CFFE
:10128000EF01F9CF9093790480937804CDCFFE01DC
:10129000E20FF31F81939193225031093983288300
:1012A000D7CF2091760430917704232B41F42091FD
:1012B0000202309103023093770420937604209148
:1012C0000002309101022115310541F42DB73EB7DE
:1012D0004091040250910502241B350BE0917604E5
:1012E000F0917704E217F307A0F42E1B3F0B2817A9
:1012F000390778F0AC014E5F5F4F2417350748F08F
:101300004E0F5F1F5093770440937604819391931F
:101310009FCFF0E0E0E09CCFCF93DF930097E9F020
:10132000FC01329713821282A0917804B091790463
:10133000ED0130E020E01097A1F420813181820F8F
:10134000931F20917604309177042817390709F00C
:1013500061C0F0937704E0937604DF91CF91089514
:10136000EA01CE17DF07E8F54A815B819E0141154E
:101370005105B1F7E901FB83EA8349915991C40F03
:10138000D51FEC17FD0761F4808191810296840FCF
:10139000951FE90199838883828193819B838A8346
:1013A000F0E0E0E012968D919C9113970097B9F5CB
:1013B0002D913C911197CD010296820F931F2091A0
:1013C0007604309177042817390739F6309751F5AC
:1013D0001092790410927804B0937704A093760465
:1013E000BCCFD383C28340815181840F951FC8171E
:1013F000D90761F44E5F5F4F88819981480F591F6B
:10140000518340838A819B81938382832115310597
:1014100009F0B0CFF0937904E09378049ECFFD01FA
:10142000DC01C0CF13821282D7CF8F929F92AF92EE
:10143000BF92CF92DF92EF92FF92CF93DF93EC01B6
:10144000688179818A819B8161157105810591058A
:1014500021F464E279ED8BE597E02DE133EF41E093
:1014600050E00E947E0A49015A019B01AC01A7EAA3
:10147000B1E40E949D0A6B017C01ACEEB4EFA501C2
:1014800094010E94AB0ADC01CB018C0D9D1DAE1DA9
:10149000BF1DB7FF03C00197A109B0488883998396
:1014A000AA83BB839F77DF91CF91FF90EF90DF906E
:1014B000CF90BF90AF909F908F9008950C94150A95
:1014C00086E092E00C94150AB0E0A0E0809306025A
:1014D00090930702A0930802B09309020895FB01BC
:1014E000DC014150504048F001900D920020C9F7B6
:1014F00001C01D9241505040E0F70895052E97FB22
:101500001EF400940E94950A57FD07D00E94AB0874
:1015100007FC03D04EF40C94950A509540953095F5
:1015200021953F4F4F4F5F4F08959095809570954F
:1015300061957F4F8F4F9F4F08950E94CD08A59FC3
:10154000900DB49F900DA49F800D911D11240895BE
:10155000B7FF0C949D0A0E949D0A821B930B08956D
:04156000F894FFCF2D
:1015640000007A042000010000006D61696E0053E0
:101574006F7274007374617400736F7274310073EA
:101584006F72743200736F72743300736F727434D9
:10159400007072696E740054687265616420002082
:1015A400287363686564756C656420002074696DD4
:1015B400657320706572207365636F6E64292020E3
:1015C400202020005468726561642053746174752E
:1015D400733A20005448524541445F52554E4E4997
:1015E4004E472020202020005448524541445F5259
:1015F400454144592020202020005448524541446C
:101604005F534C454550494E47202020202000542C
:1016140048524541445F57414954494E4720202090
:1016240020200050433A2000537461636B206261B0
:1016340073652F656E642F73697A652F757361679F
:10164400653A20002F0054696D653A20004E756D8F
:10165400626572206F6620746872656164733A20F3
:02166400000084
:00000001FF
